
MangaScreen.elf:     file format elf32-avr

Sections:
Idx Name          Size      VMA       LMA       File off  Algn
  0 .data         000000c2  00800100  000028ea  0000297e  2**0
                  CONTENTS, ALLOC, LOAD, DATA
  1 .text         000028ea  00000000  00000000  00000094  2**1
                  CONTENTS, ALLOC, LOAD, READONLY, CODE
  2 .bss          0000012c  008001c2  008001c2  00002a40  2**0
                  ALLOC
  3 .stab         00003504  00000000  00000000  00002a40  2**2
                  CONTENTS, READONLY, DEBUGGING
  4 .stabstr      000013c3  00000000  00000000  00005f44  2**0
                  CONTENTS, READONLY, DEBUGGING
  5 .comment      00000011  00000000  00000000  00007307  2**0
                  CONTENTS, READONLY
  6 .debug_aranges 00000750  00000000  00000000  00007318  2**0
                  CONTENTS, READONLY, DEBUGGING
  7 .debug_info   0000bebb  00000000  00000000  00007a68  2**0
                  CONTENTS, READONLY, DEBUGGING
  8 .debug_abbrev 000030f7  00000000  00000000  00013923  2**0
                  CONTENTS, READONLY, DEBUGGING
  9 .debug_line   0000430a  00000000  00000000  00016a1a  2**0
                  CONTENTS, READONLY, DEBUGGING
 10 .debug_frame  000012bc  00000000  00000000  0001ad24  2**2
                  CONTENTS, READONLY, DEBUGGING
 11 .debug_str    000043f9  00000000  00000000  0001bfe0  2**0
                  CONTENTS, READONLY, DEBUGGING
 12 .debug_loc    00007406  00000000  00000000  000203d9  2**0
                  CONTENTS, READONLY, DEBUGGING
 13 .debug_ranges 00000818  00000000  00000000  000277df  2**0
                  CONTENTS, READONLY, DEBUGGING

Disassembly of section .text:

00000000 <__vectors>:
#include "HIDParser.h"

uint8_t USB_ProcessHIDReport(const uint8_t* ReportData,
                             uint16_t ReportSize,
                             HID_ReportInfo_t* const ParserData)
{
       0:	ee c0       	rjmp	.+476    	; 0x1de <__ctors_end>
       2:	00 00       	nop
       4:	08 c1       	rjmp	.+528    	; 0x216 <__bad_interrupt>
       6:	00 00       	nop
       8:	06 c1       	rjmp	.+524    	; 0x216 <__bad_interrupt>
       a:	00 00       	nop
       c:	8a c5       	rjmp	.+2836   	; 0xb22 <__vector_3>
       e:	00 00       	nop
      10:	02 c1       	rjmp	.+516    	; 0x216 <__bad_interrupt>
      12:	00 00       	nop
      14:	00 c1       	rjmp	.+512    	; 0x216 <__bad_interrupt>
      16:	00 00       	nop
      18:	fe c0       	rjmp	.+508    	; 0x216 <__bad_interrupt>
      1a:	00 00       	nop
      1c:	fc c0       	rjmp	.+504    	; 0x216 <__bad_interrupt>
      1e:	00 00       	nop
      20:	fa c0       	rjmp	.+500    	; 0x216 <__bad_interrupt>
      22:	00 00       	nop
      24:	f8 c0       	rjmp	.+496    	; 0x216 <__bad_interrupt>
      26:	00 00       	nop
      28:	0c 94 0e 0a 	jmp	0x141c	; 0x141c <__vector_10>
      2c:	0c 94 d7 0a 	jmp	0x15ae	; 0x15ae <__vector_11>
      30:	f2 c0       	rjmp	.+484    	; 0x216 <__bad_interrupt>
      32:	00 00       	nop
      34:	f0 c0       	rjmp	.+480    	; 0x216 <__bad_interrupt>
      36:	00 00       	nop
	HID_StateTable_t      StateTable[HID_STATETABLE_STACK_DEPTH];
	HID_StateTable_t*     CurrStateTable          = &StateTable[0];
	HID_CollectionPath_t* CurrCollectionPath      = NULL;
	HID_ReportSizeInfo_t* CurrReportIDInfo        = &ParserData->ReportIDSizes[0];
      38:	ee c0       	rjmp	.+476    	; 0x216 <__bad_interrupt>
      3a:	00 00       	nop
      3c:	ec c0       	rjmp	.+472    	; 0x216 <__bad_interrupt>
      3e:	00 00       	nop
      40:	ea c0       	rjmp	.+468    	; 0x216 <__bad_interrupt>
      42:	00 00       	nop
      44:	e8 c0       	rjmp	.+464    	; 0x216 <__bad_interrupt>
	uint16_t              UsageList[HID_USAGE_STACK_DEPTH];
	uint8_t               UsageListSize           = 0;
	HID_MinMax_t          UsageMinMax             = {0, 0};

	memset(ParserData,       0x00, sizeof(HID_ReportInfo_t));
      46:	00 00       	nop
      48:	e6 c0       	rjmp	.+460    	; 0x216 <__bad_interrupt>
      4a:	00 00       	nop
      4c:	e4 c0       	rjmp	.+456    	; 0x216 <__bad_interrupt>
      4e:	00 00       	nop
      50:	e2 c0       	rjmp	.+452    	; 0x216 <__bad_interrupt>
      52:	00 00       	nop
	memset(CurrStateTable,   0x00, sizeof(HID_StateTable_t));
      54:	e0 c0       	rjmp	.+448    	; 0x216 <__bad_interrupt>
      56:	00 00       	nop
      58:	de c0       	rjmp	.+444    	; 0x216 <__bad_interrupt>
      5a:	00 00       	nop
      5c:	dc c0       	rjmp	.+440    	; 0x216 <__bad_interrupt>
      5e:	00 00       	nop
      60:	da c0       	rjmp	.+436    	; 0x216 <__bad_interrupt>
	memset(CurrReportIDInfo, 0x00, sizeof(HID_ReportSizeInfo_t));
      62:	00 00       	nop
      64:	d8 c0       	rjmp	.+432    	; 0x216 <__bad_interrupt>
      66:	00 00       	nop
      68:	d6 c0       	rjmp	.+428    	; 0x216 <__bad_interrupt>
      6a:	00 00       	nop

	ParserData->TotalDeviceReports = 1;
      6c:	d4 c0       	rjmp	.+424    	; 0x216 <__bad_interrupt>
      6e:	00 00       	nop
      70:	d2 c0       	rjmp	.+420    	; 0x216 <__bad_interrupt>
      72:	00 00       	nop
      74:	d0 c0       	rjmp	.+416    	; 0x216 <__bad_interrupt>
      76:	00 00       	nop
      78:	ce c0       	rjmp	.+412    	; 0x216 <__bad_interrupt>
      7a:	00 00       	nop
      7c:	cc c0       	rjmp	.+408    	; 0x216 <__bad_interrupt>
      7e:	00 00       	nop
	HID_StateTable_t*     CurrStateTable          = &StateTable[0];
	HID_CollectionPath_t* CurrCollectionPath      = NULL;
	HID_ReportSizeInfo_t* CurrReportIDInfo        = &ParserData->ReportIDSizes[0];
	uint16_t              UsageList[HID_USAGE_STACK_DEPTH];
	uint8_t               UsageListSize           = 0;
	HID_MinMax_t          UsageMinMax             = {0, 0};
      80:	ca c0       	rjmp	.+404    	; 0x216 <__bad_interrupt>
      82:	00 00       	nop
      84:	c8 c0       	rjmp	.+400    	; 0x216 <__bad_interrupt>
      86:	00 00       	nop
      88:	c6 c0       	rjmp	.+396    	; 0x216 <__bad_interrupt>
      8a:	00 00       	nop
	HID_StateTable_t      StateTable[HID_STATETABLE_STACK_DEPTH];
	HID_StateTable_t*     CurrStateTable          = &StateTable[0];
	HID_CollectionPath_t* CurrCollectionPath      = NULL;
	HID_ReportSizeInfo_t* CurrReportIDInfo        = &ParserData->ReportIDSizes[0];
	uint16_t              UsageList[HID_USAGE_STACK_DEPTH];
	uint8_t               UsageListSize           = 0;
      8c:	c4 c0       	rjmp	.+392    	; 0x216 <__bad_interrupt>
      8e:	00 00       	nop
      90:	c2 c0       	rjmp	.+388    	; 0x216 <__bad_interrupt>
                             uint16_t ReportSize,
                             HID_ReportInfo_t* const ParserData)
{
	HID_StateTable_t      StateTable[HID_STATETABLE_STACK_DEPTH];
	HID_StateTable_t*     CurrStateTable          = &StateTable[0];
	HID_CollectionPath_t* CurrCollectionPath      = NULL;
      92:	00 00       	nop
      94:	c0 c0       	rjmp	.+384    	; 0x216 <__bad_interrupt>
      96:	00 00       	nop
      98:	be c0       	rjmp	.+380    	; 0x216 <__bad_interrupt>
uint8_t USB_ProcessHIDReport(const uint8_t* ReportData,
                             uint16_t ReportSize,
                             HID_ReportInfo_t* const ParserData)
{
	HID_StateTable_t      StateTable[HID_STATETABLE_STACK_DEPTH];
	HID_StateTable_t*     CurrStateTable          = &StateTable[0];
      9a:	00 00       	nop

					NewReportItem.BitOffset = CurrReportIDInfo->ReportSizeBits[NewReportItem.ItemType];

					CurrReportIDInfo->ReportSizeBits[NewReportItem.ItemType] += CurrStateTable->Attributes.BitSize;

					ParserData->LargestReportSizeBits = MAX(ParserData->LargestReportSizeBits, CurrReportIDInfo->ReportSizeBits[NewReportItem.ItemType]);
      9c:	bc c0       	rjmp	.+376    	; 0x216 <__bad_interrupt>
      9e:	00 00       	nop
      a0:	ba c0       	rjmp	.+372    	; 0x216 <__bad_interrupt>
      a2:	00 00       	nop
      a4:	b8 c0       	rjmp	.+368    	; 0x216 <__bad_interrupt>
      a6:	00 00       	nop
      a8:	b6 c0       	rjmp	.+364    	; 0x216 <__bad_interrupt>

					CurrCollectionPath = &ParserData->CollectionPaths[1];

					while (CurrCollectionPath->Parent != NULL)
					{
						if (CurrCollectionPath == &ParserData->CollectionPaths[HID_MAX_COLLECTIONS - 1])
      aa:	00 00       	nop
      ac:	11 04       	cpc	r1, r1
      ae:	15 04       	cpc	r1, r5
      b0:	23 04       	cpc	r2, r3
      b2:	27 04       	cpc	r2, r7
      b4:	37 04       	cpc	r3, r7
      b6:	3c 04       	cpc	r3, r12
      b8:	49 04       	cpc	r4, r9
      ba:	3a 0b       	sbc	r19, r26
				CurrStateTable->ReportCount                 = ReportItemData;
				break;
			case HID_RI_REPORT_ID(0):
				CurrStateTable->ReportID                    = ReportItemData;

				if (ParserData->UsingReportIDs)
      bc:	5c 0b       	sbc	r21, r28
      be:	42 0c       	add	r4, r2
      c0:	5c 0b       	sbc	r21, r28
      c2:	42 0c       	add	r4, r2
      c4:	9e 0b       	sbc	r25, r30
      c6:	c0 0b       	sbc	r28, r16
      c8:	42 0c       	add	r4, r2
				{
					CurrReportIDInfo = NULL;

					for (uint8_t i = 0; i < ParserData->TotalDeviceReports; i++)
      ca:	13 0c       	add	r1, r3
      cc:	25 0c       	add	r2, r5

000000ce <ProductString>:
      ce:	24 03 43 00 44 00 43 00 20 00 61 00 6e 00 64 00     $.C.D.C. .a.n.d.

	ParserData->TotalDeviceReports = 1;

	while (ReportSize)
	{
		uint8_t  HIDReportItem  = *ReportData;
      de:	20 00 44 00 69 00 67 00 69 00 74 00 69 00 7a 00      .D.i.g.i.t.i.z.
		uint32_t ReportItemData;

		ReportData++;
		ReportSize--;

		switch (HIDReportItem & HID_RI_DATA_SIZE_MASK)
      ee:	65 00 72 00 00 00                                   e.r...

000000f4 <ManufacturerString>:
      f4:	24 03 49 00 6e 00 74 00 65 00 6c 00 6c 00 69 00     $.I.n.t.e.l.l.i.
				ReportSize     -= 1;
				ReportData     += 1;
				break;

			default:
				ReportItemData  = 0;
     104:	67 00 65 00 6e 00 74 00 20 00 41 00 67 00 65 00     g.e.n.t. .A.g.e.
		ReportSize--;

		switch (HIDReportItem & HID_RI_DATA_SIZE_MASK)
		{
			case HID_RI_DATA_BITS_32:
				ReportItemData  = (((uint32_t)ReportData[3] << 24) | ((uint32_t)ReportData[2] << 16) |
     114:	6e 00 74 00 00 00                                   n.t...

0000011a <LanguageString>:
     11a:	04 03 09 04                                         ....

0000011e <ConfigurationDescriptor>:
     11e:	09 02 5f 00 03 01 00 c0 7d 08 0b 00 02 02 02 01     .._.....}.......
			                       ((uint16_t)ReportData[1] << 8)  | ReportData[0]);
     12e:	00 09 04 00 00 01 02 02 01 00 05 24 00 10 01 04     ...........$....
		ReportSize--;

		switch (HIDReportItem & HID_RI_DATA_SIZE_MASK)
		{
			case HID_RI_DATA_BITS_32:
				ReportItemData  = (((uint32_t)ReportData[3] << 24) | ((uint32_t)ReportData[2] << 16) |
     13e:	24 02 06 05 24 06 00 01 07 05 82 03 08 00 ff 09     $...$...........
			                       ((uint16_t)ReportData[1] << 8)  | ReportData[0]);
				ReportSize     -= 4;
				ReportData     += 4;
				break;
     14e:	04 01 00 02 0a 00 00 00 07 05 04 02 10 00 05 07     ................

			case HID_RI_DATA_BITS_16:
				ReportItemData  = (((uint16_t)ReportData[1] << 8) | (ReportData[0]));
     15e:	05 83 02 10 00 05 09 04 02 00 01 03 00 00 00 09     ................
				ReportSize     -= 2;
				ReportData     += 2;
				break;

			case HID_RI_DATA_BITS_8:
				ReportItemData  = ReportData[0];
     16e:	21 11 01 00 01 22 4e 00 07 05 81 03 08 00 05        !...."N........

0000017d <DeviceDescriptor>:
				ReportSize     -= 1;
     17d:	12 01 10 01 00 00 00 08 eb 03 18 21 01 00 01 02     ...........!....
			default:
				ReportItemData  = 0;
				break;
		}

		switch (HIDReportItem & (HID_RI_TYPE_MASK | HID_RI_TAG_MASK))
     18d:	dc 01                                               ..

0000018f <DigitizerReport>:
     18f:	05 0d 09 04 a1 01 09 22 a1 02 09 42 15 00 25 01     ......."...B..%.
     19f:	75 01 95 01 81 02 09 32 81 02 95 06 81 01 75 08     u......2......u.
				break;
			case HID_RI_USAGE_PAGE(0):
				if ((HIDReportItem & HID_RI_DATA_SIZE_MASK) == HID_RI_DATA_BITS_32)
				  CurrStateTable->Attributes.Usage.Page = (ReportItemData >> 16);

				CurrStateTable->Attributes.Usage.Page       = ReportItemData;
     1af:	95 01 09 30 81 02 09 51 81 02 09 55 81 02 05 01     ...0...Q...U....
			default:
				ReportItemData  = 0;
				break;
		}

		switch (HIDReportItem & (HID_RI_TYPE_MASK | HID_RI_TAG_MASK))
     1bf:	26 e0 01 75 10 55 0e 65 33 09 30 35 00 46 5b 04     &..u.U.e3.05.F[.
     1cf:	81 02 46 8a 03 26 20 03 09 31 81 02 c0 c0 00        ..F..& ..1.....

000001de <__ctors_end>:
     1de:	11 24       	eor	r1, r1
     1e0:	1f be       	out	0x3f, r1	; 63
     1e2:	cf ef       	ldi	r28, 0xFF	; 255
     1e4:	da e0       	ldi	r29, 0x0A	; 10
     1e6:	de bf       	out	0x3e, r29	; 62
				break;
			case HID_RI_PHYSICAL_MAXIMUM(0):
				CurrStateTable->Attributes.Physical.Maximum = ReportItemData;
				break;
			case HID_RI_UNIT_EXPONENT(0):
				CurrStateTable->Attributes.Unit.Exponent    = ReportItemData;
     1e8:	cd bf       	out	0x3d, r28	; 61

000001ea <__do_copy_data>:
     1ea:	11 e0       	ldi	r17, 0x01	; 1
				break;
     1ec:	a0 e0       	ldi	r26, 0x00	; 0
			default:
				ReportItemData  = 0;
				break;
		}

		switch (HIDReportItem & (HID_RI_TYPE_MASK | HID_RI_TAG_MASK))
     1ee:	b1 e0       	ldi	r27, 0x01	; 1
     1f0:	ea ee       	ldi	r30, 0xEA	; 234
     1f2:	f8 e2       	ldi	r31, 0x28	; 40
     1f4:	02 c0       	rjmp	.+4      	; 0x1fa <__do_copy_data+0x10>
     1f6:	05 90       	lpm	r0, Z+
     1f8:	0d 92       	st	X+, r0
     1fa:	a2 3c       	cpi	r26, 0xC2	; 194
     1fc:	b1 07       	cpc	r27, r17
     1fe:	d9 f7       	brne	.-10     	; 0x1f6 <__do_copy_data+0xc>

00000200 <__do_clear_bss>:
     200:	12 e0       	ldi	r17, 0x02	; 2
				break;
			case HID_RI_UNIT(0):
				CurrStateTable->Attributes.Unit.Type        = ReportItemData;
				break;
			case HID_RI_REPORT_SIZE(0):
				CurrStateTable->Attributes.BitSize          = ReportItemData;
     202:	a2 ec       	ldi	r26, 0xC2	; 194
     204:	b1 e0       	ldi	r27, 0x01	; 1
				break;
     206:	01 c0       	rjmp	.+2      	; 0x20a <.do_clear_bss_start>

00000208 <.do_clear_bss_loop>:
			default:
				ReportItemData  = 0;
				break;
		}

		switch (HIDReportItem & (HID_RI_TYPE_MASK | HID_RI_TAG_MASK))
     208:	1d 92       	st	X+, r1

0000020a <.do_clear_bss_start>:
     20a:	ae 3e       	cpi	r26, 0xEE	; 238
     20c:	b1 07       	cpc	r27, r17
     20e:	e1 f7       	brne	.-8      	; 0x208 <.do_clear_bss_loop>
     210:	5c d1       	rcall	.+696    	; 0x4ca <main>
     212:	0c 94 73 14 	jmp	0x28e6	; 0x28e6 <_exit>

00000216 <__bad_interrupt>:
     216:	f4 ce       	rjmp	.-536    	; 0x0 <__vectors>

00000218 <LEDs_Init>:
     218:	27 9a       	sbi	0x04, 7	; 4
     21a:	2f 98       	cbi	0x05, 7	; 5
     21c:	08 95       	ret

0000021e <LEDs_SetAllLEDs>:
     21e:	95 b1       	in	r25, 0x05	; 5
     220:	9f 77       	andi	r25, 0x7F	; 127
     222:	98 2b       	or	r25, r24
     224:	95 b9       	out	0x05, r25	; 5
     226:	08 95       	ret

00000228 <putchar_printf>:
     228:	cf 93       	push	r28
     22a:	c8 2f       	mov	r28, r24
     22c:	8a 30       	cpi	r24, 0x0A	; 10
     22e:	29 f4       	brne	.+10     	; 0x23a <putchar_printf+0x12>
     230:	6d e0       	ldi	r22, 0x0D	; 13
     232:	8e e1       	ldi	r24, 0x1E	; 30
					  return HID_PARSE_InsufficientReportItems;

					memcpy(&ParserData->ReportItems[ParserData->TotalReportItems],
					       &NewReportItem, sizeof(HID_ReportItem_t));

					if (!(ReportItemData & HID_IOF_CONSTANT) && CALLBACK_HIDParser_FilterHIDReportItem(&NewReportItem))
     234:	91 e0       	ldi	r25, 0x01	; 1
     236:	0e 94 9c 0c 	call	0x1938	; 0x1938 <CDC_Device_SendByte>
     23a:	6c 2f       	mov	r22, r28
     23c:	8e e1       	ldi	r24, 0x1E	; 30
     23e:	91 e0       	ldi	r25, 0x01	; 1
     240:	0e 94 9c 0c 	call	0x1938	; 0x1938 <CDC_Device_SendByte>
     244:	80 e0       	ldi	r24, 0x00	; 0
     246:	90 e0       	ldi	r25, 0x00	; 0
     248:	cf 91       	pop	r28
     24a:	08 95       	ret

0000024c <SetupHardware>:
     24c:	cf 93       	push	r28
     24e:	84 b7       	in	r24, 0x34	; 52
     250:	87 7f       	andi	r24, 0xF7	; 247
		}

		switch (HIDReportItem & (HID_RI_TYPE_MASK | HID_RI_TAG_MASK))
		{
			case HID_RI_PUSH(0):
				if (CurrStateTable == &StateTable[HID_STATETABLE_STACK_DEPTH - 1])
     252:	84 bf       	out	0x34, r24	; 52
     254:	88 e1       	ldi	r24, 0x18	; 24
     256:	0f b6       	in	r0, 0x3f	; 63
     258:	f8 94       	cli
     25a:	80 93 60 00 	sts	0x0060, r24
				  return HID_PARSE_HIDStackOverflow;

				memcpy((CurrStateTable + 1),
     25e:	10 92 60 00 	sts	0x0060, r1
     262:	0f be       	out	0x3f, r0	; 63
     264:	90 e0       	ldi	r25, 0x00	; 0
     266:	80 e8       	ldi	r24, 0x80	; 128
     268:	0f b6       	in	r0, 0x3f	; 63
     26a:	f8 94       	cli
     26c:	80 93 61 00 	sts	0x0061, r24
				       CurrStateTable,
				       sizeof(HID_ReportItem_t));

				CurrStateTable++;
     270:	90 93 61 00 	sts	0x0061, r25
				break;
			case HID_RI_POP(0):
				if (CurrStateTable == &StateTable[0])
     274:	0f be       	out	0x3f, r0	; 63
     276:	80 e0       	ldi	r24, 0x00	; 0
     278:	74 d2       	rcall	.+1256   	; 0x762 <BL_on>
     27a:	8f e7       	ldi	r24, 0x7F	; 127
     27c:	9e e3       	ldi	r25, 0x3E	; 62
     27e:	01 97       	sbiw	r24, 0x01	; 1
				  return HID_PARSE_HIDStackUnderflow;

				CurrStateTable--;
     280:	f1 f7       	brne	.-4      	; 0x27e <SetupHardware+0x32>
     282:	00 c0       	rjmp	.+0      	; 0x284 <SetupHardware+0x38>
				break;
     284:	00 00       	nop
				  CurrStateTable->Attributes.Usage.Page = (ReportItemData >> 16);

				CurrStateTable->Attributes.Usage.Page       = ReportItemData;
				break;
			case HID_RI_LOGICAL_MINIMUM(0):
				CurrStateTable->Attributes.Logical.Minimum  = ReportItemData;
     286:	0e 94 f1 09 	call	0x13e2	; 0x13e2 <USB_Init>
     28a:	11 d2       	rcall	.+1058   	; 0x6ae <LCD_Init>
     28c:	c5 df       	rcall	.-118    	; 0x218 <LEDs_Init>
     28e:	3c d5       	rcall	.+2680   	; 0xd08 <digitizer_init>
				break;
     290:	89 2b       	or	r24, r25
			case HID_RI_LOGICAL_MAXIMUM(0):
				CurrStateTable->Attributes.Logical.Maximum  = ReportItemData;
     292:	f9 f0       	breq	.+62     	; 0x2d2 <SetupHardware+0x86>
     294:	2f 9a       	sbi	0x05, 7	; 5
     296:	9f ef       	ldi	r25, 0xFF	; 255
     298:	21 ee       	ldi	r18, 0xE1	; 225
     29a:	84 e0       	ldi	r24, 0x04	; 4
     29c:	91 50       	subi	r25, 0x01	; 1
     29e:	20 40       	sbci	r18, 0x00	; 0
				break;
     2a0:	80 40       	sbci	r24, 0x00	; 0
			case HID_RI_PHYSICAL_MINIMUM(0):
				CurrStateTable->Attributes.Physical.Minimum = ReportItemData;
     2a2:	e1 f7       	brne	.-8      	; 0x29c <SetupHardware+0x50>
     2a4:	00 c0       	rjmp	.+0      	; 0x2a6 <SetupHardware+0x5a>
     2a6:	00 00       	nop
     2a8:	2f 98       	cbi	0x05, 7	; 5
     2aa:	9f ef       	ldi	r25, 0xFF	; 255
				break;
     2ac:	21 ee       	ldi	r18, 0xE1	; 225
			case HID_RI_PHYSICAL_MAXIMUM(0):
				CurrStateTable->Attributes.Physical.Maximum = ReportItemData;
     2ae:	84 e0       	ldi	r24, 0x04	; 4
     2b0:	91 50       	subi	r25, 0x01	; 1
     2b2:	20 40       	sbci	r18, 0x00	; 0
     2b4:	80 40       	sbci	r24, 0x00	; 0
     2b6:	e1 f7       	brne	.-8      	; 0x2b0 <SetupHardware+0x64>
     2b8:	00 c0       	rjmp	.+0      	; 0x2ba <SetupHardware+0x6e>
     2ba:	00 00       	nop
				break;
     2bc:	2f 9a       	sbi	0x05, 7	; 5
			case HID_RI_UNIT_EXPONENT(0):
				CurrStateTable->Attributes.Unit.Exponent    = ReportItemData;
				break;
			case HID_RI_UNIT(0):
				CurrStateTable->Attributes.Unit.Type        = ReportItemData;
     2be:	9f ef       	ldi	r25, 0xFF	; 255
     2c0:	21 ee       	ldi	r18, 0xE1	; 225
     2c2:	84 e0       	ldi	r24, 0x04	; 4
     2c4:	91 50       	subi	r25, 0x01	; 1
     2c6:	20 40       	sbci	r18, 0x00	; 0
     2c8:	80 40       	sbci	r24, 0x00	; 0
     2ca:	e1 f7       	brne	.-8      	; 0x2c4 <SetupHardware+0x78>
				break;
     2cc:	00 c0       	rjmp	.+0      	; 0x2ce <SetupHardware+0x82>
			case HID_RI_REPORT_SIZE(0):
				CurrStateTable->Attributes.BitSize          = ReportItemData;
				break;
			case HID_RI_REPORT_COUNT(0):
				CurrStateTable->ReportCount                 = ReportItemData;
     2ce:	00 00       	nop
     2d0:	2f 98       	cbi	0x05, 7	; 5
     2d2:	3f 9a       	sbi	0x07, 7	; 7
				break;
     2d4:	47 9a       	sbi	0x08, 7	; 8
			case HID_RI_REPORT_ID(0):
				CurrStateTable->ReportID                    = ReportItemData;
     2d6:	25 9a       	sbi	0x04, 5	; 4
     2d8:	2d 9a       	sbi	0x05, 5	; 5
     2da:	8a b1       	in	r24, 0x0a	; 10

				if (ParserData->UsingReportIDs)
     2dc:	8c 7f       	andi	r24, 0xFC	; 252
     2de:	8a b9       	out	0x0a, r24	; 10
     2e0:	8a b1       	in	r24, 0x0a	; 10
     2e2:	8a 7f       	andi	r24, 0xFA	; 250
     2e4:	8a b9       	out	0x0a, r24	; 10
     2e6:	c0 e0       	ldi	r28, 0x00	; 0
     2e8:	8c 2f       	mov	r24, r28
     2ea:	3b d2       	rcall	.+1142   	; 0x762 <BL_on>
				{
					CurrReportIDInfo = NULL;

					for (uint8_t i = 0; i < ParserData->TotalDeviceReports; i++)
     2ec:	8f e9       	ldi	r24, 0x9F	; 159
     2ee:	9f e0       	ldi	r25, 0x0F	; 15
     2f0:	01 97       	sbiw	r24, 0x01	; 1
     2f2:	f1 f7       	brne	.-4      	; 0x2f0 <SetupHardware+0xa4>
     2f4:	00 c0       	rjmp	.+0      	; 0x2f6 <SetupHardware+0xaa>
     2f6:	00 00       	nop
     2f8:	cf 5f       	subi	r28, 0xFF	; 255
     2fa:	c6 39       	cpi	r28, 0x96	; 150
     2fc:	a9 f7       	brne	.-22     	; 0x2e8 <SetupHardware+0x9c>
     2fe:	cf 91       	pop	r28
     300:	8b cf       	rjmp	.-234    	; 0x218 <LEDs_Init>

00000302 <execute_command>:
     302:	66 e4       	ldi	r22, 0x46	; 70
					{
						if (ParserData->ReportIDSizes[i].ReportID == CurrStateTable->ReportID)
     304:	71 e0       	ldi	r23, 0x01	; 1
     306:	8d e5       	ldi	r24, 0x5D	; 93
     308:	92 e0       	ldi	r25, 0x02	; 2
     30a:	0e 94 7d 11 	call	0x22fa	; 0x22fa <strcmp>
     30e:	89 2b       	or	r24, r25
     310:	11 f4       	brne	.+4      	; 0x316 <execute_command+0x14>
     312:	cd d1       	rcall	.+922    	; 0x6ae <LCD_Init>
     314:	44 c0       	rjmp	.+136    	; 0x39e <execute_command+0x9c>
     316:	65 e5       	ldi	r22, 0x55	; 85
						{
							CurrReportIDInfo = &ParserData->ReportIDSizes[i];
     318:	71 e0       	ldi	r23, 0x01	; 1
     31a:	8d e5       	ldi	r24, 0x5D	; 93
     31c:	92 e0       	ldi	r25, 0x02	; 2
     31e:	0e 94 7d 11 	call	0x22fa	; 0x22fa <strcmp>
     322:	89 2b       	or	r24, r25
     324:	11 f4       	brne	.+4      	; 0x32a <execute_command+0x28>
     326:	0c d2       	rcall	.+1048   	; 0x740 <LCD_UnInit>
     328:	3a c0       	rjmp	.+116    	; 0x39e <execute_command+0x9c>
     32a:	4e e0       	ldi	r20, 0x0E	; 14
     32c:	50 e0       	ldi	r21, 0x00	; 0
     32e:	65 e6       	ldi	r22, 0x65	; 101
     330:	71 e0       	ldi	r23, 0x01	; 1
     332:	8d e5       	ldi	r24, 0x5D	; 93
     334:	92 e0       	ldi	r25, 0x02	; 2
     336:	0e 94 8d 11 	call	0x231a	; 0x231a <strncmp>
						}
					}

					if (CurrReportIDInfo == NULL)
					{
						if (ParserData->TotalDeviceReports == HID_MAX_REPORT_IDS)
     33a:	89 2b       	or	r24, r25
     33c:	b9 f4       	brne	.+46     	; 0x36c <execute_command+0x6a>
						  return HID_PARSE_InsufficientReportIDItems;

						CurrReportIDInfo = &ParserData->ReportIDSizes[ParserData->TotalDeviceReports++];
     33e:	8b e6       	ldi	r24, 0x6B	; 107
     340:	92 e0       	ldi	r25, 0x02	; 2
     342:	0e 94 43 11 	call	0x2286	; 0x2286 <atoi>
     346:	8f 3f       	cpi	r24, 0xFF	; 255
     348:	91 05       	cpc	r25, r1
     34a:	09 f0       	breq	.+2      	; 0x34e <execute_command+0x4c>
     34c:	10 f4       	brcc	.+4      	; 0x352 <execute_command+0x50>
     34e:	09 d2       	rcall	.+1042   	; 0x762 <BL_on>
     350:	26 c0       	rjmp	.+76     	; 0x39e <execute_command+0x9c>
     352:	9f 93       	push	r25
     354:	8f 93       	push	r24
     356:	84 e7       	ldi	r24, 0x74	; 116
     358:	91 e0       	ldi	r25, 0x01	; 1
     35a:	9f 93       	push	r25
     35c:	8f 93       	push	r24
     35e:	0e 94 a3 11 	call	0x2346	; 0x2346 <printf>
     362:	0f 90       	pop	r0
						memset(CurrReportIDInfo, 0x00, sizeof(HID_ReportSizeInfo_t));
     364:	0f 90       	pop	r0
     366:	0f 90       	pop	r0
     368:	0f 90       	pop	r0
     36a:	19 c0       	rjmp	.+50     	; 0x39e <execute_command+0x9c>
					}
				}

				ParserData->UsingReportIDs = true;
     36c:	65 ea       	ldi	r22, 0xA5	; 165
     36e:	71 e0       	ldi	r23, 0x01	; 1
     370:	8d e5       	ldi	r24, 0x5D	; 93
     372:	92 e0       	ldi	r25, 0x02	; 2
     374:	0e 94 7d 11 	call	0x22fa	; 0x22fa <strcmp>

				CurrReportIDInfo->ReportID = CurrStateTable->ReportID;
     378:	89 2b       	or	r24, r25
     37a:	11 f4       	brne	.+4      	; 0x380 <execute_command+0x7e>
     37c:	c5 d4       	rcall	.+2442   	; 0xd08 <digitizer_init>
     37e:	0f c0       	rjmp	.+30     	; 0x39e <execute_command+0x9c>
     380:	4a e0       	ldi	r20, 0x0A	; 10
     382:	50 e0       	ldi	r21, 0x00	; 0
     384:	6a ea       	ldi	r22, 0xAA	; 170
     386:	71 e0       	ldi	r23, 0x01	; 1
				break;
     388:	8d e5       	ldi	r24, 0x5D	; 93
			case HID_RI_USAGE(0):
				if (UsageListSize == HID_USAGE_STACK_DEPTH)
     38a:	92 e0       	ldi	r25, 0x02	; 2
     38c:	0e 94 8d 11 	call	0x231a	; 0x231a <strncmp>
     390:	89 2b       	or	r24, r25
     392:	29 f4       	brne	.+10     	; 0x39e <execute_command+0x9c>
     394:	87 e6       	ldi	r24, 0x67	; 103
				  return HID_PARSE_UsageListOverflow;

				UsageList[UsageListSize++] = ReportItemData;
     396:	92 e0       	ldi	r25, 0x02	; 2
     398:	0e 94 43 11 	call	0x2286	; 0x2286 <atoi>
     39c:	fc d1       	rcall	.+1016   	; 0x796 <digitizer_set_config>
     39e:	80 e0       	ldi	r24, 0x00	; 0
     3a0:	90 e0       	ldi	r25, 0x00	; 0
     3a2:	08 95       	ret

000003a4 <HandleSerial>:
     3a4:	cf 93       	push	r28
     3a6:	df 93       	push	r29
     3a8:	8f b7       	in	r24, 0x3f	; 63
     3aa:	f8 94       	cli
     3ac:	20 91 4d 02 	lds	r18, 0x024D
				break;
     3b0:	30 91 4e 02 	lds	r19, 0x024E
				break;
			case HID_RI_USAGE_MAXIMUM(0):
				UsageMinMax.Maximum = ReportItemData;
				break;
			case HID_RI_COLLECTION(0):
				if (CurrCollectionPath == NULL)
     3b4:	8f bf       	out	0x3f, r24	; 63
     3b6:	80 91 4b 02 	lds	r24, 0x024B
     3ba:	90 91 4c 02 	lds	r25, 0x024C
				{
					CurrCollectionPath = &ParserData->CollectionPaths[0];
     3be:	28 17       	cp	r18, r24
     3c0:	39 07       	cpc	r19, r25
     3c2:	41 f1       	breq	.+80     	; 0x414 <HandleSerial+0x70>
     3c4:	8e e1       	ldi	r24, 0x1E	; 30
     3c6:	91 e0       	ldi	r25, 0x01	; 1
     3c8:	0e 94 07 0d 	call	0x1a0e	; 0x1a0e <CDC_Device_ReceiveByte>
     3cc:	97 fd       	sbrc	r25, 7
				}
				else
				{
					HID_CollectionPath_t* ParentCollectionPath = CurrCollectionPath;

					CurrCollectionPath = &ParserData->CollectionPaths[1];
     3ce:	22 c0       	rjmp	.+68     	; 0x414 <HandleSerial+0x70>
     3d0:	e3 e4       	ldi	r30, 0x43	; 67
     3d2:	f2 e0       	ldi	r31, 0x02	; 2

					while (CurrCollectionPath->Parent != NULL)
     3d4:	a0 81       	ld	r26, Z
     3d6:	b1 81       	ldd	r27, Z+1	; 0x01
     3d8:	8c 93       	st	X, r24
     3da:	20 81       	ld	r18, Z
					{
						if (CurrCollectionPath == &ParserData->CollectionPaths[HID_MAX_COLLECTIONS - 1])
     3dc:	31 81       	ldd	r19, Z+1	; 0x01
     3de:	2f 5f       	subi	r18, 0xFF	; 255
     3e0:	3f 4f       	sbci	r19, 0xFF	; 255
     3e2:	31 83       	std	Z+1, r19	; 0x01
     3e4:	20 83       	st	Z, r18
     3e6:	46 81       	ldd	r20, Z+6	; 0x06
     3e8:	57 81       	ldd	r21, Z+7	; 0x07
     3ea:	24 17       	cp	r18, r20
     3ec:	35 07       	cpc	r19, r21
     3ee:	21 f4       	brne	.+8      	; 0x3f8 <HandleSerial+0x54>
						  return HID_PARSE_InsufficientCollectionPaths;

						CurrCollectionPath++;
     3f0:	24 81       	ldd	r18, Z+4	; 0x04
     3f2:	35 81       	ldd	r19, Z+5	; 0x05
					}

					CurrCollectionPath->Parent = ParentCollectionPath;
     3f4:	31 83       	std	Z+1, r19	; 0x01
     3f6:	20 83       	st	Z, r18
     3f8:	9f b7       	in	r25, 0x3f	; 63
     3fa:	f8 94       	cli
     3fc:	22 85       	ldd	r18, Z+10	; 0x0a
     3fe:	33 85       	ldd	r19, Z+11	; 0x0b
     400:	2f 5f       	subi	r18, 0xFF	; 255
     402:	3f 4f       	sbci	r19, 0xFF	; 255
     404:	33 87       	std	Z+11, r19	; 0x0b
     406:	22 87       	std	Z+10, r18	; 0x0a
				}

				CurrCollectionPath->Type       = ReportItemData;
     408:	9f bf       	out	0x3f, r25	; 63
     40a:	68 2f       	mov	r22, r24
     40c:	8e e1       	ldi	r24, 0x1E	; 30
     40e:	91 e0       	ldi	r25, 0x01	; 1
     410:	0e 94 9c 0c 	call	0x1938	; 0x1938 <CDC_Device_SendByte>
				CurrCollectionPath->Usage.Page = CurrStateTable->Attributes.Usage.Page;
     414:	c3 e4       	ldi	r28, 0x43	; 67
     416:	d2 e0       	ldi	r29, 0x02	; 2
     418:	2f b7       	in	r18, 0x3f	; 63
     41a:	f8 94       	cli
     41c:	80 91 4d 02 	lds	r24, 0x024D

				if (UsageListSize)
     420:	90 91 4e 02 	lds	r25, 0x024E
     424:	2f bf       	out	0x3f, r18	; 63
     426:	89 2b       	or	r24, r25
     428:	09 f4       	brne	.+2      	; 0x42c <HandleSerial+0x88>
				{
					CurrCollectionPath->Usage.Usage = UsageList[0];
     42a:	4c c0       	rjmp	.+152    	; 0x4c4 <HandleSerial+0x120>
     42c:	fe 01       	movw	r30, r28
     42e:	a2 81       	ldd	r26, Z+2	; 0x02
     430:	b3 81       	ldd	r27, Z+3	; 0x03
     432:	4d 91       	ld	r20, X+
     434:	b3 83       	std	Z+3, r27	; 0x03
     436:	a2 83       	std	Z+2, r26	; 0x02
     438:	86 81       	ldd	r24, Z+6	; 0x06
     43a:	97 81       	ldd	r25, Z+7	; 0x07
     43c:	a8 17       	cp	r26, r24
     43e:	b9 07       	cpc	r27, r25

					for (uint8_t i = 0; i < UsageListSize; i++)
     440:	21 f4       	brne	.+8      	; 0x44a <HandleSerial+0xa6>
					  UsageList[i] = UsageList[i + 1];
     442:	84 81       	ldd	r24, Z+4	; 0x04
     444:	95 81       	ldd	r25, Z+5	; 0x05
     446:	93 83       	std	Z+3, r25	; 0x03
     448:	82 83       	std	Z+2, r24	; 0x02

				if (UsageListSize)
				{
					CurrCollectionPath->Usage.Usage = UsageList[0];

					for (uint8_t i = 0; i < UsageListSize; i++)
     44a:	2f b7       	in	r18, 0x3f	; 63
     44c:	f8 94       	cli
     44e:	82 85       	ldd	r24, Z+10	; 0x0a
     450:	93 85       	ldd	r25, Z+11	; 0x0b
     452:	01 97       	sbiw	r24, 0x01	; 1
     454:	93 87       	std	Z+11, r25	; 0x0b
					  UsageList[i] = UsageList[i + 1];

					UsageListSize--;
     456:	82 87       	std	Z+10, r24	; 0x0a
     458:	2f bf       	out	0x3f, r18	; 63
     45a:	24 2f       	mov	r18, r20
     45c:	30 e0       	ldi	r19, 0x00	; 0
     45e:	80 91 5b 02 	lds	r24, 0x025B
				}
				else if (UsageMinMax.Minimum <= UsageMinMax.Maximum)
     462:	90 91 5c 02 	lds	r25, 0x025C
     466:	2a 30       	cpi	r18, 0x0A	; 10
     468:	31 05       	cpc	r19, r1
     46a:	19 f0       	breq	.+6      	; 0x472 <HandleSerial+0xce>
				{
					CurrCollectionPath->Usage.Usage = UsageMinMax.Minimum++;
     46c:	2d 30       	cpi	r18, 0x0D	; 13
     46e:	31 05       	cpc	r19, r1
     470:	e9 f4       	brne	.+58     	; 0x4ac <HandleSerial+0x108>
     472:	18 16       	cp	r1, r24
     474:	19 06       	cpc	r1, r25
     476:	6c f4       	brge	.+26     	; 0x492 <HandleSerial+0xee>
     478:	01 97       	sbiw	r24, 0x01	; 1
     47a:	fc 01       	movw	r30, r24
     47c:	e3 5a       	subi	r30, 0xA3	; 163
     47e:	fd 4f       	sbci	r31, 0xFD	; 253
     480:	20 81       	ld	r18, Z
     482:	2a 30       	cpi	r18, 0x0A	; 10
     484:	11 f0       	breq	.+4      	; 0x48a <HandleSerial+0xe6>
     486:	2d 30       	cpi	r18, 0x0D	; 13
				}

				break;
			case HID_RI_END_COLLECTION(0):
				if (CurrCollectionPath == NULL)
     488:	21 f4       	brne	.+8      	; 0x492 <HandleSerial+0xee>
     48a:	90 93 5c 02 	sts	0x025C, r25
     48e:	80 93 5b 02 	sts	0x025B, r24
     492:	e0 91 5b 02 	lds	r30, 0x025B
     496:	f0 91 5c 02 	lds	r31, 0x025C
				  return HID_PARSE_UnexpectedEndCollection;

				CurrCollectionPath = CurrCollectionPath->Parent;
     49a:	e3 5a       	subi	r30, 0xA3	; 163
     49c:	fd 4f       	sbci	r31, 0xFD	; 253
     49e:	10 82       	st	Z, r1
     4a0:	30 df       	rcall	.-416    	; 0x302 <execute_command>
     4a2:	10 92 5c 02 	sts	0x025C, r1
     4a6:	10 92 5b 02 	sts	0x025B, r1
				break;
     4aa:	b6 cf       	rjmp	.-148    	; 0x418 <HandleSerial+0x74>
					ParserData->LargestReportSizeBits = MAX(ParserData->LargestReportSizeBits, CurrReportIDInfo->ReportSizeBits[NewReportItem.ItemType]);

					if (ParserData->TotalReportItems == HID_MAX_REPORTITEMS)
					  return HID_PARSE_InsufficientReportItems;

					memcpy(&ParserData->ReportItems[ParserData->TotalReportItems],
     4ac:	9c 01       	movw	r18, r24
     4ae:	2f 5f       	subi	r18, 0xFF	; 255
     4b0:	3f 4f       	sbci	r19, 0xFF	; 255
     4b2:	30 93 5c 02 	sts	0x025C, r19
     4b6:	20 93 5b 02 	sts	0x025B, r18
     4ba:	fc 01       	movw	r30, r24
     4bc:	e3 5a       	subi	r30, 0xA3	; 163
     4be:	fd 4f       	sbci	r31, 0xFD	; 253
     4c0:	40 83       	st	Z, r20
     4c2:	aa cf       	rjmp	.-172    	; 0x418 <HandleSerial+0x74>
     4c4:	df 91       	pop	r29
     4c6:	cf 91       	pop	r28
					       &NewReportItem, sizeof(HID_ReportItem_t));

					if (!(ReportItemData & HID_IOF_CONSTANT) && CALLBACK_HIDParser_FilterHIDReportItem(&NewReportItem))
     4c8:	08 95       	ret

000004ca <main>:
     4ca:	80 e0       	ldi	r24, 0x00	; 0
     4cc:	91 e0       	ldi	r25, 0x01	; 1
     4ce:	90 93 eb 02 	sts	0x02EB, r25
     4d2:	80 93 ea 02 	sts	0x02EA, r24
     4d6:	ba de       	rcall	.-652    	; 0x24c <SetupHardware>
     4d8:	e3 e4       	ldi	r30, 0x43	; 67
     4da:	f2 e0       	ldi	r31, 0x02	; 2
     4dc:	2f b7       	in	r18, 0x3f	; 63
     4de:	f8 94       	cli
     4e0:	83 ec       	ldi	r24, 0xC3	; 195
				CurrCollectionPath = CurrCollectionPath->Parent;
				break;
			case HID_RI_INPUT(0):
			case HID_RI_OUTPUT(0):
			case HID_RI_FEATURE(0):
				for (uint8_t ReportItemNum = 0; ReportItemNum < CurrStateTable->ReportCount; ReportItemNum++)
     4e2:	91 e0       	ldi	r25, 0x01	; 1
     4e4:	91 83       	std	Z+1, r25	; 0x01
     4e6:	80 83       	st	Z, r24
     4e8:	93 83       	std	Z+3, r25	; 0x03
     4ea:	82 83       	std	Z+2, r24	; 0x02
     4ec:	95 83       	std	Z+5, r25	; 0x05
				{
					HID_ReportItem_t NewReportItem;

					memcpy(&NewReportItem.Attributes,
     4ee:	84 83       	std	Z+4, r24	; 0x04
     4f0:	83 e4       	ldi	r24, 0x43	; 67
     4f2:	92 e0       	ldi	r25, 0x02	; 2
     4f4:	97 83       	std	Z+7, r25	; 0x07
     4f6:	86 83       	std	Z+6, r24	; 0x06
     4f8:	80 e8       	ldi	r24, 0x80	; 128
     4fa:	90 e0       	ldi	r25, 0x00	; 0
     4fc:	91 87       	std	Z+9, r25	; 0x09
     4fe:	80 87       	std	Z+8, r24	; 0x08
					       &CurrStateTable->Attributes,
					       sizeof(HID_ReportItem_Attributes_t));

					NewReportItem.ItemFlags      = ReportItemData;
     500:	13 86       	std	Z+11, r1	; 0x0b
     502:	12 86       	std	Z+10, r1	; 0x0a
					NewReportItem.CollectionPath = CurrCollectionPath;
     504:	2f bf       	out	0x3f, r18	; 63
     506:	80 e0       	ldi	r24, 0x00	; 0
     508:	8a de       	rcall	.-748    	; 0x21e <LEDs_SetAllLEDs>
     50a:	78 94       	sei
     50c:	4b df       	rcall	.-362    	; 0x3a4 <HandleSerial>
     50e:	8e e1       	ldi	r24, 0x1E	; 30
     510:	91 e0       	ldi	r25, 0x01	; 1
     512:	0e 94 f1 0c 	call	0x19e2	; 0x19e2 <CDC_Device_USBTask>
					NewReportItem.ReportID       = CurrStateTable->ReportID;
     516:	8e e0       	ldi	r24, 0x0E	; 14
     518:	91 e0       	ldi	r25, 0x01	; 1
     51a:	0e 94 30 0f 	call	0x1e60	; 0x1e60 <HID_Device_USBTask>

					if (UsageListSize)
     51e:	0e 94 5b 0c 	call	0x18b6	; 0x18b6 <USB_USBTask>
     522:	f4 cf       	rjmp	.-24     	; 0x50c <main+0x42>

00000524 <EVENT_USB_Device_Connect>:
     524:	80 e8       	ldi	r24, 0x80	; 128
					{
						NewReportItem.Attributes.Usage.Usage = UsageList[0];
     526:	7b ce       	rjmp	.-778    	; 0x21e <LEDs_SetAllLEDs>

00000528 <EVENT_USB_Device_Disconnect>:
     528:	80 e0       	ldi	r24, 0x00	; 0
     52a:	79 ce       	rjmp	.-782    	; 0x21e <LEDs_SetAllLEDs>

0000052c <EVENT_USB_Device_ConfigurationChanged>:
     52c:	cf 93       	push	r28
     52e:	8e e0       	ldi	r24, 0x0E	; 14
     530:	91 e0       	ldi	r25, 0x01	; 1
     532:	0e 94 1d 0f 	call	0x1e3a	; 0x1e3a <HID_Device_ConfigureEndpoints>
     536:	c8 2f       	mov	r28, r24
     538:	8e e1       	ldi	r24, 0x1E	; 30
     53a:	91 e0       	ldi	r25, 0x01	; 1

						for (uint8_t i = 0; i < UsageListSize; i++)
     53c:	0e 94 77 0c 	call	0x18ee	; 0x18ee <CDC_Device_ConfigureEndpoints>
						  UsageList[i] = UsageList[i + 1];
     540:	90 91 e2 00 	lds	r25, 0x00E2
     544:	94 60       	ori	r25, 0x04	; 4

					if (UsageListSize)
					{
						NewReportItem.Attributes.Usage.Usage = UsageList[0];

						for (uint8_t i = 0; i < UsageListSize; i++)
     546:	90 93 e2 00 	sts	0x00E2, r25
     54a:	88 23       	and	r24, r24
     54c:	21 f0       	breq	.+8      	; 0x556 <EVENT_USB_Device_ConfigurationChanged+0x2a>
     54e:	cc 23       	and	r28, r28
     550:	11 f0       	breq	.+4      	; 0x556 <EVENT_USB_Device_ConfigurationChanged+0x2a>
						  UsageList[i] = UsageList[i + 1];

						UsageListSize--;
     552:	80 e8       	ldi	r24, 0x80	; 128
     554:	01 c0       	rjmp	.+2      	; 0x558 <EVENT_USB_Device_ConfigurationChanged+0x2c>
     556:	80 e0       	ldi	r24, 0x00	; 0
     558:	cf 91       	pop	r28
     55a:	61 ce       	rjmp	.-830    	; 0x21e <LEDs_SetAllLEDs>

0000055c <EVENT_USB_Device_ControlRequest>:
					}
					else if (UsageMinMax.Minimum <= UsageMinMax.Maximum)
     55c:	8e e1       	ldi	r24, 0x1E	; 30
     55e:	91 e0       	ldi	r25, 0x01	; 1
     560:	0e 94 3d 0d 	call	0x1a7a	; 0x1a7a <CDC_Device_ProcessControlRequest>
     564:	8e e0       	ldi	r24, 0x0E	; 14
					{
						NewReportItem.Attributes.Usage.Usage = UsageMinMax.Minimum++;
     566:	91 e0       	ldi	r25, 0x01	; 1
     568:	0c 94 ed 0d 	jmp	0x1bda	; 0x1bda <HID_Device_ProcessControlRequest>

0000056c <EVENT_USB_Device_StartOfFrame>:
     56c:	80 91 1c 01 	lds	r24, 0x011C
     570:	90 91 1d 01 	lds	r25, 0x011D
     574:	00 97       	sbiw	r24, 0x00	; 0
     576:	29 f0       	breq	.+10     	; 0x582 <EVENT_USB_Device_StartOfFrame+0x16>
					}

					uint8_t ItemTypeTag = (HIDReportItem & (HID_RI_TYPE_MASK | HID_RI_TAG_MASK));

					if (ItemTypeTag == HID_RI_INPUT(0))
     578:	01 97       	sbiw	r24, 0x01	; 1
     57a:	90 93 1d 01 	sts	0x011D, r25
					  NewReportItem.ItemType = HID_REPORT_ITEM_In;
     57e:	80 93 1c 01 	sts	0x011C, r24
					else if (ItemTypeTag == HID_RI_OUTPUT(0))
     582:	08 95       	ret

00000584 <CALLBACK_HID_Device_CreateHIDReport>:
					  NewReportItem.ItemType = HID_REPORT_ITEM_Out;
     584:	0f 93       	push	r16
     586:	1f 93       	push	r17
     588:	cf 93       	push	r28
					else
					  NewReportItem.ItemType = HID_REPORT_ITEM_Feature;
     58a:	df 93       	push	r29
     58c:	c9 01       	movw	r24, r18

					NewReportItem.BitOffset = CurrReportIDInfo->ReportSizeBits[NewReportItem.ItemType];
     58e:	e8 01       	movw	r28, r16
     590:	12 d1       	rcall	.+548    	; 0x7b6 <digitizer_get_report>
     592:	89 2b       	or	r24, r25
     594:	29 f4       	brne	.+10     	; 0x5a0 <CALLBACK_HID_Device_CreateHIDReport+0x1c>
     596:	88 e0       	ldi	r24, 0x08	; 8
     598:	90 e0       	ldi	r25, 0x00	; 0
     59a:	99 83       	std	Y+1, r25	; 0x01
     59c:	88 83       	st	Y, r24
     59e:	02 c0       	rjmp	.+4      	; 0x5a4 <CALLBACK_HID_Device_CreateHIDReport+0x20>
     5a0:	19 82       	std	Y+1, r1	; 0x01
     5a2:	18 82       	st	Y, r1
     5a4:	81 e0       	ldi	r24, 0x01	; 1
     5a6:	df 91       	pop	r29

					CurrReportIDInfo->ReportSizeBits[NewReportItem.ItemType] += CurrStateTable->Attributes.BitSize;
     5a8:	cf 91       	pop	r28
     5aa:	1f 91       	pop	r17
     5ac:	0f 91       	pop	r16
     5ae:	08 95       	ret

000005b0 <CALLBACK_HID_Device_ProcessHIDReport>:
     5b0:	08 95       	ret

000005b2 <CALLBACK_USB_GetDescriptor>:
     5b2:	29 2f       	mov	r18, r25
     5b4:	33 27       	eor	r19, r19
     5b6:	23 30       	cpi	r18, 0x03	; 3

					ParserData->LargestReportSizeBits = MAX(ParserData->LargestReportSizeBits, CurrReportIDInfo->ReportSizeBits[NewReportItem.ItemType]);
     5b8:	31 05       	cpc	r19, r1
     5ba:	b9 f0       	breq	.+46     	; 0x5ea <CALLBACK_USB_GetDescriptor+0x38>
     5bc:	5c f4       	brge	.+22     	; 0x5d4 <CALLBACK_USB_GetDescriptor+0x22>
     5be:	21 30       	cpi	r18, 0x01	; 1
     5c0:	31 05       	cpc	r19, r1
     5c2:	69 f1       	breq	.+90     	; 0x61e <CALLBACK_USB_GetDescriptor+0x6c>
     5c4:	22 30       	cpi	r18, 0x02	; 2
     5c6:	31 05       	cpc	r19, r1
     5c8:	79 f5       	brne	.+94     	; 0x628 <CALLBACK_USB_GetDescriptor+0x76>
     5ca:	8f e5       	ldi	r24, 0x5F	; 95
     5cc:	90 e0       	ldi	r25, 0x00	; 0
     5ce:	2e e1       	ldi	r18, 0x1E	; 30
     5d0:	31 e0       	ldi	r19, 0x01	; 1
     5d2:	2e c0       	rjmp	.+92     	; 0x630 <CALLBACK_USB_GetDescriptor+0x7e>
     5d4:	21 32       	cpi	r18, 0x21	; 33
     5d6:	31 05       	cpc	r19, r1
     5d8:	e9 f0       	breq	.+58     	; 0x614 <CALLBACK_USB_GetDescriptor+0x62>
     5da:	22 32       	cpi	r18, 0x22	; 34
     5dc:	31 05       	cpc	r19, r1
     5de:	21 f5       	brne	.+72     	; 0x628 <CALLBACK_USB_GetDescriptor+0x76>
     5e0:	8e e4       	ldi	r24, 0x4E	; 78
     5e2:	90 e0       	ldi	r25, 0x00	; 0
     5e4:	2f e8       	ldi	r18, 0x8F	; 143
     5e6:	31 e0       	ldi	r19, 0x01	; 1
     5e8:	23 c0       	rjmp	.+70     	; 0x630 <CALLBACK_USB_GetDescriptor+0x7e>
     5ea:	99 27       	eor	r25, r25
     5ec:	81 30       	cpi	r24, 0x01	; 1
     5ee:	91 05       	cpc	r25, r1

					if (ParserData->TotalReportItems == HID_MAX_REPORTITEMS)
     5f0:	41 f0       	breq	.+16     	; 0x602 <CALLBACK_USB_GetDescriptor+0x50>
     5f2:	82 30       	cpi	r24, 0x02	; 2
     5f4:	91 05       	cpc	r25, r1
     5f6:	41 f0       	breq	.+16     	; 0x608 <CALLBACK_USB_GetDescriptor+0x56>
     5f8:	89 2b       	or	r24, r25
					  return HID_PARSE_InsufficientReportItems;
     5fa:	b1 f4       	brne	.+44     	; 0x628 <CALLBACK_USB_GetDescriptor+0x76>
     5fc:	ea e1       	ldi	r30, 0x1A	; 26

					memcpy(&ParserData->ReportItems[ParserData->TotalReportItems],
					       &NewReportItem, sizeof(HID_ReportItem_t));

					if (!(ReportItemData & HID_IOF_CONSTANT) && CALLBACK_HIDParser_FilterHIDReportItem(&NewReportItem))
     5fe:	f1 e0       	ldi	r31, 0x01	; 1
     600:	05 c0       	rjmp	.+10     	; 0x60c <CALLBACK_USB_GetDescriptor+0x5a>
     602:	e4 ef       	ldi	r30, 0xF4	; 244
     604:	f0 e0       	ldi	r31, 0x00	; 0
     606:	02 c0       	rjmp	.+4      	; 0x60c <CALLBACK_USB_GetDescriptor+0x5a>
     608:	ee ec       	ldi	r30, 0xCE	; 206
     60a:	f0 e0       	ldi	r31, 0x00	; 0
     60c:	84 91       	lpm	r24, Z
     60e:	90 e0       	ldi	r25, 0x00	; 0
     610:	9f 01       	movw	r18, r30
     612:	0e c0       	rjmp	.+28     	; 0x630 <CALLBACK_USB_GetDescriptor+0x7e>
     614:	89 e0       	ldi	r24, 0x09	; 9
     616:	90 e0       	ldi	r25, 0x00	; 0
     618:	2d e6       	ldi	r18, 0x6D	; 109
     61a:	31 e0       	ldi	r19, 0x01	; 1
     61c:	09 c0       	rjmp	.+18     	; 0x630 <CALLBACK_USB_GetDescriptor+0x7e>
     61e:	82 e1       	ldi	r24, 0x12	; 18
     620:	90 e0       	ldi	r25, 0x00	; 0
     622:	2d e7       	ldi	r18, 0x7D	; 125
     624:	31 e0       	ldi	r19, 0x01	; 1
     626:	04 c0       	rjmp	.+8      	; 0x630 <CALLBACK_USB_GetDescriptor+0x7e>
     628:	80 e0       	ldi	r24, 0x00	; 0
     62a:	90 e0       	ldi	r25, 0x00	; 0
     62c:	20 e0       	ldi	r18, 0x00	; 0
     62e:	30 e0       	ldi	r19, 0x00	; 0
     630:	fa 01       	movw	r30, r20
     632:	31 83       	std	Z+1, r19	; 0x01
     634:	20 83       	st	Z, r18
     636:	08 95       	ret

00000638 <LCD_CS_Low>:
     638:	28 98       	cbi	0x05, 0	; 5
     63a:	08 95       	ret

0000063c <LCD_CS_High>:
     63c:	28 9a       	sbi	0x05, 0	; 5
     63e:	08 95       	ret

00000640 <LcdWrite>:
     640:	cf 93       	push	r28
     642:	df 93       	push	r29
     644:	00 d0       	rcall	.+0      	; 0x646 <LcdWrite+0x6>
     646:	1f 92       	push	r1
     648:	cd b7       	in	r28, 0x3d	; 61
     64a:	de b7       	in	r29, 0x3e	; 62
     64c:	44 23       	and	r20, r20
     64e:	39 f0       	breq	.+14     	; 0x65e <LcdWrite+0x1e>
     650:	4b 83       	std	Y+3, r20	; 0x03
     652:	6a 83       	std	Y+2, r22	; 0x02
     654:	89 83       	std	Y+1, r24	; 0x01
     656:	f0 df       	rcall	.-32     	; 0x638 <LCD_CS_Low>
     658:	89 81       	ldd	r24, Y+1	; 0x01
     65a:	6a 81       	ldd	r22, Y+2	; 0x02
     65c:	4b 81       	ldd	r20, Y+3	; 0x03
     65e:	88 23       	and	r24, r24
     660:	11 f0       	breq	.+4      	; 0x666 <LcdWrite+0x26>
     662:	2a 9a       	sbi	0x05, 2	; 5
     664:	01 c0       	rjmp	.+2      	; 0x668 <LcdWrite+0x28>
     666:	2a 98       	cbi	0x05, 2	; 5
     668:	29 98       	cbi	0x05, 1	; 5
     66a:	29 9a       	sbi	0x05, 1	; 5
     66c:	87 e0       	ldi	r24, 0x07	; 7
     66e:	90 e0       	ldi	r25, 0x00	; 0
     670:	70 e0       	ldi	r23, 0x00	; 0
     672:	9b 01       	movw	r18, r22
     674:	08 2e       	mov	r0, r24
     676:	02 c0       	rjmp	.+4      	; 0x67c <LcdWrite+0x3c>
     678:	35 95       	asr	r19
     67a:	27 95       	ror	r18
     67c:	0a 94       	dec	r0
     67e:	e2 f7       	brpl	.-8      	; 0x678 <LcdWrite+0x38>
     680:	20 ff       	sbrs	r18, 0
     682:	02 c0       	rjmp	.+4      	; 0x688 <LcdWrite+0x48>
					  ParserData->TotalReportItems++;
     684:	2a 9a       	sbi	0x05, 2	; 5
     686:	01 c0       	rjmp	.+2      	; 0x68a <LcdWrite+0x4a>
     688:	2a 98       	cbi	0x05, 2	; 5
     68a:	29 98       	cbi	0x05, 1	; 5
     68c:	29 9a       	sbi	0x05, 1	; 5
			
			default:
				break;
		}

		if ((HIDReportItem & HID_RI_TYPE_MASK) == HID_RI_TYPE_MAIN)
     68e:	01 97       	sbiw	r24, 0x01	; 1
     690:	80 f7       	brcc	.-32     	; 0x672 <LcdWrite+0x32>
     692:	44 23       	and	r20, r20
     694:	31 f0       	breq	.+12     	; 0x6a2 <LcdWrite+0x62>
     696:	0f 90       	pop	r0
     698:	0f 90       	pop	r0
		{
			UsageMinMax.Minimum = 0;
			UsageMinMax.Maximum = 0;
     69a:	0f 90       	pop	r0
     69c:	df 91       	pop	r29
     69e:	cf 91       	pop	r28
				break;
		}

		if ((HIDReportItem & HID_RI_TYPE_MASK) == HID_RI_TYPE_MAIN)
		{
			UsageMinMax.Minimum = 0;
     6a0:	cd cf       	rjmp	.-102    	; 0x63c <LCD_CS_High>
     6a2:	0f 90       	pop	r0
     6a4:	0f 90       	pop	r0
			UsageMinMax.Maximum = 0;
			UsageListSize       = 0;
     6a6:	0f 90       	pop	r0
     6a8:	df 91       	pop	r29
     6aa:	cf 91       	pop	r28
     6ac:	08 95       	ret

000006ae <LCD_Init>:
		}
	}

	if (!(ParserData->TotalReportItems))
     6ae:	20 9a       	sbi	0x04, 0	; 4
     6b0:	21 9a       	sbi	0x04, 1	; 4
     6b2:	22 9a       	sbi	0x04, 2	; 4
     6b4:	23 98       	cbi	0x04, 3	; 4
	  return HID_PARSE_NoUnfilteredReportItems;
     6b6:	24 9a       	sbi	0x04, 4	; 4
     6b8:	3f 9a       	sbi	0x07, 7	; 7

		switch (HIDReportItem & (HID_RI_TYPE_MASK | HID_RI_TAG_MASK))
		{
			case HID_RI_PUSH(0):
				if (CurrStateTable == &StateTable[HID_STATETABLE_STACK_DEPTH - 1])
				  return HID_PARSE_HIDStackOverflow;
     6ba:	56 9a       	sbi	0x0a, 6	; 10
     6bc:	6e 9a       	sbi	0x0d, 6	; 13

				CurrStateTable++;
				break;
			case HID_RI_POP(0):
				if (CurrStateTable == &StateTable[0])
				  return HID_PARSE_HIDStackUnderflow;
     6be:	57 9a       	sbi	0x0a, 7	; 10
     6c0:	76 9a       	sbi	0x0e, 6	; 14

				CurrReportIDInfo->ReportID = CurrStateTable->ReportID;
				break;
			case HID_RI_USAGE(0):
				if (UsageListSize == HID_USAGE_STACK_DEPTH)
				  return HID_PARSE_UsageListOverflow;
     6c2:	2f ef       	ldi	r18, 0xFF	; 255
     6c4:	81 ee       	ldi	r24, 0xE1	; 225
					CurrCollectionPath = &ParserData->CollectionPaths[1];

					while (CurrCollectionPath->Parent != NULL)
					{
						if (CurrCollectionPath == &ParserData->CollectionPaths[HID_MAX_COLLECTIONS - 1])
						  return HID_PARSE_InsufficientCollectionPaths;
     6c6:	94 e0       	ldi	r25, 0x04	; 4
     6c8:	21 50       	subi	r18, 0x01	; 1
				}

				break;
			case HID_RI_END_COLLECTION(0):
				if (CurrCollectionPath == NULL)
				  return HID_PARSE_UnexpectedEndCollection;
     6ca:	80 40       	sbci	r24, 0x00	; 0
     6cc:	90 40       	sbci	r25, 0x00	; 0
	}

	if (!(ParserData->TotalReportItems))
	  return HID_PARSE_NoUnfilteredReportItems;

	return HID_PARSE_Successful;
     6ce:	e1 f7       	brne	.-8      	; 0x6c8 <LCD_Init+0x1a>
     6d0:	00 c0       	rjmp	.+0      	; 0x6d2 <LCD_Init+0x24>
					}

					if (CurrReportIDInfo == NULL)
					{
						if (ParserData->TotalDeviceReports == HID_MAX_REPORT_IDS)
						  return HID_PARSE_InsufficientReportIDItems;
     6d2:	00 00       	nop

	if (!(ParserData->TotalReportItems))
	  return HID_PARSE_NoUnfilteredReportItems;

	return HID_PARSE_Successful;
}
     6d4:	76 98       	cbi	0x0e, 6	; 14
     6d6:	8f e9       	ldi	r24, 0x9F	; 159
     6d8:	9f e0       	ldi	r25, 0x0F	; 15
     6da:	01 97       	sbiw	r24, 0x01	; 1
     6dc:	f1 f7       	brne	.-4      	; 0x6da <LCD_Init+0x2c>
     6de:	00 c0       	rjmp	.+0      	; 0x6e0 <LCD_Init+0x32>
     6e0:	00 00       	nop
     6e2:	76 9a       	sbi	0x0e, 6	; 14
     6e4:	8f eb       	ldi	r24, 0xBF	; 191
     6e6:	9d e5       	ldi	r25, 0x5D	; 93
     6e8:	01 97       	sbiw	r24, 0x01	; 1
     6ea:	f1 f7       	brne	.-4      	; 0x6e8 <LCD_Init+0x3a>
     6ec:	00 c0       	rjmp	.+0      	; 0x6ee <LCD_Init+0x40>
     6ee:	00 00       	nop
     6f0:	41 e0       	ldi	r20, 0x01	; 1
     6f2:	61 e1       	ldi	r22, 0x11	; 17
     6f4:	80 e0       	ldi	r24, 0x00	; 0
     6f6:	a4 df       	rcall	.-184    	; 0x640 <LcdWrite>
     6f8:	9f ef       	ldi	r25, 0xFF	; 255
     6fa:	2e e5       	ldi	r18, 0x5E	; 94
     6fc:	85 e0       	ldi	r24, 0x05	; 5
     6fe:	91 50       	subi	r25, 0x01	; 1
     700:	20 40       	sbci	r18, 0x00	; 0
     702:	80 40       	sbci	r24, 0x00	; 0
     704:	e1 f7       	brne	.-8      	; 0x6fe <LCD_Init+0x50>
     706:	00 c0       	rjmp	.+0      	; 0x708 <LCD_Init+0x5a>
	#else
		//round up by default
		__ticks_dc = (uint32_t)(ceil(fabs(__tmp)));
	#endif

	__builtin_avr_delay_cycles(__ticks_dc);
     708:	00 00       	nop
     70a:	41 e0       	ldi	r20, 0x01	; 1
	PORTE |= PIN_RESET;		// Reset high
	_delay_ms(6); 			// Page 13 in manual for LCD

	LcdWrite(LCD_C, 0x11, 1); // Sleep out command
	_delay_ms(110);
	LcdWrite(LCD_C, 0x29, 1); // Display on command
     70c:	69 e2       	ldi	r22, 0x29	; 41
     70e:	80 e0       	ldi	r24, 0x00	; 0
     710:	97 df       	rcall	.-210    	; 0x640 <LcdWrite>
     712:	92 df       	rcall	.-220    	; 0x638 <LCD_CS_Low>
     714:	40 e0       	ldi	r20, 0x00	; 0

	LCD_CS_Low();
     716:	6a e3       	ldi	r22, 0x3A	; 58
     718:	80 e0       	ldi	r24, 0x00	; 0
	LcdWrite(LCD_C, 0x3A, 0); // Interface pixel format
     71a:	92 df       	rcall	.-220    	; 0x640 <LcdWrite>
     71c:	40 e0       	ldi	r20, 0x00	; 0
     71e:	60 e7       	ldi	r22, 0x70	; 112
     720:	81 e0       	ldi	r24, 0x01	; 1
     722:	8e df       	rcall	.-228    	; 0x640 <LcdWrite>
	LcdWrite(LCD_D, 0x70, 0); // 24 bit
     724:	8b df       	rcall	.-234    	; 0x63c <LCD_CS_High>
     726:	88 df       	rcall	.-240    	; 0x638 <LCD_CS_Low>
     728:	40 e0       	ldi	r20, 0x00	; 0
     72a:	66 e3       	ldi	r22, 0x36	; 54
     72c:	80 e0       	ldi	r24, 0x00	; 0
	LCD_CS_High();
     72e:	88 df       	rcall	.-240    	; 0x640 <LcdWrite>
     730:	40 e0       	ldi	r20, 0x00	; 0

	LCD_CS_Low();
     732:	60 e0       	ldi	r22, 0x00	; 0
     734:	81 e0       	ldi	r24, 0x01	; 1
	LcdWrite(LCD_C, 0x36, 0); // Memory Access Control
     736:	84 df       	rcall	.-248    	; 0x640 <LcdWrite>
     738:	81 df       	rcall	.-254    	; 0x63c <LCD_CS_High>
     73a:	80 e0       	ldi	r24, 0x00	; 0
     73c:	90 e0       	ldi	r25, 0x00	; 0
     73e:	08 95       	ret

00000740 <LCD_UnInit>:
	LcdWrite(LCD_D, 0x00, 0); // 24 bit
     740:	41 e0       	ldi	r20, 0x01	; 1
     742:	68 e2       	ldi	r22, 0x28	; 40
     744:	80 e0       	ldi	r24, 0x00	; 0
     746:	7c df       	rcall	.-264    	; 0x640 <LcdWrite>
     748:	2f ef       	ldi	r18, 0xFF	; 255
	LCD_CS_High();
     74a:	8e e5       	ldi	r24, 0x5E	; 94
     74c:	95 e0       	ldi	r25, 0x05	; 5

	return 0;		
}
     74e:	21 50       	subi	r18, 0x01	; 1
     750:	80 40       	sbci	r24, 0x00	; 0
     752:	90 40       	sbci	r25, 0x00	; 0
     754:	e1 f7       	brne	.-8      	; 0x74e <LCD_UnInit+0xe>
     756:	00 c0       	rjmp	.+0      	; 0x758 <LCD_UnInit+0x18>
     758:	00 00       	nop
     75a:	41 e0       	ldi	r20, 0x01	; 1

void LCD_UnInit(void){
	LcdWrite(LCD_C, 0x28, 1); // Sleep out command
	_delay_ms(110);
	LcdWrite(LCD_C, 0x10, 1); // Display on command
     75c:	60 e1       	ldi	r22, 0x10	; 16
     75e:	80 e0       	ldi	r24, 0x00	; 0
     760:	6f cf       	rjmp	.-290    	; 0x640 <LcdWrite>

00000762 <BL_on>:
     762:	99 e0       	ldi	r25, 0x09	; 9
     764:	90 93 c1 00 	sts	0x00C1, r25

/* Setup PWM on pin PD7, see page 162 in the Datasheet */
void BL_on(char duty){

	TCCR4B = (0<<PWM4X)  | (0<<PSR4) | (0<<DTPS41) | (0<<DTPS40) | (1<<CS43) | (0<<CS42) | (0<<CS41) | (1<<CS40); 
	TCCR4C = (1<<COM4D1) | (0<<COM4D0) | (0<<FOC4D) | (1<<PWM4D); 
     768:	90 93 c2 00 	sts	0x00C2, r25
	TCCR4D = (0<<WGM41)  | (0<<WGM40); // Count up -mode, Fast PWM if PWM4D == 1
     76c:	10 92 c3 00 	sts	0x00C3, r1
	TCCR4E = (0<<TLOCK4) | (0<<ENHC4) | (0<<OC4OE5) | (0<<OC4OE4) | (0<<OC4OE3) | (0<<OC4OE2) | (0<<OC4OE1) | (0<<OC4OE0); 
     770:	10 92 c4 00 	sts	0x00C4, r1

	OCR4C = 0xFF;		// Top value of counter 
     774:	9f ef       	ldi	r25, 0xFF	; 255
     776:	90 93 d1 00 	sts	0x00D1, r25
   	OCR4D = (0xFF-duty); 		//set 75% duty cycle 
     77a:	80 95       	com	r24
     77c:	80 93 d2 00 	sts	0x00D2, r24
     780:	08 95       	ret

00000782 <setup_irq>:
ISR(INT2_vect){
    edt_ft5x06_get_data();
} 

int setup_irq(void){
    EICRA |= (1 << ISC21); // Falling edge
     782:	e9 e6       	ldi	r30, 0x69	; 105
     784:	f0 e0       	ldi	r31, 0x00	; 0
     786:	80 81       	ld	r24, Z
     788:	80 62       	ori	r24, 0x20	; 32
     78a:	80 83       	st	Z, r24
    EIMSK |= (1 << INT2);  // Enable INT2
     78c:	ea 9a       	sbi	0x1d, 2	; 29
    sei(); 
     78e:	78 94       	sei
    return 0;
}
     790:	80 e0       	ldi	r24, 0x00	; 0
     792:	90 e0       	ldi	r25, 0x00	; 0
     794:	08 95       	ret

00000796 <digitizer_set_config>:
	return 0;
}

/* Set the digitizer configuration */
int digitizer_set_config(int config){
    if(config > 0 && config < 6){
     796:	9c 01       	movw	r18, r24
     798:	21 50       	subi	r18, 0x01	; 1
     79a:	31 09       	sbc	r19, r1
     79c:	25 30       	cpi	r18, 0x05	; 5
     79e:	31 05       	cpc	r19, r1
     7a0:	38 f4       	brcc	.+14     	; 0x7b0 <digitizer_set_config+0x1a>
        digitizer_config_xy = config;
     7a2:	90 93 3f 01 	sts	0x013F, r25
     7a6:	80 93 3e 01 	sts	0x013E, r24
        return 0;
     7aa:	80 e0       	ldi	r24, 0x00	; 0
     7ac:	90 e0       	ldi	r25, 0x00	; 0
     7ae:	08 95       	ret
    }
    return -1;
     7b0:	8f ef       	ldi	r24, 0xFF	; 255
     7b2:	9f ef       	ldi	r25, 0xFF	; 255
}
     7b4:	08 95       	ret

000007b6 <digitizer_get_report>:

/* This is initiliazed from the host. Return the current touch point data */
int digitizer_get_report(USB_DigitizerReport_Data_t* report){	
     7b6:	cf 93       	push	r28
     7b8:	df 93       	push	r29
     7ba:	ec 01       	movw	r28, r24
    int ret;

    if(tp[report_nr].reported == 0){
     7bc:	20 91 57 02 	lds	r18, 0x0257
     7c0:	30 91 58 02 	lds	r19, 0x0258
     7c4:	8a e0       	ldi	r24, 0x0A	; 10
     7c6:	82 9f       	mul	r24, r18
     7c8:	d0 01       	movw	r26, r0
     7ca:	83 9f       	mul	r24, r19
     7cc:	b0 0d       	add	r27, r0
     7ce:	11 24       	eor	r1, r1
     7d0:	ad 53       	subi	r26, 0x3D	; 61
     7d2:	bd 4f       	sbci	r27, 0xFD	; 253
     7d4:	18 96       	adiw	r26, 0x08	; 8
     7d6:	8c 91       	ld	r24, X
     7d8:	18 97       	sbiw	r26, 0x08	; 8
     7da:	81 11       	cpse	r24, r1
     7dc:	74 c0       	rjmp	.+232    	; 0x8c6 <digitizer_get_report+0x110>
        //dev_dbg("Down %d, id: %d\n", report_nr, tp[report_nr].id);
        report->Tip_and_InRange       = (tp[report_nr].event & TOUCH_EVENT_ON) ? 1 : 0;
     7de:	16 96       	adiw	r26, 0x06	; 6
     7e0:	8c 91       	ld	r24, X
     7e2:	16 97       	sbiw	r26, 0x06	; 6
     7e4:	86 95       	lsr	r24
     7e6:	81 70       	andi	r24, 0x01	; 1
     7e8:	88 83       	st	Y, r24
        report->Pressure              = 1; // tp[report_nr].weight;
     7ea:	81 e0       	ldi	r24, 0x01	; 1
     7ec:	89 83       	std	Y+1, r24	; 0x01
        report->Contact_identifier    = tp[report_nr].id;
     7ee:	17 96       	adiw	r26, 0x07	; 7
     7f0:	8c 91       	ld	r24, X
     7f2:	8a 83       	std	Y+2, r24	; 0x02
        report->Contact_count_max     = MAX_SUPPORT_POINTS;	
     7f4:	82 e0       	ldi	r24, 0x02	; 2
     7f6:	8b 83       	std	Y+3, r24	; 0x03
        switch(digitizer_config_xy){
     7f8:	80 91 3e 01 	lds	r24, 0x013E
     7fc:	90 91 3f 01 	lds	r25, 0x013F
     800:	87 30       	cpi	r24, 0x07	; 7
     802:	91 05       	cpc	r25, r1
     804:	08 f0       	brcs	.+2      	; 0x808 <digitizer_get_report+0x52>
     806:	53 c0       	rjmp	.+166    	; 0x8ae <digitizer_get_report+0xf8>
     808:	8a 5a       	subi	r24, 0xAA	; 170
     80a:	9f 4f       	sbci	r25, 0xFF	; 255
     80c:	fc 01       	movw	r30, r24
            case CONFIG_DIGITIZER_SWITCH_INV_X:
                report->X = 800-tp[report_nr].y;
                report->Y = tp[report_nr].x;
                break;
            case CONFIG_DIGITIZER_SWITCH_INV_Y:
                report->X = tp[report_nr].y;
     80e:	8a e0       	ldi	r24, 0x0A	; 10
     810:	82 9f       	mul	r24, r18
     812:	d0 01       	movw	r26, r0
     814:	83 9f       	mul	r24, r19
     816:	b0 0d       	add	r27, r0
     818:	11 24       	eor	r1, r1
     81a:	ad 53       	subi	r26, 0x3D	; 61
     81c:	bd 4f       	sbci	r27, 0xFD	; 253
        //dev_dbg("Down %d, id: %d\n", report_nr, tp[report_nr].id);
        report->Tip_and_InRange       = (tp[report_nr].event & TOUCH_EVENT_ON) ? 1 : 0;
        report->Pressure              = 1; // tp[report_nr].weight;
        report->Contact_identifier    = tp[report_nr].id;
        report->Contact_count_max     = MAX_SUPPORT_POINTS;	
        switch(digitizer_config_xy){
     81e:	0c 94 02 10 	jmp	0x2004	; 0x2004 <__tablejump2__>
            case CONFIG_DIGITIZER_NORMAL:
                report->X = tp[report_nr].x;
     822:	8d 91       	ld	r24, X+
     824:	9c 91       	ld	r25, X
     826:	11 97       	sbiw	r26, 0x01	; 1
     828:	07 c0       	rjmp	.+14     	; 0x838 <digitizer_get_report+0x82>
                report->Y = tp[report_nr].y;
                break;
            case CONFIG_DIGITIZER_NORMAL_INV_X:
                report->X = 480-tp[report_nr].x;
     82a:	80 ee       	ldi	r24, 0xE0	; 224
     82c:	91 e0       	ldi	r25, 0x01	; 1
     82e:	4d 91       	ld	r20, X+
     830:	5c 91       	ld	r21, X
     832:	11 97       	sbiw	r26, 0x01	; 1
     834:	84 1b       	sub	r24, r20
     836:	95 0b       	sbc	r25, r21
     838:	9d 83       	std	Y+5, r25	; 0x05
     83a:	8c 83       	std	Y+4, r24	; 0x04
                report->Y = tp[report_nr].y;
     83c:	12 96       	adiw	r26, 0x02	; 2
     83e:	8d 91       	ld	r24, X+
     840:	9c 91       	ld	r25, X
     842:	13 97       	sbiw	r26, 0x03	; 3
     844:	32 c0       	rjmp	.+100    	; 0x8aa <digitizer_get_report+0xf4>
                break;
            case CONFIG_DIGITIZER_NORMAL_INV_Y:
                report->X = tp[report_nr].x;
     846:	8d 91       	ld	r24, X+
     848:	9c 91       	ld	r25, X
     84a:	11 97       	sbiw	r26, 0x01	; 1
     84c:	07 c0       	rjmp	.+14     	; 0x85c <digitizer_get_report+0xa6>
                report->Y = 800-tp[report_nr].y;
                break;
            case CONFIG_DIGITIZER_NORMAL_INV_XY:
                report->X = 480-tp[report_nr].x;
     84e:	80 ee       	ldi	r24, 0xE0	; 224
     850:	91 e0       	ldi	r25, 0x01	; 1
     852:	4d 91       	ld	r20, X+
     854:	5c 91       	ld	r21, X
     856:	11 97       	sbiw	r26, 0x01	; 1
     858:	84 1b       	sub	r24, r20
     85a:	95 0b       	sbc	r25, r21
     85c:	9d 83       	std	Y+5, r25	; 0x05
     85e:	8c 83       	std	Y+4, r24	; 0x04
                report->Y = 800-tp[report_nr].y;
     860:	80 e2       	ldi	r24, 0x20	; 32
     862:	93 e0       	ldi	r25, 0x03	; 3
     864:	12 96       	adiw	r26, 0x02	; 2
     866:	4d 91       	ld	r20, X+
     868:	5c 91       	ld	r21, X
     86a:	13 97       	sbiw	r26, 0x03	; 3
     86c:	1c c0       	rjmp	.+56     	; 0x8a6 <digitizer_get_report+0xf0>
                break;                
            case CONFIG_DIGITIZER_SWITCH:
                report->X = tp[report_nr].y;
     86e:	12 96       	adiw	r26, 0x02	; 2
     870:	8d 91       	ld	r24, X+
     872:	9c 91       	ld	r25, X
     874:	13 97       	sbiw	r26, 0x03	; 3
     876:	08 c0       	rjmp	.+16     	; 0x888 <digitizer_get_report+0xd2>
                report->Y = tp[report_nr].x;
                break;
            case CONFIG_DIGITIZER_SWITCH_INV_X:
                report->X = 800-tp[report_nr].y;
     878:	80 e2       	ldi	r24, 0x20	; 32
     87a:	93 e0       	ldi	r25, 0x03	; 3
     87c:	12 96       	adiw	r26, 0x02	; 2
     87e:	4d 91       	ld	r20, X+
     880:	5c 91       	ld	r21, X
     882:	13 97       	sbiw	r26, 0x03	; 3
     884:	84 1b       	sub	r24, r20
     886:	95 0b       	sbc	r25, r21
     888:	9d 83       	std	Y+5, r25	; 0x05
     88a:	8c 83       	std	Y+4, r24	; 0x04
                report->Y = tp[report_nr].x;
     88c:	8d 91       	ld	r24, X+
     88e:	9c 91       	ld	r25, X
     890:	0c c0       	rjmp	.+24     	; 0x8aa <digitizer_get_report+0xf4>
                break;
            case CONFIG_DIGITIZER_SWITCH_INV_Y:
                report->X = tp[report_nr].y;
     892:	12 96       	adiw	r26, 0x02	; 2
     894:	8d 91       	ld	r24, X+
     896:	9c 91       	ld	r25, X
     898:	13 97       	sbiw	r26, 0x03	; 3
     89a:	9d 83       	std	Y+5, r25	; 0x05
     89c:	8c 83       	std	Y+4, r24	; 0x04
                report->Y = 480-tp[report_nr].x;
     89e:	80 ee       	ldi	r24, 0xE0	; 224
     8a0:	91 e0       	ldi	r25, 0x01	; 1
     8a2:	4d 91       	ld	r20, X+
     8a4:	5c 91       	ld	r21, X
     8a6:	84 1b       	sub	r24, r20
     8a8:	95 0b       	sbc	r25, r21
     8aa:	9f 83       	std	Y+7, r25	; 0x07
     8ac:	8e 83       	std	Y+6, r24	; 0x06
                break;
        }
        tp[report_nr].reported = 1;
     8ae:	8a e0       	ldi	r24, 0x0A	; 10
     8b0:	82 9f       	mul	r24, r18
     8b2:	f0 01       	movw	r30, r0
     8b4:	83 9f       	mul	r24, r19
     8b6:	f0 0d       	add	r31, r0
     8b8:	11 24       	eor	r1, r1
     8ba:	ed 53       	subi	r30, 0x3D	; 61
     8bc:	fd 4f       	sbci	r31, 0xFD	; 253
     8be:	81 e0       	ldi	r24, 0x01	; 1
     8c0:	80 87       	std	Z+8, r24	; 0x08
        tp[report_nr].notseen = 0;
     8c2:	11 86       	std	Z+9, r1	; 0x09
     8c4:	17 c0       	rjmp	.+46     	; 0x8f4 <digitizer_get_report+0x13e>
        ret = 0;
    }
    else if(tp[report_nr].notseen == 10){        
     8c6:	19 96       	adiw	r26, 0x09	; 9
     8c8:	8c 91       	ld	r24, X
     8ca:	19 97       	sbiw	r26, 0x09	; 9
     8cc:	8a 30       	cpi	r24, 0x0A	; 10
     8ce:	a9 f4       	brne	.+42     	; 0x8fa <digitizer_get_report+0x144>
        //dev_dbg("Lift %d, %d, id: %d\n", report_nr, tp[report_nr].notseen, tp[report_nr].id);
        report->Tip_and_InRange       = 0;
     8d0:	18 82       	st	Y, r1
        report->Pressure              = 0;
     8d2:	19 82       	std	Y+1, r1	; 0x01
        report->Contact_identifier    = tp[report_nr].id;
     8d4:	17 96       	adiw	r26, 0x07	; 7
     8d6:	8c 91       	ld	r24, X
     8d8:	17 97       	sbiw	r26, 0x07	; 7
     8da:	8a 83       	std	Y+2, r24	; 0x02
        report->Contact_count_max     = MAX_SUPPORT_POINTS;	
     8dc:	82 e0       	ldi	r24, 0x02	; 2
     8de:	8b 83       	std	Y+3, r24	; 0x03
        report->X = 0;
     8e0:	1d 82       	std	Y+5, r1	; 0x05
     8e2:	1c 82       	std	Y+4, r1	; 0x04
        report->Y = 0;
     8e4:	1f 82       	std	Y+7, r1	; 0x07
     8e6:	1e 82       	std	Y+6, r1	; 0x06
        tp[report_nr].notseen++;
     8e8:	19 96       	adiw	r26, 0x09	; 9
     8ea:	8c 91       	ld	r24, X
     8ec:	19 97       	sbiw	r26, 0x09	; 9
     8ee:	8f 5f       	subi	r24, 0xFF	; 255
     8f0:	19 96       	adiw	r26, 0x09	; 9
     8f2:	8c 93       	st	X, r24
        ret = 0;        
     8f4:	e0 e0       	ldi	r30, 0x00	; 0
     8f6:	f0 e0       	ldi	r31, 0x00	; 0
     8f8:	08 c0       	rjmp	.+16     	; 0x90a <digitizer_get_report+0x154>
    }
    else{
        tp[report_nr].notseen++;
     8fa:	8f 5f       	subi	r24, 0xFF	; 255
        if(tp[report_nr].notseen > 12)
     8fc:	8d 30       	cpi	r24, 0x0D	; 13
     8fe:	08 f0       	brcs	.+2      	; 0x902 <digitizer_get_report+0x14c>
            tp[report_nr].notseen = 12;
     900:	8c e0       	ldi	r24, 0x0C	; 12
     902:	19 96       	adiw	r26, 0x09	; 9
     904:	8c 93       	st	X, r24
        ret = -1;
     906:	ef ef       	ldi	r30, 0xFF	; 255
     908:	ff ef       	ldi	r31, 0xFF	; 255
    }

    report_nr++;
     90a:	c9 01       	movw	r24, r18
     90c:	01 96       	adiw	r24, 0x01	; 1
    report_nr %= MAX_SUPPORT_POINTS;
     90e:	62 e0       	ldi	r22, 0x02	; 2
     910:	70 e0       	ldi	r23, 0x00	; 0
     912:	0e 94 ef 0f 	call	0x1fde	; 0x1fde <__divmodhi4>
     916:	90 93 58 02 	sts	0x0258, r25
     91a:	80 93 57 02 	sts	0x0257, r24

	return ret;
}
     91e:	cf 01       	movw	r24, r30
     920:	df 91       	pop	r29
     922:	cf 91       	pop	r28
     924:	08 95       	ret

00000926 <edt_ft5x06_ts_readwrite>:
}

int edt_ft5x06_ts_readwrite(
				   u16 wr_len, u8 *wr_buf,
				   u16 rd_len, u8 *rd_buf)
{
     926:	0f 93       	push	r16
     928:	1f 93       	push	r17
     92a:	cf 93       	push	r28
     92c:	df 93       	push	r29
     92e:	cd b7       	in	r28, 0x3d	; 61
     930:	de b7       	in	r29, 0x3e	; 62
     932:	60 97       	sbiw	r28, 0x10	; 16
     934:	0f b6       	in	r0, 0x3f	; 63
     936:	f8 94       	cli
     938:	de bf       	out	0x3e, r29	; 62
     93a:	0f be       	out	0x3f, r0	; 63
     93c:	cd bf       	out	0x3d, r28	; 61
	struct i2c_msg wrmsg[2];
	int i = 0;
	int ret;

	if (wr_len) {
     93e:	00 97       	sbiw	r24, 0x00	; 0
     940:	69 f0       	breq	.+26     	; 0x95c <edt_ft5x06_ts_readwrite+0x36>
		wrmsg[i].addr  = CLIENT_ADDR;
     942:	e8 e3       	ldi	r30, 0x38	; 56
     944:	f0 e0       	ldi	r31, 0x00	; 0
     946:	fa 83       	std	Y+2, r31	; 0x02
     948:	e9 83       	std	Y+1, r30	; 0x01
		wrmsg[i].flags = 0;
     94a:	1c 82       	std	Y+4, r1	; 0x04
     94c:	1b 82       	std	Y+3, r1	; 0x03
		wrmsg[i].len = wr_len;
     94e:	9e 83       	std	Y+6, r25	; 0x06
     950:	8d 83       	std	Y+5, r24	; 0x05
		wrmsg[i].buf = wr_buf;
     952:	78 87       	std	Y+8, r23	; 0x08
     954:	6f 83       	std	Y+7, r22	; 0x07
		i++;
     956:	01 e0       	ldi	r16, 0x01	; 1
     958:	10 e0       	ldi	r17, 0x00	; 0
     95a:	02 c0       	rjmp	.+4      	; 0x960 <edt_ft5x06_ts_readwrite+0x3a>
int edt_ft5x06_ts_readwrite(
				   u16 wr_len, u8 *wr_buf,
				   u16 rd_len, u8 *rd_buf)
{
	struct i2c_msg wrmsg[2];
	int i = 0;
     95c:	00 e0       	ldi	r16, 0x00	; 0
     95e:	10 e0       	ldi	r17, 0x00	; 0
		wrmsg[i].flags = 0;
		wrmsg[i].len = wr_len;
		wrmsg[i].buf = wr_buf;
		i++;
	}
	if (rd_len) {
     960:	41 15       	cp	r20, r1
     962:	51 05       	cpc	r21, r1
     964:	d1 f0       	breq	.+52     	; 0x99a <edt_ft5x06_ts_readwrite+0x74>
		wrmsg[i].addr  = CLIENT_ADDR;
     966:	f8 01       	movw	r30, r16
     968:	83 e0       	ldi	r24, 0x03	; 3
     96a:	ee 0f       	add	r30, r30
     96c:	ff 1f       	adc	r31, r31
     96e:	8a 95       	dec	r24
     970:	e1 f7       	brne	.-8      	; 0x96a <edt_ft5x06_ts_readwrite+0x44>
     972:	81 e0       	ldi	r24, 0x01	; 1
     974:	90 e0       	ldi	r25, 0x00	; 0
     976:	8c 0f       	add	r24, r28
     978:	9d 1f       	adc	r25, r29
     97a:	e8 0f       	add	r30, r24
     97c:	f9 1f       	adc	r31, r25
     97e:	88 e3       	ldi	r24, 0x38	; 56
     980:	90 e0       	ldi	r25, 0x00	; 0
     982:	91 83       	std	Z+1, r25	; 0x01
     984:	80 83       	st	Z, r24
		wrmsg[i].flags = I2C_M_RD;
     986:	81 e0       	ldi	r24, 0x01	; 1
     988:	90 e0       	ldi	r25, 0x00	; 0
     98a:	93 83       	std	Z+3, r25	; 0x03
     98c:	82 83       	std	Z+2, r24	; 0x02
		wrmsg[i].len = rd_len;
     98e:	55 83       	std	Z+5, r21	; 0x05
     990:	44 83       	std	Z+4, r20	; 0x04
		wrmsg[i].buf = rd_buf;
     992:	37 83       	std	Z+7, r19	; 0x07
     994:	26 83       	std	Z+6, r18	; 0x06
		i++;
     996:	0f 5f       	subi	r16, 0xFF	; 255
     998:	1f 4f       	sbci	r17, 0xFF	; 255
	}

	ret = i2c_transfer(wrmsg, i);
     99a:	b8 01       	movw	r22, r16
     99c:	ce 01       	movw	r24, r28
     99e:	01 96       	adiw	r24, 0x01	; 1
     9a0:	b5 d2       	rcall	.+1386   	; 0xf0c <i2c_transfer>
     9a2:	97 fd       	sbrc	r25, 7
	if (ret < 0)
     9a4:	08 c0       	rjmp	.+16     	; 0x9b6 <edt_ft5x06_ts_readwrite+0x90>
     9a6:	80 17       	cp	r24, r16
		return ret;
	if (ret != i)
     9a8:	91 07       	cpc	r25, r17
     9aa:	19 f0       	breq	.+6      	; 0x9b2 <edt_ft5x06_ts_readwrite+0x8c>
     9ac:	8b ef       	ldi	r24, 0xFB	; 251
		return -EIO;
     9ae:	9f ef       	ldi	r25, 0xFF	; 255
     9b0:	02 c0       	rjmp	.+4      	; 0x9b6 <edt_ft5x06_ts_readwrite+0x90>
     9b2:	80 e0       	ldi	r24, 0x00	; 0

	return 0;
     9b4:	90 e0       	ldi	r25, 0x00	; 0
     9b6:	60 96       	adiw	r28, 0x10	; 16
}
     9b8:	0f b6       	in	r0, 0x3f	; 63
     9ba:	f8 94       	cli
     9bc:	de bf       	out	0x3e, r29	; 62
     9be:	0f be       	out	0x3f, r0	; 63
     9c0:	cd bf       	out	0x3d, r28	; 61
     9c2:	df 91       	pop	r29
     9c4:	cf 91       	pop	r28
     9c6:	1f 91       	pop	r17
     9c8:	0f 91       	pop	r16
     9ca:	08 95       	ret

000009cc <edt_ft5x06_get_data>:
     9cc:	cf 92       	push	r12

	return ret;
}

/* Fetch touch data and place it in the tp structs */
int edt_ft5x06_get_data(void){
     9ce:	df 92       	push	r13
     9d0:	ef 92       	push	r14
     9d2:	ff 92       	push	r15
     9d4:	0f 93       	push	r16
     9d6:	1f 93       	push	r17
     9d8:	cf 93       	push	r28
     9da:	df 93       	push	r29
     9dc:	cd b7       	in	r28, 0x3d	; 61
     9de:	de b7       	in	r29, 0x3e	; 62
     9e0:	61 97       	sbiw	r28, 0x11	; 17
     9e2:	0f b6       	in	r0, 0x3f	; 63
     9e4:	f8 94       	cli
     9e6:	de bf       	out	0x3e, r29	; 62
     9e8:	0f be       	out	0x3f, r0	; 63
     9ea:	cd bf       	out	0x3d, r28	; 61
    u8 rdbuf[16];
    u8 wrbuf[1];
    int i;    
    int ret;
    
    wrbuf[0] = 0;
     9ec:	19 8a       	std	Y+17, r1	; 0x11
    ret = edt_ft5x06_ts_readwrite(1, wrbuf, 16, rdbuf);
     9ee:	9e 01       	movw	r18, r28
     9f0:	2f 5f       	subi	r18, 0xFF	; 255
     9f2:	3f 4f       	sbci	r19, 0xFF	; 255
     9f4:	40 e1       	ldi	r20, 0x10	; 16
     9f6:	50 e0       	ldi	r21, 0x00	; 0
     9f8:	be 01       	movw	r22, r28
     9fa:	6f 5e       	subi	r22, 0xEF	; 239
     9fc:	7f 4f       	sbci	r23, 0xFF	; 255
     9fe:	81 e0       	ldi	r24, 0x01	; 1
     a00:	90 e0       	ldi	r25, 0x00	; 0
     a02:	91 df       	rcall	.-222    	; 0x926 <edt_ft5x06_ts_readwrite>
     a04:	00 97       	sbiw	r24, 0x00	; 0
    if(ret != 0)
     a06:	09 f0       	breq	.+2      	; 0xa0a <edt_ft5x06_get_data+0x3e>
     a08:	7d c0       	rjmp	.+250    	; 0xb04 <__stack+0x5>
     a0a:	8b 81       	ldd	r24, Y+3	; 0x03
        return ret;
    num_touches = rdbuf[2];
     a0c:	90 e0       	ldi	r25, 0x00	; 0
     a0e:	8f 3f       	cpi	r24, 0xFF	; 255
    //gest_id = rdbuf[1];
    dev_dbg("num_touch: %d\n", num_touches);
    // When no touch has occured, 255 is sent. 
    if(num_touches == 255){
     a10:	91 05       	cpc	r25, r1
     a12:	29 f0       	breq	.+10     	; 0xa1e <edt_ft5x06_get_data+0x52>
     a14:	90 93 5a 02 	sts	0x025A, r25
    
    wrbuf[0] = 0;
    ret = edt_ft5x06_ts_readwrite(1, wrbuf, 16, rdbuf);
    if(ret != 0)
        return ret;
    num_touches = rdbuf[2];
     a18:	80 93 59 02 	sts	0x0259, r24
     a1c:	04 c0       	rjmp	.+8      	; 0xa26 <edt_ft5x06_get_data+0x5a>
     a1e:	10 92 5a 02 	sts	0x025A, r1
    //gest_id = rdbuf[1];
    dev_dbg("num_touch: %d\n", num_touches);
    // When no touch has occured, 255 is sent. 
    if(num_touches == 255){
        num_touches = 0;
     a22:	10 92 59 02 	sts	0x0259, r1
     a26:	60 91 59 02 	lds	r22, 0x0259
    // 
    if(num_touches < num_touches_prev){

    }

    for(i=0; i<num_touches; i++){
     a2a:	70 91 5a 02 	lds	r23, 0x025A
     a2e:	8b ec       	ldi	r24, 0xCB	; 203
     a30:	c8 2e       	mov	r12, r24
     a32:	82 e0       	ldi	r24, 0x02	; 2
     a34:	d8 2e       	mov	r13, r24
     a36:	83 ec       	ldi	r24, 0xC3	; 195
     a38:	92 e0       	ldi	r25, 0x02	; 2
     a3a:	de 01       	movw	r26, r28
     a3c:	19 96       	adiw	r26, 0x09	; 9
     a3e:	20 e0       	ldi	r18, 0x00	; 0
     a40:	30 e0       	ldi	r19, 0x00	; 0
     a42:	26 17       	cp	r18, r22
     a44:	37 07       	cpc	r19, r23
     a46:	0c f0       	brlt	.+2      	; 0xa4a <edt_ft5x06_get_data+0x7e>
     a48:	5b c0       	rjmp	.+182    	; 0xb00 <__stack+0x1>
     a4a:	f6 01       	movw	r30, r12
        // Only update touch points that have been reported
        if(tp[i].reported == 1){
     a4c:	40 81       	ld	r20, Z
     a4e:	41 30       	cpi	r20, 0x01	; 1
     a50:	09 f0       	breq	.+2      	; 0xa54 <edt_ft5x06_get_data+0x88>
     a52:	4e c0       	rjmp	.+156    	; 0xaf0 <edt_ft5x06_get_data+0x124>
     a54:	ad 01       	movw	r20, r26
     a56:	45 50       	subi	r20, 0x05	; 5
     a58:	51 09       	sbc	r21, r1
     a5a:	fa 01       	movw	r30, r20
            tp[i].x      = ((rdbuf[REG_P1_XH     + i*6] & 0x0F) << 8) + rdbuf[REG_P1_XL+i*6];
     a5c:	e0 80       	ld	r14, Z
     a5e:	4e 2d       	mov	r20, r14
     a60:	4f 70       	andi	r20, 0x0F	; 15
     a62:	50 e0       	ldi	r21, 0x00	; 0
     a64:	54 2f       	mov	r21, r20
     a66:	44 27       	eor	r20, r20
     a68:	8d 01       	movw	r16, r26
     a6a:	04 50       	subi	r16, 0x04	; 4
     a6c:	11 09       	sbc	r17, r1
     a6e:	f8 01       	movw	r30, r16
     a70:	10 81       	ld	r17, Z
     a72:	41 0f       	add	r20, r17
     a74:	51 1d       	adc	r21, r1
     a76:	fc 01       	movw	r30, r24
     a78:	51 83       	std	Z+1, r21	; 0x01
     a7a:	40 83       	st	Z, r20
     a7c:	ad 01       	movw	r20, r26
     a7e:	43 50       	subi	r20, 0x03	; 3
     a80:	51 09       	sbc	r21, r1
     a82:	fa 01       	movw	r30, r20
            tp[i].y      = ((rdbuf[REG_P1_YH     + i*6] & 0x0F) << 8) + rdbuf[REG_P1_YL+i*6];
     a84:	f0 80       	ld	r15, Z
     a86:	4f 2d       	mov	r20, r15
     a88:	4f 70       	andi	r20, 0x0F	; 15
     a8a:	50 e0       	ldi	r21, 0x00	; 0
     a8c:	54 2f       	mov	r21, r20
     a8e:	44 27       	eor	r20, r20
     a90:	8d 01       	movw	r16, r26
     a92:	02 50       	subi	r16, 0x02	; 2
     a94:	11 09       	sbc	r17, r1
     a96:	f8 01       	movw	r30, r16
     a98:	10 81       	ld	r17, Z
     a9a:	41 0f       	add	r20, r17
     a9c:	51 1d       	adc	r21, r1
     a9e:	fc 01       	movw	r30, r24
     aa0:	53 83       	std	Z+3, r21	; 0x03
     aa2:	42 83       	std	Z+2, r20	; 0x02
     aa4:	a6 01       	movw	r20, r12
     aa6:	42 50       	subi	r20, 0x02	; 2
     aa8:	51 09       	sbc	r21, r1
     aaa:	e2 94       	swap	r14
            tp[i].event  = ((rdbuf[REG_P1_XH     + i*6] & 0xC0) >> 6);            
     aac:	e6 94       	lsr	r14
     aae:	e6 94       	lsr	r14
     ab0:	13 e0       	ldi	r17, 0x03	; 3
     ab2:	e1 22       	and	r14, r17
     ab4:	fa 01       	movw	r30, r20
     ab6:	e0 82       	st	Z, r14
     ab8:	a6 01       	movw	r20, r12
     aba:	41 50       	subi	r20, 0x01	; 1
     abc:	51 09       	sbc	r21, r1
     abe:	f2 94       	swap	r15
            tp[i].id     = ((rdbuf[REG_P1_YH     + i*6] & 0xF0) >> 4);
     ac0:	0f e0       	ldi	r16, 0x0F	; 15
     ac2:	f0 22       	and	r15, r16
     ac4:	fa 01       	movw	r30, r20
     ac6:	f0 82       	st	Z, r15
     ac8:	1c 91       	ld	r17, X
            tp[i].area   = ((rdbuf[REG_P1_MISC   + i*6] & 0xF0) >> 4);
     aca:	12 95       	swap	r17
     acc:	1f 70       	andi	r17, 0x0F	; 15
     ace:	a6 01       	movw	r20, r12
     ad0:	43 50       	subi	r20, 0x03	; 3
     ad2:	51 09       	sbc	r21, r1
     ad4:	fa 01       	movw	r30, r20
     ad6:	10 83       	st	Z, r17
     ad8:	ad 01       	movw	r20, r26
     ada:	41 50       	subi	r20, 0x01	; 1
     adc:	51 09       	sbc	r21, r1
     ade:	fa 01       	movw	r30, r20
            tp[i].weight =   rdbuf[REG_P1_WEIGHT + i*6];
     ae0:	10 81       	ld	r17, Z
     ae2:	a6 01       	movw	r20, r12
     ae4:	44 50       	subi	r20, 0x04	; 4
     ae6:	51 09       	sbc	r21, r1
     ae8:	fa 01       	movw	r30, r20
     aea:	10 83       	st	Z, r17
     aec:	f6 01       	movw	r30, r12
            tp[i].reported = 0;
     aee:	10 82       	st	Z, r1
     af0:	2f 5f       	subi	r18, 0xFF	; 255
    // 
    if(num_touches < num_touches_prev){

    }

    for(i=0; i<num_touches; i++){
     af2:	3f 4f       	sbci	r19, 0xFF	; 255
     af4:	fa e0       	ldi	r31, 0x0A	; 10
     af6:	cf 0e       	add	r12, r31
     af8:	d1 1c       	adc	r13, r1
     afa:	0a 96       	adiw	r24, 0x0a	; 10
     afc:	16 96       	adiw	r26, 0x06	; 6
     afe:	a1 cf       	rjmp	.-190    	; 0xa42 <edt_ft5x06_get_data+0x76>
     b00:	80 e0       	ldi	r24, 0x00	; 0
            /*dev_dbg("%d: (x, y, a, w, e, i) =  (%d,%d, %d, %d, %d, %d)\n",
                i, tp[i].x, tp[i].y, tp[i].area, tp[i].weight, tp[i].event, tp[i].id);*/
        }
    }
    
    return 0;
     b02:	90 e0       	ldi	r25, 0x00	; 0
     b04:	61 96       	adiw	r28, 0x11	; 17
}
     b06:	0f b6       	in	r0, 0x3f	; 63
     b08:	f8 94       	cli
     b0a:	de bf       	out	0x3e, r29	; 62
     b0c:	0f be       	out	0x3f, r0	; 63
     b0e:	cd bf       	out	0x3d, r28	; 61
     b10:	df 91       	pop	r29
     b12:	cf 91       	pop	r28
     b14:	1f 91       	pop	r17
     b16:	0f 91       	pop	r16
     b18:	ff 90       	pop	r15
     b1a:	ef 90       	pop	r14
     b1c:	df 90       	pop	r13
     b1e:	cf 90       	pop	r12
     b20:	08 95       	ret

00000b22 <__vector_3>:
     b22:	1f 92       	push	r1
static int num_touches_prev;
static int report_nr;

static int digitizer_config_xy = CONFIG_DIGITIZER_NORMAL_INV_XY;

ISR(INT2_vect){
     b24:	0f 92       	push	r0
     b26:	0f b6       	in	r0, 0x3f	; 63
     b28:	0f 92       	push	r0
     b2a:	11 24       	eor	r1, r1
     b2c:	2f 93       	push	r18
     b2e:	3f 93       	push	r19
     b30:	4f 93       	push	r20
     b32:	5f 93       	push	r21
     b34:	6f 93       	push	r22
     b36:	7f 93       	push	r23
     b38:	8f 93       	push	r24
     b3a:	9f 93       	push	r25
     b3c:	af 93       	push	r26
     b3e:	bf 93       	push	r27
     b40:	ef 93       	push	r30
     b42:	ff 93       	push	r31
    edt_ft5x06_get_data();
     b44:	43 df       	rcall	.-378    	; 0x9cc <edt_ft5x06_get_data>
     b46:	ff 91       	pop	r31
} 
     b48:	ef 91       	pop	r30
     b4a:	bf 91       	pop	r27
     b4c:	af 91       	pop	r26
     b4e:	9f 91       	pop	r25
     b50:	8f 91       	pop	r24
     b52:	7f 91       	pop	r23
     b54:	6f 91       	pop	r22
     b56:	5f 91       	pop	r21
     b58:	4f 91       	pop	r20
     b5a:	3f 91       	pop	r19
     b5c:	2f 91       	pop	r18
     b5e:	0f 90       	pop	r0
     b60:	0f be       	out	0x3f, r0	; 63
     b62:	0f 90       	pop	r0
     b64:	1f 90       	pop	r1
     b66:	18 95       	reti

00000b68 <edt_ft5x06_register_write>:
     b68:	cf 93       	push	r28
    }
    
    return 0;
}

int edt_ft5x06_register_write(struct edt_ft5x06_ts_data *tsdata, u8 addr, u8 value){
     b6a:	df 93       	push	r29
     b6c:	00 d0       	rcall	.+0      	; 0xb6e <edt_ft5x06_register_write+0x6>
     b6e:	cd b7       	in	r28, 0x3d	; 61
     b70:	de b7       	in	r29, 0x3e	; 62
	u8 wrbuf[2];

    wrbuf[0] = addr;
     b72:	69 83       	std	Y+1, r22	; 0x01
    wrbuf[1] = value;
     b74:	4a 83       	std	Y+2, r20	; 0x02

    return edt_ft5x06_ts_readwrite(2, wrbuf, 0, NULL);
     b76:	20 e0       	ldi	r18, 0x00	; 0
     b78:	30 e0       	ldi	r19, 0x00	; 0
     b7a:	40 e0       	ldi	r20, 0x00	; 0
     b7c:	50 e0       	ldi	r21, 0x00	; 0
     b7e:	be 01       	movw	r22, r28
     b80:	6f 5f       	subi	r22, 0xFF	; 255
     b82:	7f 4f       	sbci	r23, 0xFF	; 255
     b84:	82 e0       	ldi	r24, 0x02	; 2
     b86:	90 e0       	ldi	r25, 0x00	; 0
     b88:	ce de       	rcall	.-612    	; 0x926 <edt_ft5x06_ts_readwrite>
     b8a:	0f 90       	pop	r0
}
     b8c:	0f 90       	pop	r0
     b8e:	df 91       	pop	r29
     b90:	cf 91       	pop	r28
     b92:	08 95       	ret

00000b94 <edt_ft5x06_ts_set_parameters>:
     b94:	cf 93       	push	r28
	    tsdata->name <= edt_ft5x06_attr_##name.limit_high)		\
		edt_ft5x06_register_write(tsdata, reg, tsdata->name)


void
edt_ft5x06_ts_set_parameters(struct edt_ft5x06_ts_data *tsdata){
     b96:	df 93       	push	r29
     b98:	ec 01       	movw	r28, r24
	EDT_ATTR_CHECKSET(threshold,           REG_TH_GROUP);
     b9a:	4d 81       	ldd	r20, Y+5	; 0x05
     b9c:	5e 81       	ldd	r21, Y+6	; 0x06
     b9e:	4f 3f       	cpi	r20, 0xFF	; 255
     ba0:	51 05       	cpc	r21, r1
     ba2:	09 f0       	breq	.+2      	; 0xba6 <edt_ft5x06_ts_set_parameters+0x12>
     ba4:	10 f4       	brcc	.+4      	; 0xbaa <edt_ft5x06_ts_set_parameters+0x16>
     ba6:	60 e8       	ldi	r22, 0x80	; 128
     ba8:	df df       	rcall	.-66     	; 0xb68 <edt_ft5x06_register_write>
     baa:	4f 81       	ldd	r20, Y+7	; 0x07
	EDT_ATTR_CHECKSET(filter_coeff,        REG_TH_DIFF);
     bac:	58 85       	ldd	r21, Y+8	; 0x08
     bae:	4f 3f       	cpi	r20, 0xFF	; 255
     bb0:	51 05       	cpc	r21, r1
     bb2:	09 f0       	breq	.+2      	; 0xbb6 <edt_ft5x06_ts_set_parameters+0x22>
     bb4:	18 f4       	brcc	.+6      	; 0xbbc <edt_ft5x06_ts_set_parameters+0x28>
     bb6:	65 e8       	ldi	r22, 0x85	; 133
     bb8:	ce 01       	movw	r24, r28
     bba:	d6 df       	rcall	.-84     	; 0xb68 <edt_ft5x06_register_write>
     bbc:	49 85       	ldd	r20, Y+9	; 0x09
     bbe:	5a 85       	ldd	r21, Y+10	; 0x0a
	EDT_ATTR_CHECKSET(time_enter_monitor,  REG_TIMEENTERMONITOR);
     bc0:	4f 3f       	cpi	r20, 0xFF	; 255
     bc2:	51 05       	cpc	r21, r1
     bc4:	09 f0       	breq	.+2      	; 0xbc8 <edt_ft5x06_ts_set_parameters+0x34>
     bc6:	18 f4       	brcc	.+6      	; 0xbce <edt_ft5x06_ts_set_parameters+0x3a>
     bc8:	67 e8       	ldi	r22, 0x87	; 135
     bca:	ce 01       	movw	r24, r28
     bcc:	cd df       	rcall	.-102    	; 0xb68 <edt_ft5x06_register_write>
     bce:	4b 85       	ldd	r20, Y+11	; 0x0b
     bd0:	5c 85       	ldd	r21, Y+12	; 0x0c
     bd2:	ca 01       	movw	r24, r20
	EDT_ATTR_CHECKSET(report_rate_active,  REG_PERIODACTIVE);
     bd4:	03 97       	sbiw	r24, 0x03	; 3
     bd6:	0c 97       	sbiw	r24, 0x0c	; 12
     bd8:	18 f4       	brcc	.+6      	; 0xbe0 <edt_ft5x06_ts_set_parameters+0x4c>
     bda:	68 e8       	ldi	r22, 0x88	; 136
     bdc:	ce 01       	movw	r24, r28
     bde:	c4 df       	rcall	.-120    	; 0xb68 <edt_ft5x06_register_write>
     be0:	4d 85       	ldd	r20, Y+13	; 0x0d
     be2:	5e 85       	ldd	r21, Y+14	; 0x0e
     be4:	ca 01       	movw	r24, r20
     be6:	03 97       	sbiw	r24, 0x03	; 3
	EDT_ATTR_CHECKSET(report_rate_monitor, REG_PERIODMONITOR);
     be8:	0c 97       	sbiw	r24, 0x0c	; 12
     bea:	28 f4       	brcc	.+10     	; 0xbf6 <edt_ft5x06_ts_set_parameters+0x62>
     bec:	69 e8       	ldi	r22, 0x89	; 137
     bee:	ce 01       	movw	r24, r28
     bf0:	df 91       	pop	r29
     bf2:	cf 91       	pop	r28
     bf4:	b9 cf       	rjmp	.-142    	; 0xb68 <edt_ft5x06_register_write>
     bf6:	df 91       	pop	r29
}
     bf8:	cf 91       	pop	r28
     bfa:	08 95       	ret

00000bfc <edt_ft5x06_register_read>:
edt_ft5x06_ts_set_parameters(struct edt_ft5x06_ts_data *tsdata){
	EDT_ATTR_CHECKSET(threshold,           REG_TH_GROUP);
	EDT_ATTR_CHECKSET(filter_coeff,        REG_TH_DIFF);
	EDT_ATTR_CHECKSET(time_enter_monitor,  REG_TIMEENTERMONITOR);
	EDT_ATTR_CHECKSET(report_rate_active,  REG_PERIODACTIVE);
	EDT_ATTR_CHECKSET(report_rate_monitor, REG_PERIODMONITOR);
     bfc:	cf 93       	push	r28
     bfe:	df 93       	push	r29
}
     c00:	00 d0       	rcall	.+0      	; 0xc02 <edt_ft5x06_register_read+0x6>
     c02:	cd b7       	in	r28, 0x3d	; 61
     c04:	de b7       	in	r29, 0x3e	; 62

int edt_ft5x06_register_read(struct edt_ft5x06_ts_data *tsdata, u8 addr){
	u8 wrbuf[1], rdbuf[1];
	int error;
    
    wrbuf[0] = addr;
     c06:	6a 83       	std	Y+2, r22	; 0x02
	error = edt_ft5x06_ts_readwrite(1, wrbuf, 1, rdbuf);
     c08:	9e 01       	movw	r18, r28
     c0a:	2f 5f       	subi	r18, 0xFF	; 255
     c0c:	3f 4f       	sbci	r19, 0xFF	; 255
     c0e:	41 e0       	ldi	r20, 0x01	; 1
     c10:	50 e0       	ldi	r21, 0x00	; 0
     c12:	be 01       	movw	r22, r28
     c14:	6e 5f       	subi	r22, 0xFE	; 254
     c16:	7f 4f       	sbci	r23, 0xFF	; 255
     c18:	81 e0       	ldi	r24, 0x01	; 1
     c1a:	90 e0       	ldi	r25, 0x00	; 0
     c1c:	84 de       	rcall	.-760    	; 0x926 <edt_ft5x06_ts_readwrite>
     c1e:	00 97       	sbiw	r24, 0x00	; 0
	if (error)
     c20:	11 f4       	brne	.+4      	; 0xc26 <edt_ft5x06_register_read+0x2a>
     c22:	89 81       	ldd	r24, Y+1	; 0x01
		return error;
	return rdbuf[0];
     c24:	90 e0       	ldi	r25, 0x00	; 0
     c26:	0f 90       	pop	r0
}
     c28:	0f 90       	pop	r0
     c2a:	df 91       	pop	r29
     c2c:	cf 91       	pop	r28
     c2e:	08 95       	ret

00000c30 <edt_ft5x06_ts_identify>:
     c30:	0f 93       	push	r16
    EIMSK |= (1 << INT2);  // Enable INT2
    sei(); 
    return 0;
}

int edt_ft5x06_ts_identify(struct edt_ft5x06_ts_data *tsdata){
     c32:	1f 93       	push	r17
     c34:	cf 93       	push	r28
     c36:	df 93       	push	r29
     c38:	ec 01       	movw	r28, r24
    int lib_ver = 0;
    int fw_id;
    
    int reg;
    reg = edt_ft5x06_register_read(tsdata, REG_CIPHER);
     c3a:	63 ea       	ldi	r22, 0xA3	; 163
     c3c:	df df       	rcall	.-66     	; 0xbfc <edt_ft5x06_register_read>
     c3e:	06 97       	sbiw	r24, 0x06	; 6

    if(reg != 0x06){
     c40:	09 f0       	breq	.+2      	; 0xc44 <edt_ft5x06_ts_identify+0x14>
     c42:	3a c0       	rjmp	.+116    	; 0xcb8 <edt_ft5x06_ts_identify+0x88>
     c44:	68 ea       	ldi	r22, 0xA8	; 168
        return -1;
    }
    reg = edt_ft5x06_register_read(tsdata, REG_FOCALTECH_ID);
     c46:	ce 01       	movw	r24, r28
     c48:	d9 df       	rcall	.-78     	; 0xbfc <edt_ft5x06_register_read>
     c4a:	81 31       	cpi	r24, 0x11	; 17
     c4c:	91 05       	cpc	r25, r1
    if (reg != 0x11 && reg != 144){
     c4e:	19 f0       	breq	.+6      	; 0xc56 <edt_ft5x06_ts_identify+0x26>
     c50:	80 39       	cpi	r24, 0x90	; 144
     c52:	91 05       	cpc	r25, r1
     c54:	a1 f5       	brne	.+104    	; 0xcbe <edt_ft5x06_ts_identify+0x8e>
     c56:	61 ea       	ldi	r22, 0xA1	; 161
     c58:	ce 01       	movw	r24, r28
        dev_err("Wrong focaltech ID: %d\n", reg);
        return -2;
    }
    lib_ver |= (edt_ft5x06_register_read(tsdata, REG_LIB_VER_H)<<8);
     c5a:	d0 df       	rcall	.-96     	; 0xbfc <edt_ft5x06_register_read>
     c5c:	18 2f       	mov	r17, r24
     c5e:	62 ea       	ldi	r22, 0xA2	; 162
     c60:	ce 01       	movw	r24, r28
     c62:	cc df       	rcall	.-104    	; 0xbfc <edt_ft5x06_register_read>
    lib_ver |= (edt_ft5x06_register_read(tsdata, REG_LIB_VER_L)<<0);
     c64:	31 2f       	mov	r19, r17
     c66:	20 e0       	ldi	r18, 0x00	; 0
     c68:	89 01       	movw	r16, r18
     c6a:	08 2b       	or	r16, r24
    reg = edt_ft5x06_register_read(tsdata, REG_FOCALTECH_ID);
    if (reg != 0x11 && reg != 144){
        dev_err("Wrong focaltech ID: %d\n", reg);
        return -2;
    }
    lib_ver |= (edt_ft5x06_register_read(tsdata, REG_LIB_VER_H)<<8);
     c6c:	19 2b       	or	r17, r25
     c6e:	65 eb       	ldi	r22, 0xB5	; 181
    lib_ver |= (edt_ft5x06_register_read(tsdata, REG_LIB_VER_L)<<0);
     c70:	71 e0       	ldi	r23, 0x01	; 1
     c72:	ce 01       	movw	r24, r28
     c74:	0f 96       	adiw	r24, 0x0f	; 15

    strcpy(tsdata->name, "FT6206");
     c76:	0e 94 86 11 	call	0x230c	; 0x230c <strcpy>
     c7a:	66 ea       	ldi	r22, 0xA6	; 166
     c7c:	ce 01       	movw	r24, r28
     c7e:	be df       	rcall	.-132    	; 0xbfc <edt_ft5x06_register_read>
     c80:	1f 93       	push	r17
    fw_id = edt_ft5x06_register_read(tsdata, REG_FIRMID);
     c82:	0f 93       	push	r16
     c84:	9f 93       	push	r25
     c86:	8f 93       	push	r24
     c88:	8c eb       	ldi	r24, 0xBC	; 188
    sprintf(tsdata->fw_version, "%d:%d", fw_id, lib_ver);
     c8a:	91 e0       	ldi	r25, 0x01	; 1
     c8c:	9f 93       	push	r25
     c8e:	8f 93       	push	r24
     c90:	ce 01       	movw	r24, r28
     c92:	4f 96       	adiw	r24, 0x1f	; 31
     c94:	9f 93       	push	r25
     c96:	8f 93       	push	r24
     c98:	0e 94 b4 11 	call	0x2368	; 0x2368 <sprintf>
     c9c:	60 e0       	ldi	r22, 0x00	; 0
     c9e:	ce 01       	movw	r24, r28
     ca0:	ad df       	rcall	.-166    	; 0xbfc <edt_ft5x06_register_read>
     ca2:	8d b7       	in	r24, 0x3d	; 61
     ca4:	9e b7       	in	r25, 0x3e	; 62
    
    if( edt_ft5x06_register_read(tsdata, 0x00) == 0x00)
     ca6:	08 96       	adiw	r24, 0x08	; 8
     ca8:	0f b6       	in	r0, 0x3f	; 63
     caa:	f8 94       	cli
     cac:	9e bf       	out	0x3e, r25	; 62
        dev_dbg("Chip is in working mode\n");
    else
        dev_dbg("Chip is in factory mode\n");

	return 0;
     cae:	0f be       	out	0x3f, r0	; 63
     cb0:	8d bf       	out	0x3d, r24	; 61
     cb2:	80 e0       	ldi	r24, 0x00	; 0
     cb4:	90 e0       	ldi	r25, 0x00	; 0
     cb6:	05 c0       	rjmp	.+10     	; 0xcc2 <edt_ft5x06_ts_identify+0x92>
     cb8:	8f ef       	ldi	r24, 0xFF	; 255
     cba:	9f ef       	ldi	r25, 0xFF	; 255
     cbc:	02 c0       	rjmp	.+4      	; 0xcc2 <edt_ft5x06_ts_identify+0x92>
     cbe:	8e ef       	ldi	r24, 0xFE	; 254
     cc0:	9f ef       	ldi	r25, 0xFF	; 255
     cc2:	df 91       	pop	r29
    
    int reg;
    reg = edt_ft5x06_register_read(tsdata, REG_CIPHER);

    if(reg != 0x06){
        return -1;
     cc4:	cf 91       	pop	r28
     cc6:	1f 91       	pop	r17
     cc8:	0f 91       	pop	r16
    }
    reg = edt_ft5x06_register_read(tsdata, REG_FOCALTECH_ID);
    if (reg != 0x11 && reg != 144){
        dev_err("Wrong focaltech ID: %d\n", reg);
        return -2;
     cca:	08 95       	ret

00000ccc <edt_ft5x06_ts_get_parameters>:
     ccc:	cf 93       	push	r28
        dev_dbg("Chip is in working mode\n");
    else
        dev_dbg("Chip is in factory mode\n");

	return 0;
}
     cce:	df 93       	push	r29
     cd0:	ec 01       	movw	r28, r24
     cd2:	60 e8       	ldi	r22, 0x80	; 128
     cd4:	93 df       	rcall	.-218    	; 0xbfc <edt_ft5x06_register_read>
     cd6:	9e 83       	std	Y+6, r25	; 0x06
	EDT_ATTR_CHECKSET(report_rate_monitor, REG_PERIODMONITOR);
}

void
edt_ft5x06_ts_get_parameters(struct edt_ft5x06_ts_data *tsdata){
	tsdata->threshold           = edt_ft5x06_register_read(tsdata, REG_TH_GROUP);
     cd8:	8d 83       	std	Y+5, r24	; 0x05
     cda:	65 e8       	ldi	r22, 0x85	; 133
    tsdata->filter_coeff        = edt_ft5x06_register_read(tsdata, REG_TH_DIFF);
     cdc:	ce 01       	movw	r24, r28
     cde:	8e df       	rcall	.-228    	; 0xbfc <edt_ft5x06_register_read>
     ce0:	98 87       	std	Y+8, r25	; 0x08
     ce2:	8f 83       	std	Y+7, r24	; 0x07
     ce4:	67 e8       	ldi	r22, 0x87	; 135
     ce6:	ce 01       	movw	r24, r28
	tsdata->time_enter_monitor  = edt_ft5x06_register_read(tsdata, REG_TIMEENTERMONITOR);
     ce8:	89 df       	rcall	.-238    	; 0xbfc <edt_ft5x06_register_read>
     cea:	9a 87       	std	Y+10, r25	; 0x0a
     cec:	89 87       	std	Y+9, r24	; 0x09
     cee:	68 e8       	ldi	r22, 0x88	; 136
     cf0:	ce 01       	movw	r24, r28
     cf2:	84 df       	rcall	.-248    	; 0xbfc <edt_ft5x06_register_read>
    tsdata->report_rate_active  = edt_ft5x06_register_read(tsdata, REG_PERIODACTIVE);
     cf4:	9c 87       	std	Y+12, r25	; 0x0c
     cf6:	8b 87       	std	Y+11, r24	; 0x0b
     cf8:	69 e8       	ldi	r22, 0x89	; 137
     cfa:	ce 01       	movw	r24, r28
     cfc:	7f df       	rcall	.-258    	; 0xbfc <edt_ft5x06_register_read>
     cfe:	9e 87       	std	Y+14, r25	; 0x0e
    tsdata->report_rate_monitor = edt_ft5x06_register_read(tsdata, REG_PERIODMONITOR);
     d00:	8d 87       	std	Y+13, r24	; 0x0d
     d02:	df 91       	pop	r29
     d04:	cf 91       	pop	r28
     d06:	08 95       	ret

00000d08 <digitizer_init>:
     d08:	8f e2       	ldi	r24, 0x2F	; 47
     d0a:	90 e0       	ldi	r25, 0x00	; 0
}
     d0c:	0e 94 1c 10 	call	0x2038	; 0x2038 <malloc>
     d10:	90 93 c2 02 	sts	0x02C2, r25
	
	int error;

	dev_dbg("probing for EDT FT6x06 I2C\n");

	tsdata = malloc(sizeof(struct edt_ft5x06_ts_data));
     d14:	80 93 c1 02 	sts	0x02C1, r24
	if (!tsdata) {
     d18:	89 2b       	or	r24, r25
     d1a:	19 f4       	brne	.+6      	; 0xd22 <digitizer_init+0x1a>
		dev_err("Failed to allocate memory\n");
		return -ENOMEM;
     d1c:	84 ef       	ldi	r24, 0xF4	; 244
     d1e:	9f ef       	ldi	r25, 0xFF	; 255
     d20:	08 95       	ret
	}

	pdata = malloc(sizeof(struct edt_ft5x06_platform_data));
     d22:	86 e0       	ldi	r24, 0x06	; 6
     d24:	90 e0       	ldi	r25, 0x00	; 0
     d26:	0e 94 1c 10 	call	0x2038	; 0x2038 <malloc>
	if (!pdata) {
     d2a:	89 2b       	or	r24, r25
     d2c:	b9 f3       	breq	.-18     	; 0xd1c <digitizer_init+0x14>
		dev_err("Failed to allocate memory for pdata\n");
		return -ENOMEM;
	}

    // Pins for Digitizer
	DDRB |= PIN_S4;	// PB6 (Reset)
     d2e:	26 9a       	sbi	0x04, 6	; 4
    PORTB &= ~PIN_S4;
     d30:	2e 98       	cbi	0x05, 6	; 5
     d32:	8f e3       	ldi	r24, 0x3F	; 63
     d34:	9f e1       	ldi	r25, 0x1F	; 31
     d36:	01 97       	sbiw	r24, 0x01	; 1
     d38:	f1 f7       	brne	.-4      	; 0xd36 <digitizer_init+0x2e>
     d3a:	00 c0       	rjmp	.+0      	; 0xd3c <digitizer_init+0x34>
     d3c:	00 00       	nop
	_delay_ms(2);
    PORTB |= PIN_S4;
     d3e:	2e 9a       	sbi	0x05, 6	; 5
     d40:	9f ef       	ldi	r25, 0xFF	; 255
     d42:	e1 ee       	ldi	r30, 0xE1	; 225
     d44:	f4 e0       	ldi	r31, 0x04	; 4
     d46:	91 50       	subi	r25, 0x01	; 1
     d48:	e0 40       	sbci	r30, 0x00	; 0
     d4a:	f0 40       	sbci	r31, 0x00	; 0
     d4c:	e1 f7       	brne	.-8      	; 0xd46 <digitizer_init+0x3e>
     d4e:	00 c0       	rjmp	.+0      	; 0xd50 <digitizer_init+0x48>
     d50:	00 00       	nop
	_delay_ms(100);

    // INT in input mode
	DDRD &= ~PIN_S3;	// PD2 (Int)
     d52:	52 98       	cbi	0x0a, 2	; 10
	TWI_Init();
     d54:	26 d0       	rcall	.+76     	; 0xda2 <TWI_Init>
     d56:	8f e2       	ldi	r24, 0x2F	; 47
    
    tsdata = malloc(sizeof(struct edt_ft5x06_ts_data));
     d58:	90 e0       	ldi	r25, 0x00	; 0
     d5a:	0e 94 1c 10 	call	0x2038	; 0x2038 <malloc>
     d5e:	90 93 c2 02 	sts	0x02C2, r25
     d62:	80 93 c1 02 	sts	0x02C1, r24
     d66:	00 97       	sbiw	r24, 0x00	; 0
	if (!tsdata) {
     d68:	c9 f2       	breq	.-78     	; 0xd1c <digitizer_init+0x14>
     d6a:	fc 01       	movw	r30, r24
		dev_err("failed to allocate driver data.\n");
		error = -ENOMEM;
		return error;
	}
    
	tsdata->factory_mode = false;
     d6c:	14 82       	std	Z+4, r1	; 0x04
     d6e:	60 df       	rcall	.-320    	; 0xc30 <edt_ft5x06_ts_identify>

	error = edt_ft5x06_ts_identify(tsdata);
     d70:	00 97       	sbiw	r24, 0x00	; 0
     d72:	b1 f4       	brne	.+44     	; 0xda0 <digitizer_init+0x98>
	if (error) {
     d74:	80 91 c1 02 	lds	r24, 0x02C1
		dev_err("touchscreen probe failed, errno: %d\n", error);
		return error;
	}

	edt_ft5x06_ts_get_parameters(tsdata);
     d78:	90 91 c2 02 	lds	r25, 0x02C2
     d7c:	a7 df       	rcall	.-178    	; 0xccc <edt_ft5x06_ts_get_parameters>
     d7e:	80 91 c1 02 	lds	r24, 0x02C1
     d82:	90 91 c2 02 	lds	r25, 0x02C2
    edt_ft5x06_print_parameters(tsdata);
     d86:	2e e1       	ldi	r18, 0x1E	; 30
     d88:	30 e0       	ldi	r19, 0x00	; 0
     d8a:	fc 01       	movw	r30, r24
    tsdata->threshold = 30  ;
     d8c:	36 83       	std	Z+6, r19	; 0x06
     d8e:	25 83       	std	Z+5, r18	; 0x05
     d90:	01 df       	rcall	.-510    	; 0xb94 <edt_ft5x06_ts_set_parameters>
     d92:	10 92 58 02 	sts	0x0258, r1
	edt_ft5x06_ts_set_parameters(tsdata);
     d96:	10 92 57 02 	sts	0x0257, r1
    //edt_ft5x06_register_write(tsdata, 0x88, 60);

	dev_dbg("Model \"%s\", Rev. \"%s\", Report rate: %d\n",
		tsdata->name, tsdata->fw_version, tsdata->report_rate_active);

    report_nr = 0;
     d9a:	f3 dc       	rcall	.-1562   	; 0x782 <setup_irq>
     d9c:	80 e0       	ldi	r24, 0x00	; 0
     d9e:	90 e0       	ldi	r25, 0x00	; 0
     da0:	08 95       	ret

00000da2 <TWI_Init>:
 * Low level I2C stuff
 **************************************/

void TWI_Init(void){
    //set SCL to 400kHz
    TWSR = 0x00;
     da2:	10 92 b9 00 	sts	0x00B9, r1
    TWBR = 0x0C;
     da6:	8c e0       	ldi	r24, 0x0C	; 12
     da8:	80 93 b8 00 	sts	0x00B8, r24
    //enable TWI
    TWCR = (1<<TWEN);
     dac:	84 e0       	ldi	r24, 0x04	; 4
     dae:	80 93 bc 00 	sts	0x00BC, r24
     db2:	08 95       	ret

00000db4 <TWI_Start>:
}

// Send start signal 
void TWI_Start(void){
    TWCR = (1<<TWINT)|(1<<TWSTA)|(1<<TWEN);
     db4:	84 ea       	ldi	r24, 0xA4	; 164
     db6:	80 93 bc 00 	sts	0x00BC, r24
    while ((TWCR & (1<<TWINT)) == 0);
     dba:	80 91 bc 00 	lds	r24, 0x00BC
     dbe:	87 ff       	sbrs	r24, 7
     dc0:	fc cf       	rjmp	.-8      	; 0xdba <TWI_Start+0x6>
}
     dc2:	08 95       	ret

00000dc4 <TWI_Write>:
    TWCR = (1<<TWINT)|(1<<TWSTO)|(1<<TWEN);
}

// Write a byte
void TWI_Write(uint8_t u8data){
    TWDR = u8data;
     dc4:	80 93 bb 00 	sts	0x00BB, r24
    TWCR = (1<<TWINT)|(1<<TWEN);
     dc8:	84 e8       	ldi	r24, 0x84	; 132
     dca:	80 93 bc 00 	sts	0x00BC, r24
    while ((TWCR & (1<<TWINT)) == 0);
     dce:	80 91 bc 00 	lds	r24, 0x00BC
     dd2:	87 ff       	sbrs	r24, 7
     dd4:	fc cf       	rjmp	.-8      	; 0xdce <TWI_Write+0xa>
}
     dd6:	08 95       	ret

00000dd8 <i2c_send2>:
	return num;
}


// Send a message via I2C
int i2c_send2(uint16_t addr, const u8 *buf, int count){
     dd8:	cf 92       	push	r12
     dda:	df 92       	push	r13
     ddc:	ef 92       	push	r14
     dde:	ff 92       	push	r15
     de0:	0f 93       	push	r16
     de2:	1f 93       	push	r17
     de4:	cf 93       	push	r28
     de6:	df 93       	push	r29
     de8:	1f 92       	push	r1
     dea:	cd b7       	in	r28, 0x3d	; 61
     dec:	de b7       	in	r29, 0x3e	; 62
     dee:	8b 01       	movw	r16, r22
     df0:	7a 01       	movw	r14, r20
	int i;
	int stat;

	TWI_Start();						// First start condition 
     df2:	89 83       	std	Y+1, r24	; 0x01
     df4:	df df       	rcall	.-66     	; 0xdb4 <TWI_Start>
     df6:	20 91 b9 00 	lds	r18, 0x00B9
    return TWDR;
}

// Get TWI status
uint8_t TWI_GetStatus(void){
    return TWSR & 0xF8;
     dfa:	28 7f       	andi	r18, 0xF8	; 248
     dfc:	30 e0       	ldi	r19, 0x00	; 0
int i2c_send2(uint16_t addr, const u8 *buf, int count){
	int i;
	int stat;

	TWI_Start();						// First start condition 
	stat = TWI_GetStatus();
     dfe:	89 81       	ldd	r24, Y+1	; 0x01
    if (stat != 0x08){ //0x08
     e00:	28 30       	cpi	r18, 0x08	; 8
     e02:	31 05       	cpc	r19, r1
     e04:	11 f5       	brne	.+68     	; 0xe4a <i2c_send2+0x72>
     e06:	88 0f       	add	r24, r24
        dev_err("Status err wr 1 %d\n", stat);
        return stat;
    }

	TWI_Write((addr<<1));		// Chip address + write
     e08:	dd df       	rcall	.-70     	; 0xdc4 <TWI_Write>
     e0a:	20 91 b9 00 	lds	r18, 0x00B9
    return TWDR;
}

// Get TWI status
uint8_t TWI_GetStatus(void){
    return TWSR & 0xF8;
     e0e:	28 7f       	andi	r18, 0xF8	; 248
     e10:	30 e0       	ldi	r19, 0x00	; 0
     e12:	28 31       	cpi	r18, 0x18	; 24
        dev_err("Status err wr 1 %d\n", stat);
        return stat;
    }

	TWI_Write((addr<<1));		// Chip address + write
	stat = TWI_GetStatus();
     e14:	31 05       	cpc	r19, r1
    if (stat != 0x18){
     e16:	c9 f4       	brne	.+50     	; 0xe4a <i2c_send2+0x72>
     e18:	68 01       	movw	r12, r16
     e1a:	c6 01       	movw	r24, r12
     e1c:	80 1b       	sub	r24, r16
     e1e:	91 0b       	sbc	r25, r17
     e20:	8e 15       	cp	r24, r14
     e22:	9f 05       	cpc	r25, r15
        dev_err("Status err wr 2 %d\n", stat);
        return stat;
    }

	for(i=0; i<count; i++){				// write the data
     e24:	64 f4       	brge	.+24     	; 0xe3e <i2c_send2+0x66>
     e26:	f6 01       	movw	r30, r12
     e28:	81 91       	ld	r24, Z+
		TWI_Write(buf[i]);
     e2a:	6f 01       	movw	r12, r30
     e2c:	cb df       	rcall	.-106    	; 0xdc4 <TWI_Write>
     e2e:	20 91 b9 00 	lds	r18, 0x00B9
     e32:	28 7f       	andi	r18, 0xF8	; 248
    return TWDR;
}

// Get TWI status
uint8_t TWI_GetStatus(void){
    return TWSR & 0xF8;
     e34:	30 e0       	ldi	r19, 0x00	; 0
     e36:	28 32       	cpi	r18, 0x28	; 40
     e38:	31 05       	cpc	r19, r1
        return stat;
    }

	for(i=0; i<count; i++){				// write the data
		TWI_Write(buf[i]);
		stat = TWI_GetStatus();
     e3a:	79 f3       	breq	.-34     	; 0xe1a <i2c_send2+0x42>
		if (stat != 0x28){
     e3c:	06 c0       	rjmp	.+12     	; 0xe4a <i2c_send2+0x72>
     e3e:	84 e9       	ldi	r24, 0x94	; 148
     e40:	80 93 bc 00 	sts	0x00BC, r24
    while ((TWCR & (1<<TWINT)) == 0);
}

//send stop signal
void TWI_Stop(void){
    TWCR = (1<<TWINT)|(1<<TWSTO)|(1<<TWEN);
     e44:	80 e0       	ldi	r24, 0x00	; 0
     e46:	90 e0       	ldi	r25, 0x00	; 0
     e48:	01 c0       	rjmp	.+2      	; 0xe4c <i2c_send2+0x74>
		    return stat;
        }
	}
	TWI_Stop();							// Send stop condition 

	return 0;
     e4a:	c9 01       	movw	r24, r18
     e4c:	0f 90       	pop	r0
     e4e:	df 91       	pop	r29
        return stat;
    }

	for(i=0; i<count; i++){				// write the data
		TWI_Write(buf[i]);
		stat = TWI_GetStatus();
     e50:	cf 91       	pop	r28
        }
	}
	TWI_Stop();							// Send stop condition 

	return 0;
}
     e52:	1f 91       	pop	r17
     e54:	0f 91       	pop	r16
     e56:	ff 90       	pop	r15
     e58:	ef 90       	pop	r14
     e5a:	df 90       	pop	r13
     e5c:	cf 90       	pop	r12
     e5e:	08 95       	ret

00000e60 <TWI_Read>:
     e60:	88 23       	and	r24, r24
     e62:	11 f0       	breq	.+4      	; 0xe68 <TWI_Read+0x8>
     e64:	84 ec       	ldi	r24, 0xC4	; 196
    while ((TWCR & (1<<TWINT)) == 0);
}

//read byte with NACK
uint8_t TWI_Read(char ack){
    TWCR = (1<<TWINT)|(1<<TWEN)|((ack?1:0)<<TWEA);
     e66:	01 c0       	rjmp	.+2      	; 0xe6a <TWI_Read+0xa>
     e68:	84 e8       	ldi	r24, 0x84	; 132
     e6a:	80 93 bc 00 	sts	0x00BC, r24
    while ((TWCR & (1<<TWINT)) == 0);
     e6e:	80 91 bc 00 	lds	r24, 0x00BC
     e72:	87 ff       	sbrs	r24, 7
     e74:	fc cf       	rjmp	.-8      	; 0xe6e <TWI_Read+0xe>
    return TWDR;
     e76:	80 91 bb 00 	lds	r24, 0x00BB
}
     e7a:	08 95       	ret

00000e7c <i2c_recv2>:
	return 0;
}


// Receive count bytes from addr
int i2c_recv2(uint16_t addr, u8 *buf, int count){
     e7c:	cf 92       	push	r12
     e7e:	df 92       	push	r13
     e80:	ef 92       	push	r14
     e82:	ff 92       	push	r15
     e84:	0f 93       	push	r16
     e86:	1f 93       	push	r17
     e88:	cf 93       	push	r28
     e8a:	df 93       	push	r29
     e8c:	1f 92       	push	r1
     e8e:	cd b7       	in	r28, 0x3d	; 61
     e90:	de b7       	in	r29, 0x3e	; 62
     e92:	6b 01       	movw	r12, r22
     e94:	7a 01       	movw	r14, r20
	int i;
	int stat;

	TWI_Start();						// First start condition 
     e96:	89 83       	std	Y+1, r24	; 0x01
     e98:	8d df       	rcall	.-230    	; 0xdb4 <TWI_Start>
     e9a:	20 91 b9 00 	lds	r18, 0x00B9
    return TWDR;
}

// Get TWI status
uint8_t TWI_GetStatus(void){
    return TWSR & 0xF8;
     e9e:	28 7f       	andi	r18, 0xF8	; 248
     ea0:	30 e0       	ldi	r19, 0x00	; 0
int i2c_recv2(uint16_t addr, u8 *buf, int count){
	int i;
	int stat;

	TWI_Start();						// First start condition 
	stat = TWI_GetStatus();
     ea2:	89 81       	ldd	r24, Y+1	; 0x01
    if (stat != 0x08){
     ea4:	28 30       	cpi	r18, 0x08	; 8
     ea6:	31 05       	cpc	r19, r1
     ea8:	31 f5       	brne	.+76     	; 0xef6 <i2c_recv2+0x7a>
     eaa:	88 0f       	add	r24, r24
        dev_err("Status err rd 1: 0x%x\n", stat);
        return stat;
    }

	TWI_Write((addr<<1)|0x01);		// Chip address + READ
     eac:	81 60       	ori	r24, 0x01	; 1
     eae:	8a df       	rcall	.-236    	; 0xdc4 <TWI_Write>
     eb0:	20 91 b9 00 	lds	r18, 0x00B9
    return TWDR;
}

// Get TWI status
uint8_t TWI_GetStatus(void){
    return TWSR & 0xF8;
     eb4:	28 7f       	andi	r18, 0xF8	; 248
     eb6:	30 e0       	ldi	r19, 0x00	; 0
     eb8:	20 34       	cpi	r18, 0x40	; 64
        dev_err("Status err rd 1: 0x%x\n", stat);
        return stat;
    }

	TWI_Write((addr<<1)|0x01);		// Chip address + READ
	stat = TWI_GetStatus();
     eba:	31 05       	cpc	r19, r1
    if (stat != 0x40){
     ebc:	e1 f4       	brne	.+56     	; 0xef6 <i2c_recv2+0x7a>
     ebe:	86 01       	movw	r16, r12
     ec0:	81 e0       	ldi	r24, 0x01	; 1
     ec2:	e8 1a       	sub	r14, r24
        dev_err("Status err rd 2: 0x%x\n", stat);
        return stat;
    }

	for(i=0; i<count-1; i++){			
     ec4:	f1 08       	sbc	r15, r1
     ec6:	c8 01       	movw	r24, r16
     ec8:	8c 19       	sub	r24, r12
     eca:	9d 09       	sbc	r25, r13
     ecc:	8e 15       	cp	r24, r14
     ece:	9f 05       	cpc	r25, r15
     ed0:	34 f4       	brge	.+12     	; 0xede <i2c_recv2+0x62>
     ed2:	81 e0       	ldi	r24, 0x01	; 1
     ed4:	c5 df       	rcall	.-118    	; 0xe60 <TWI_Read>
		buf[i] = TWI_Read(1);			// Read the data and ACK
     ed6:	f8 01       	movw	r30, r16
     ed8:	81 93       	st	Z+, r24
     eda:	8f 01       	movw	r16, r30
     edc:	f4 cf       	rjmp	.-24     	; 0xec6 <i2c_recv2+0x4a>
     ede:	ec 0c       	add	r14, r12
     ee0:	fd 1c       	adc	r15, r13
     ee2:	80 e0       	ldi	r24, 0x00	; 0
	}
	buf[count-1] = TWI_Read(0);			// No ack on last byte
     ee4:	bd df       	rcall	.-134    	; 0xe60 <TWI_Read>
     ee6:	f7 01       	movw	r30, r14
     ee8:	80 83       	st	Z, r24
     eea:	84 e9       	ldi	r24, 0x94	; 148
     eec:	80 93 bc 00 	sts	0x00BC, r24
     ef0:	80 e0       	ldi	r24, 0x00	; 0
    while ((TWCR & (1<<TWINT)) == 0);
}

//send stop signal
void TWI_Stop(void){
    TWCR = (1<<TWINT)|(1<<TWSTO)|(1<<TWEN);
     ef2:	90 e0       	ldi	r25, 0x00	; 0
     ef4:	01 c0       	rjmp	.+2      	; 0xef8 <i2c_recv2+0x7c>
     ef6:	c9 01       	movw	r24, r18
		buf[i] = TWI_Read(1);			// Read the data and ACK
	}
	buf[count-1] = TWI_Read(0);			// No ack on last byte
	TWI_Stop();							// Send stop condition 
	
	return 0;
     ef8:	0f 90       	pop	r0
     efa:	df 91       	pop	r29
     efc:	cf 91       	pop	r28
     efe:	1f 91       	pop	r17
}
     f00:	0f 91       	pop	r16
     f02:	ff 90       	pop	r15
     f04:	ef 90       	pop	r14
     f06:	df 90       	pop	r13
     f08:	cf 90       	pop	r12
     f0a:	08 95       	ret

00000f0c <i2c_transfer>:
     f0c:	ef 92       	push	r14
     f0e:	ff 92       	push	r15
     f10:	0f 93       	push	r16
     f12:	1f 93       	push	r17
 * the same slave address, although that is the most common model.
 */

#define I2C_ADDR 0x38

int i2c_transfer(struct i2c_msg *msgs, int num){
     f14:	cf 93       	push	r28
     f16:	df 93       	push	r29
     f18:	8b 01       	movw	r16, r22
     f1a:	ec 01       	movw	r28, r24
			? 'R' : 'W', msgs[ret].addr, msgs[ret].len,
			(msgs[ret].flags & I2C_M_RECV_LEN) ? "+" : "");
	}
#endif*/
	
    for(i=0; i<num; i++){
     f1c:	e1 2c       	mov	r14, r1
     f1e:	f1 2c       	mov	r15, r1
     f20:	e0 16       	cp	r14, r16
     f22:	f1 06       	cpc	r15, r17
     f24:	9c f4       	brge	.+38     	; 0xf4c <i2c_transfer+0x40>
        if(msgs[i].flags & I2C_M_RD){
     f26:	2a 81       	ldd	r18, Y+2	; 0x02
     f28:	4c 81       	ldd	r20, Y+4	; 0x04
     f2a:	5d 81       	ldd	r21, Y+5	; 0x05
     f2c:	6e 81       	ldd	r22, Y+6	; 0x06
     f2e:	7f 81       	ldd	r23, Y+7	; 0x07
     f30:	88 81       	ld	r24, Y
     f32:	99 81       	ldd	r25, Y+1	; 0x01
     f34:	20 ff       	sbrs	r18, 0
     f36:	02 c0       	rjmp	.+4      	; 0xf3c <i2c_transfer+0x30>
            ret = i2c_recv2(msgs[i].addr, msgs[i].buf, msgs[i].len);
     f38:	a1 df       	rcall	.-190    	; 0xe7c <i2c_recv2>
     f3a:	01 c0       	rjmp	.+2      	; 0xf3e <i2c_transfer+0x32>
     f3c:	4d df       	rcall	.-358    	; 0xdd8 <i2c_send2>
                dev_err("i2c_recv2 err: 0x%x\n", ret);
                return ret;
            }
        }        
        else{
            ret = i2c_send2(msgs[i].addr, msgs[i].buf, msgs[i].len);
     f3e:	00 97       	sbiw	r24, 0x00	; 0
     f40:	31 f4       	brne	.+12     	; 0xf4e <i2c_transfer+0x42>
            if(ret){
     f42:	8f ef       	ldi	r24, 0xFF	; 255
     f44:	e8 1a       	sub	r14, r24
			? 'R' : 'W', msgs[ret].addr, msgs[ret].len,
			(msgs[ret].flags & I2C_M_RECV_LEN) ? "+" : "");
	}
#endif*/
	
    for(i=0; i<num; i++){
     f46:	f8 0a       	sbc	r15, r24
     f48:	28 96       	adiw	r28, 0x08	; 8
     f4a:	ea cf       	rjmp	.-44     	; 0xf20 <i2c_transfer+0x14>
     f4c:	c8 01       	movw	r24, r16
     f4e:	df 91       	pop	r29
     f50:	cf 91       	pop	r28
                return ret;
            }
        }
    }
	return num;
}
     f52:	1f 91       	pop	r17
     f54:	0f 91       	pop	r16
     f56:	ff 90       	pop	r15
     f58:	ef 90       	pop	r14
     f5a:	08 95       	ret

00000f5c <Endpoint_Write_Stream_LE>:
     f5c:	cf 92       	push	r12
     f5e:	df 92       	push	r13
#if defined(TEMPLATE_FUNC_NAME)

uint8_t TEMPLATE_FUNC_NAME (TEMPLATE_BUFFER_TYPE const Buffer,
                            uint16_t Length,
                            uint16_t* const BytesProcessed)
{
     f60:	ef 92       	push	r14
     f62:	ff 92       	push	r15
     f64:	0f 93       	push	r16
     f66:	1f 93       	push	r17
     f68:	cf 93       	push	r28
     f6a:	df 93       	push	r29
     f6c:	7c 01       	movw	r14, r24
     f6e:	8b 01       	movw	r16, r22
     f70:	ea 01       	movw	r28, r20
	uint8_t* DataStream      = ((uint8_t*)Buffer + TEMPLATE_BUFFER_OFFSET(Length));
	uint16_t BytesInTransfer = 0;
	uint8_t  ErrorCode;

	if ((ErrorCode = Endpoint_WaitUntilReady()))
     f72:	c7 d1       	rcall	.+910    	; 0x1302 <Endpoint_WaitUntilReady>
     f74:	81 11       	cpse	r24, r1
     f76:	30 c0       	rjmp	.+96     	; 0xfd8 <Endpoint_Write_Stream_LE+0x7c>
     f78:	20 97       	sbiw	r28, 0x00	; 0
	  return ErrorCode;

	if (BytesProcessed != NULL)
     f7a:	31 f0       	breq	.+12     	; 0xf88 <Endpoint_Write_Stream_LE+0x2c>
     f7c:	88 81       	ld	r24, Y
	{
		Length -= *BytesProcessed;
     f7e:	99 81       	ldd	r25, Y+1	; 0x01
     f80:	08 1b       	sub	r16, r24
     f82:	19 0b       	sbc	r17, r25
     f84:	e8 0e       	add	r14, r24
		TEMPLATE_BUFFER_MOVE(DataStream, *BytesProcessed);
     f86:	f9 1e       	adc	r15, r25
     f88:	c1 2c       	mov	r12, r1

uint8_t TEMPLATE_FUNC_NAME (TEMPLATE_BUFFER_TYPE const Buffer,
                            uint16_t Length,
                            uint16_t* const BytesProcessed)
{
	uint8_t* DataStream      = ((uint8_t*)Buffer + TEMPLATE_BUFFER_OFFSET(Length));
     f8a:	d1 2c       	mov	r13, r1
     f8c:	01 15       	cp	r16, r1
	{
		Length -= *BytesProcessed;
		TEMPLATE_BUFFER_MOVE(DataStream, *BytesProcessed);
	}

	while (Length)
     f8e:	11 05       	cpc	r17, r1
     f90:	11 f1       	breq	.+68     	; 0xfd6 <Endpoint_Write_Stream_LE+0x7a>
     f92:	80 91 e8 00 	lds	r24, 0x00E8
			 *          on its direction.
			 */
			static inline bool Endpoint_IsReadWriteAllowed(void) ATTR_WARN_UNUSED_RESULT ATTR_ALWAYS_INLINE;
			static inline bool Endpoint_IsReadWriteAllowed(void)
			{
				return ((UEINTX & (1 << RWAL)) ? true : false);
     f96:	85 fd       	sbrc	r24, 5
	{
		if (!(Endpoint_IsReadWriteAllowed()))
     f98:	13 c0       	rjmp	.+38     	; 0xfc0 <Endpoint_Write_Stream_LE+0x64>
     f9a:	80 91 e8 00 	lds	r24, 0x00E8
			 */
			static inline void Endpoint_ClearIN(void) ATTR_ALWAYS_INLINE;
			static inline void Endpoint_ClearIN(void)
			{
				#if !defined(CONTROL_ONLY_DEVICE)
					UEINTX &= ~((1 << TXINI) | (1 << FIFOCON));
     f9e:	8e 77       	andi	r24, 0x7E	; 126
     fa0:	80 93 e8 00 	sts	0x00E8, r24
     fa4:	20 97       	sbiw	r28, 0x00	; 0

			#if !defined(INTERRUPT_CONTROL_ENDPOINT)
			USB_USBTask();
			#endif

			if (BytesProcessed != NULL)
     fa6:	41 f0       	breq	.+16     	; 0xfb8 <Endpoint_Write_Stream_LE+0x5c>
     fa8:	88 81       	ld	r24, Y
			{
				*BytesProcessed += BytesInTransfer;
     faa:	99 81       	ldd	r25, Y+1	; 0x01
     fac:	8c 0d       	add	r24, r12
     fae:	9d 1d       	adc	r25, r13
     fb0:	99 83       	std	Y+1, r25	; 0x01
     fb2:	88 83       	st	Y, r24
     fb4:	85 e0       	ldi	r24, 0x05	; 5
				return ENDPOINT_RWSTREAM_IncompleteTransfer;
     fb6:	10 c0       	rjmp	.+32     	; 0xfd8 <Endpoint_Write_Stream_LE+0x7c>
     fb8:	a4 d1       	rcall	.+840    	; 0x1302 <Endpoint_WaitUntilReady>
			}

			if ((ErrorCode = Endpoint_WaitUntilReady()))
     fba:	88 23       	and	r24, r24
     fbc:	39 f3       	breq	.-50     	; 0xf8c <Endpoint_Write_Stream_LE+0x30>
     fbe:	0c c0       	rjmp	.+24     	; 0xfd8 <Endpoint_Write_Stream_LE+0x7c>
     fc0:	f7 01       	movw	r30, r14
     fc2:	81 91       	ld	r24, Z+
			  return ErrorCode;
		}
		else
		{
			TEMPLATE_TRANSFER_BYTE(DataStream);
     fc4:	7f 01       	movw	r14, r30
     fc6:	80 93 f1 00 	sts	0x00F1, r24
			 *  \param[in] Data  Data to write into the the currently selected endpoint's FIFO buffer.
			 */
			static inline void Endpoint_Write_8(const uint8_t Data) ATTR_ALWAYS_INLINE;
			static inline void Endpoint_Write_8(const uint8_t Data)
			{
				UEDATX = Data;
     fca:	01 50       	subi	r16, 0x01	; 1
     fcc:	11 09       	sbc	r17, r1
			TEMPLATE_BUFFER_MOVE(DataStream, 1);
			Length--;
     fce:	ff ef       	ldi	r31, 0xFF	; 255
     fd0:	cf 1a       	sub	r12, r31
			BytesInTransfer++;
     fd2:	df 0a       	sbc	r13, r31
     fd4:	db cf       	rjmp	.-74     	; 0xf8c <Endpoint_Write_Stream_LE+0x30>
     fd6:	80 e0       	ldi	r24, 0x00	; 0
     fd8:	df 91       	pop	r29
		}
	}

	return ENDPOINT_RWSTREAM_NoError;
     fda:	cf 91       	pop	r28
}
     fdc:	1f 91       	pop	r17
     fde:	0f 91       	pop	r16
     fe0:	ff 90       	pop	r15
     fe2:	ef 90       	pop	r14
     fe4:	df 90       	pop	r13
     fe6:	cf 90       	pop	r12
     fe8:	08 95       	ret

00000fea <Endpoint_Write_Control_Stream_LE>:
     fea:	20 91 e2 02 	lds	r18, 0x02E2
                            uint16_t Length)
{
	uint8_t* DataStream     = ((uint8_t*)Buffer + TEMPLATE_BUFFER_OFFSET(Length));
	bool     LastPacketFull = false;

	if (Length > USB_ControlRequest.wLength)
     fee:	30 91 e3 02 	lds	r19, 0x02E3
     ff2:	26 17       	cp	r18, r22
     ff4:	37 07       	cpc	r19, r23
     ff6:	48 f0       	brcs	.+18     	; 0x100a <Endpoint_Write_Control_Stream_LE+0x20>
	  Length = USB_ControlRequest.wLength;
	else if (!(Length))
     ff8:	61 15       	cp	r22, r1
     ffa:	71 05       	cpc	r23, r1
     ffc:	39 f4       	brne	.+14     	; 0x100c <Endpoint_Write_Control_Stream_LE+0x22>
			 */
			static inline void Endpoint_ClearIN(void) ATTR_ALWAYS_INLINE;
			static inline void Endpoint_ClearIN(void)
			{
				#if !defined(CONTROL_ONLY_DEVICE)
					UEINTX &= ~((1 << TXINI) | (1 << FIFOCON));
     ffe:	20 91 e8 00 	lds	r18, 0x00E8
    1002:	2e 77       	andi	r18, 0x7E	; 126
    1004:	20 93 e8 00 	sts	0x00E8, r18
    1008:	01 c0       	rjmp	.+2      	; 0x100c <Endpoint_Write_Control_Stream_LE+0x22>
    100a:	b9 01       	movw	r22, r18
    100c:	fc 01       	movw	r30, r24
    100e:	20 e0       	ldi	r18, 0x00	; 0
	  Endpoint_ClearIN();

	while (Length || LastPacketFull)
    1010:	61 15       	cp	r22, r1
    1012:	71 05       	cpc	r23, r1
    1014:	a9 f1       	breq	.+106    	; 0x1080 <Endpoint_Write_Control_Stream_LE+0x96>
	{
		uint8_t USB_DeviceState_LCL = USB_DeviceState;
    1016:	80 91 db 02 	lds	r24, 0x02DB

		if (USB_DeviceState_LCL == DEVICE_STATE_Unattached)
    101a:	88 23       	and	r24, r24
    101c:	e9 f1       	breq	.+122    	; 0x1098 <Endpoint_Write_Control_Stream_LE+0xae>
		  return ENDPOINT_RWCSTREAM_DeviceDisconnected;
		else if (USB_DeviceState_LCL == DEVICE_STATE_Suspended)
    101e:	85 30       	cpi	r24, 0x05	; 5
    1020:	e9 f1       	breq	.+122    	; 0x109c <Endpoint_Write_Control_Stream_LE+0xb2>
			 *  \return Boolean \c true if the selected endpoint has received a SETUP packet, \c false otherwise.
			 */
			static inline bool Endpoint_IsSETUPReceived(void) ATTR_WARN_UNUSED_RESULT ATTR_ALWAYS_INLINE;
			static inline bool Endpoint_IsSETUPReceived(void)
			{
				return ((UEINTX & (1 << RXSTPI)) ? true : false);
    1022:	80 91 e8 00 	lds	r24, 0x00E8
		  return ENDPOINT_RWCSTREAM_BusSuspended;
		else if (Endpoint_IsSETUPReceived())
    1026:	83 fd       	sbrc	r24, 3
    1028:	35 c0       	rjmp	.+106    	; 0x1094 <Endpoint_Write_Control_Stream_LE+0xaa>
			 *  \return Boolean \c true if current endpoint is has received an OUT packet, \c false otherwise.
			 */
			static inline bool Endpoint_IsOUTReceived(void) ATTR_WARN_UNUSED_RESULT ATTR_ALWAYS_INLINE;
			static inline bool Endpoint_IsOUTReceived(void)
			{
				return ((UEINTX & (1 << RXOUTI)) ? true : false);
    102a:	80 91 e8 00 	lds	r24, 0x00E8
		  return ENDPOINT_RWCSTREAM_HostAborted;
		else if (Endpoint_IsOUTReceived())
    102e:	82 ff       	sbrs	r24, 2
    1030:	06 c0       	rjmp	.+12     	; 0x103e <Endpoint_Write_Control_Stream_LE+0x54>
    1032:	80 91 e8 00 	lds	r24, 0x00E8
			LastPacketFull = (BytesInEndpoint == USB_Device_ControlEndpointSize);
			Endpoint_ClearIN();
		}
	}

	while (!(Endpoint_IsOUTReceived()))
    1036:	82 ff       	sbrs	r24, 2
    1038:	26 c0       	rjmp	.+76     	; 0x1086 <Endpoint_Write_Control_Stream_LE+0x9c>
		  return ENDPOINT_RWCSTREAM_DeviceDisconnected;
		else if (USB_DeviceState_LCL == DEVICE_STATE_Suspended)
		  return ENDPOINT_RWCSTREAM_BusSuspended;
	}

	return ENDPOINT_RWCSTREAM_NoError;
    103a:	80 e0       	ldi	r24, 0x00	; 0
    103c:	08 95       	ret
			 *  \return Boolean \c true if the current endpoint is ready for an IN packet, \c false otherwise.
			 */
			static inline bool Endpoint_IsINReady(void) ATTR_WARN_UNUSED_RESULT ATTR_ALWAYS_INLINE;
			static inline bool Endpoint_IsINReady(void)
			{
				return ((UEINTX & (1 << TXINI)) ? true : false);
    103e:	80 91 e8 00 	lds	r24, 0x00E8
		else if (Endpoint_IsSETUPReceived())
		  return ENDPOINT_RWCSTREAM_HostAborted;
		else if (Endpoint_IsOUTReceived())
		  break;

		if (Endpoint_IsINReady())
    1042:	80 ff       	sbrs	r24, 0
    1044:	e5 cf       	rjmp	.-54     	; 0x1010 <Endpoint_Write_Control_Stream_LE+0x26>
			static inline uint16_t Endpoint_BytesInEndpoint(void)
			{
				#if (defined(USB_SERIES_6_AVR) || defined(USB_SERIES_7_AVR))
					return UEBCX;
				#elif defined(USB_SERIES_4_AVR)
					return (((uint16_t)UEBCHX << 8) | UEBCLX);
    1046:	20 91 f3 00 	lds	r18, 0x00F3
    104a:	80 91 f2 00 	lds	r24, 0x00F2
    104e:	90 e0       	ldi	r25, 0x00	; 0
    1050:	92 2b       	or	r25, r18
		{
			uint16_t BytesInEndpoint = Endpoint_BytesInEndpoint();

			while (Length && (BytesInEndpoint < USB_Device_ControlEndpointSize))
    1052:	61 15       	cp	r22, r1
    1054:	71 05       	cpc	r23, r1
    1056:	51 f0       	breq	.+20     	; 0x106c <Endpoint_Write_Control_Stream_LE+0x82>
    1058:	88 30       	cpi	r24, 0x08	; 8
    105a:	91 05       	cpc	r25, r1
    105c:	38 f4       	brcc	.+14     	; 0x106c <Endpoint_Write_Control_Stream_LE+0x82>
			{
				TEMPLATE_TRANSFER_BYTE(DataStream);
    105e:	21 91       	ld	r18, Z+
			 *  \param[in] Data  Data to write into the the currently selected endpoint's FIFO buffer.
			 */
			static inline void Endpoint_Write_8(const uint8_t Data) ATTR_ALWAYS_INLINE;
			static inline void Endpoint_Write_8(const uint8_t Data)
			{
				UEDATX = Data;
    1060:	20 93 f1 00 	sts	0x00F1, r18
				TEMPLATE_BUFFER_MOVE(DataStream, 1);
				Length--;
    1064:	61 50       	subi	r22, 0x01	; 1
    1066:	71 09       	sbc	r23, r1
				BytesInEndpoint++;
    1068:	01 96       	adiw	r24, 0x01	; 1
    106a:	f3 cf       	rjmp	.-26     	; 0x1052 <Endpoint_Write_Control_Stream_LE+0x68>
			}

			LastPacketFull = (BytesInEndpoint == USB_Device_ControlEndpointSize);
    106c:	21 e0       	ldi	r18, 0x01	; 1
    106e:	08 97       	sbiw	r24, 0x08	; 8
    1070:	09 f0       	breq	.+2      	; 0x1074 <Endpoint_Write_Control_Stream_LE+0x8a>
    1072:	20 e0       	ldi	r18, 0x00	; 0
			 */
			static inline void Endpoint_ClearIN(void) ATTR_ALWAYS_INLINE;
			static inline void Endpoint_ClearIN(void)
			{
				#if !defined(CONTROL_ONLY_DEVICE)
					UEINTX &= ~((1 << TXINI) | (1 << FIFOCON));
    1074:	80 91 e8 00 	lds	r24, 0x00E8
    1078:	8e 77       	andi	r24, 0x7E	; 126
    107a:	80 93 e8 00 	sts	0x00E8, r24
    107e:	c8 cf       	rjmp	.-112    	; 0x1010 <Endpoint_Write_Control_Stream_LE+0x26>
	if (Length > USB_ControlRequest.wLength)
	  Length = USB_ControlRequest.wLength;
	else if (!(Length))
	  Endpoint_ClearIN();

	while (Length || LastPacketFull)
    1080:	21 11       	cpse	r18, r1
    1082:	c9 cf       	rjmp	.-110    	; 0x1016 <Endpoint_Write_Control_Stream_LE+0x2c>
    1084:	d6 cf       	rjmp	.-84     	; 0x1032 <Endpoint_Write_Control_Stream_LE+0x48>
		}
	}

	while (!(Endpoint_IsOUTReceived()))
	{
		uint8_t USB_DeviceState_LCL = USB_DeviceState;
    1086:	80 91 db 02 	lds	r24, 0x02DB

		if (USB_DeviceState_LCL == DEVICE_STATE_Unattached)
    108a:	88 23       	and	r24, r24
    108c:	29 f0       	breq	.+10     	; 0x1098 <Endpoint_Write_Control_Stream_LE+0xae>
		  return ENDPOINT_RWCSTREAM_DeviceDisconnected;
		else if (USB_DeviceState_LCL == DEVICE_STATE_Suspended)
    108e:	85 30       	cpi	r24, 0x05	; 5
    1090:	81 f6       	brne	.-96     	; 0x1032 <Endpoint_Write_Control_Stream_LE+0x48>
    1092:	04 c0       	rjmp	.+8      	; 0x109c <Endpoint_Write_Control_Stream_LE+0xb2>
		if (USB_DeviceState_LCL == DEVICE_STATE_Unattached)
		  return ENDPOINT_RWCSTREAM_DeviceDisconnected;
		else if (USB_DeviceState_LCL == DEVICE_STATE_Suspended)
		  return ENDPOINT_RWCSTREAM_BusSuspended;
		else if (Endpoint_IsSETUPReceived())
		  return ENDPOINT_RWCSTREAM_HostAborted;
    1094:	81 e0       	ldi	r24, 0x01	; 1
    1096:	08 95       	ret
	while (Length || LastPacketFull)
	{
		uint8_t USB_DeviceState_LCL = USB_DeviceState;

		if (USB_DeviceState_LCL == DEVICE_STATE_Unattached)
		  return ENDPOINT_RWCSTREAM_DeviceDisconnected;
    1098:	82 e0       	ldi	r24, 0x02	; 2
    109a:	08 95       	ret
		else if (USB_DeviceState_LCL == DEVICE_STATE_Suspended)
		  return ENDPOINT_RWCSTREAM_BusSuspended;
    109c:	83 e0       	ldi	r24, 0x03	; 3
		else if (USB_DeviceState_LCL == DEVICE_STATE_Suspended)
		  return ENDPOINT_RWCSTREAM_BusSuspended;
	}

	return ENDPOINT_RWCSTREAM_NoError;
}
    109e:	08 95       	ret

000010a0 <Endpoint_Read_Control_Stream_LE>:
uint8_t TEMPLATE_FUNC_NAME (void* const Buffer,
                            uint16_t Length)
{
	uint8_t* DataStream = ((uint8_t*)Buffer + TEMPLATE_BUFFER_OFFSET(Length));

	if (!(Length))
    10a0:	61 15       	cp	r22, r1
    10a2:	71 05       	cpc	r23, r1
    10a4:	29 f4       	brne	.+10     	; 0x10b0 <Endpoint_Read_Control_Stream_LE+0x10>
			 */
			static inline void Endpoint_ClearOUT(void) ATTR_ALWAYS_INLINE;
			static inline void Endpoint_ClearOUT(void)
			{
				#if !defined(CONTROL_ONLY_DEVICE)
					UEINTX &= ~((1 << RXOUTI) | (1 << FIFOCON));
    10a6:	20 91 e8 00 	lds	r18, 0x00E8
    10aa:	2b 77       	andi	r18, 0x7B	; 123
    10ac:	20 93 e8 00 	sts	0x00E8, r18
	  Endpoint_ClearOUT();

	while (Length)
    10b0:	61 15       	cp	r22, r1
    10b2:	71 05       	cpc	r23, r1
    10b4:	41 f1       	breq	.+80     	; 0x1106 <Endpoint_Read_Control_Stream_LE+0x66>
	{
		uint8_t USB_DeviceState_LCL = USB_DeviceState;
    10b6:	20 91 db 02 	lds	r18, 0x02DB

		if (USB_DeviceState_LCL == DEVICE_STATE_Unattached)
    10ba:	22 23       	and	r18, r18
    10bc:	69 f1       	breq	.+90     	; 0x1118 <Endpoint_Read_Control_Stream_LE+0x78>
		  return ENDPOINT_RWCSTREAM_DeviceDisconnected;
		else if (USB_DeviceState_LCL == DEVICE_STATE_Suspended)
    10be:	25 30       	cpi	r18, 0x05	; 5
    10c0:	69 f1       	breq	.+90     	; 0x111c <Endpoint_Read_Control_Stream_LE+0x7c>
			 *  \return Boolean \c true if the selected endpoint has received a SETUP packet, \c false otherwise.
			 */
			static inline bool Endpoint_IsSETUPReceived(void) ATTR_WARN_UNUSED_RESULT ATTR_ALWAYS_INLINE;
			static inline bool Endpoint_IsSETUPReceived(void)
			{
				return ((UEINTX & (1 << RXSTPI)) ? true : false);
    10c2:	20 91 e8 00 	lds	r18, 0x00E8
		  return ENDPOINT_RWCSTREAM_BusSuspended;
		else if (Endpoint_IsSETUPReceived())
    10c6:	23 fd       	sbrc	r18, 3
    10c8:	23 c0       	rjmp	.+70     	; 0x1110 <Endpoint_Read_Control_Stream_LE+0x70>
			 *  \return Boolean \c true if current endpoint is has received an OUT packet, \c false otherwise.
			 */
			static inline bool Endpoint_IsOUTReceived(void) ATTR_WARN_UNUSED_RESULT ATTR_ALWAYS_INLINE;
			static inline bool Endpoint_IsOUTReceived(void)
			{
				return ((UEINTX & (1 << RXOUTI)) ? true : false);
    10ca:	20 91 e8 00 	lds	r18, 0x00E8
		  return ENDPOINT_RWCSTREAM_HostAborted;

		if (Endpoint_IsOUTReceived())
    10ce:	22 ff       	sbrs	r18, 2
    10d0:	f2 cf       	rjmp	.-28     	; 0x10b6 <Endpoint_Read_Control_Stream_LE+0x16>
    10d2:	fc 01       	movw	r30, r24
    10d4:	cf 01       	movw	r24, r30
			static inline uint16_t Endpoint_BytesInEndpoint(void)
			{
				#if (defined(USB_SERIES_6_AVR) || defined(USB_SERIES_7_AVR))
					return UEBCX;
				#elif defined(USB_SERIES_4_AVR)
					return (((uint16_t)UEBCHX << 8) | UEBCLX);
    10d6:	40 91 f3 00 	lds	r20, 0x00F3
    10da:	20 91 f2 00 	lds	r18, 0x00F2
    10de:	30 e0       	ldi	r19, 0x00	; 0
    10e0:	34 2b       	or	r19, r20
		{
			while (Length && Endpoint_BytesInEndpoint())
    10e2:	23 2b       	or	r18, r19
    10e4:	01 f3       	breq	.-64     	; 0x10a6 <Endpoint_Read_Control_Stream_LE+0x6>
			 *  \return Next byte in the currently selected endpoint's FIFO buffer.
			 */
			static inline uint8_t Endpoint_Read_8(void) ATTR_WARN_UNUSED_RESULT ATTR_ALWAYS_INLINE;
			static inline uint8_t Endpoint_Read_8(void)
			{
				return UEDATX;
    10e6:	80 91 f1 00 	lds	r24, 0x00F1
			{
				TEMPLATE_TRANSFER_BYTE(DataStream);
    10ea:	81 93       	st	Z+, r24
				TEMPLATE_BUFFER_MOVE(DataStream, 1);
    10ec:	cf 01       	movw	r24, r30
				Length--;
    10ee:	61 50       	subi	r22, 0x01	; 1
    10f0:	71 09       	sbc	r23, r1
		else if (Endpoint_IsSETUPReceived())
		  return ENDPOINT_RWCSTREAM_HostAborted;

		if (Endpoint_IsOUTReceived())
		{
			while (Length && Endpoint_BytesInEndpoint())
    10f2:	61 15       	cp	r22, r1
    10f4:	71 05       	cpc	r23, r1
    10f6:	71 f7       	brne	.-36     	; 0x10d4 <Endpoint_Read_Control_Stream_LE+0x34>
    10f8:	d6 cf       	rjmp	.-84     	; 0x10a6 <Endpoint_Read_Control_Stream_LE+0x6>
		}
	}

	while (!(Endpoint_IsINReady()))
	{
		uint8_t USB_DeviceState_LCL = USB_DeviceState;
    10fa:	80 91 db 02 	lds	r24, 0x02DB

		if (USB_DeviceState_LCL == DEVICE_STATE_Unattached)
    10fe:	88 23       	and	r24, r24
    1100:	59 f0       	breq	.+22     	; 0x1118 <Endpoint_Read_Control_Stream_LE+0x78>
		  return ENDPOINT_RWCSTREAM_DeviceDisconnected;
		else if (USB_DeviceState_LCL == DEVICE_STATE_Suspended)
    1102:	85 30       	cpi	r24, 0x05	; 5
    1104:	59 f0       	breq	.+22     	; 0x111c <Endpoint_Read_Control_Stream_LE+0x7c>
			 *  \return Boolean \c true if the current endpoint is ready for an IN packet, \c false otherwise.
			 */
			static inline bool Endpoint_IsINReady(void) ATTR_WARN_UNUSED_RESULT ATTR_ALWAYS_INLINE;
			static inline bool Endpoint_IsINReady(void)
			{
				return ((UEINTX & (1 << TXINI)) ? true : false);
    1106:	80 91 e8 00 	lds	r24, 0x00E8

			Endpoint_ClearOUT();
		}
	}

	while (!(Endpoint_IsINReady()))
    110a:	80 ff       	sbrs	r24, 0
    110c:	f6 cf       	rjmp	.-20     	; 0x10fa <Endpoint_Read_Control_Stream_LE+0x5a>
    110e:	02 c0       	rjmp	.+4      	; 0x1114 <Endpoint_Read_Control_Stream_LE+0x74>
		if (USB_DeviceState_LCL == DEVICE_STATE_Unattached)
		  return ENDPOINT_RWCSTREAM_DeviceDisconnected;
		else if (USB_DeviceState_LCL == DEVICE_STATE_Suspended)
		  return ENDPOINT_RWCSTREAM_BusSuspended;
		else if (Endpoint_IsSETUPReceived())
		  return ENDPOINT_RWCSTREAM_HostAborted;
    1110:	81 e0       	ldi	r24, 0x01	; 1
    1112:	08 95       	ret
		  return ENDPOINT_RWCSTREAM_DeviceDisconnected;
		else if (USB_DeviceState_LCL == DEVICE_STATE_Suspended)
		  return ENDPOINT_RWCSTREAM_BusSuspended;
	}

	return ENDPOINT_RWCSTREAM_NoError;
    1114:	80 e0       	ldi	r24, 0x00	; 0
    1116:	08 95       	ret
	while (Length)
	{
		uint8_t USB_DeviceState_LCL = USB_DeviceState;

		if (USB_DeviceState_LCL == DEVICE_STATE_Unattached)
		  return ENDPOINT_RWCSTREAM_DeviceDisconnected;
    1118:	82 e0       	ldi	r24, 0x02	; 2
    111a:	08 95       	ret
		else if (USB_DeviceState_LCL == DEVICE_STATE_Suspended)
		  return ENDPOINT_RWCSTREAM_BusSuspended;
    111c:	83 e0       	ldi	r24, 0x03	; 3
		else if (USB_DeviceState_LCL == DEVICE_STATE_Suspended)
		  return ENDPOINT_RWCSTREAM_BusSuspended;
	}

	return ENDPOINT_RWCSTREAM_NoError;
}
    111e:	08 95       	ret

00001120 <Endpoint_Write_Control_PStream_LE>:
                            uint16_t Length)
{
	uint8_t* DataStream     = ((uint8_t*)Buffer + TEMPLATE_BUFFER_OFFSET(Length));
	bool     LastPacketFull = false;

	if (Length > USB_ControlRequest.wLength)
    1120:	20 91 e2 02 	lds	r18, 0x02E2
    1124:	30 91 e3 02 	lds	r19, 0x02E3
    1128:	26 17       	cp	r18, r22
    112a:	37 07       	cpc	r19, r23
    112c:	48 f0       	brcs	.+18     	; 0x1140 <Endpoint_Write_Control_PStream_LE+0x20>
	  Length = USB_ControlRequest.wLength;
	else if (!(Length))
    112e:	61 15       	cp	r22, r1
    1130:	71 05       	cpc	r23, r1
    1132:	39 f4       	brne	.+14     	; 0x1142 <Endpoint_Write_Control_PStream_LE+0x22>
			 */
			static inline void Endpoint_ClearIN(void) ATTR_ALWAYS_INLINE;
			static inline void Endpoint_ClearIN(void)
			{
				#if !defined(CONTROL_ONLY_DEVICE)
					UEINTX &= ~((1 << TXINI) | (1 << FIFOCON));
    1134:	20 91 e8 00 	lds	r18, 0x00E8
    1138:	2e 77       	andi	r18, 0x7E	; 126
    113a:	20 93 e8 00 	sts	0x00E8, r18
    113e:	01 c0       	rjmp	.+2      	; 0x1142 <Endpoint_Write_Control_PStream_LE+0x22>
    1140:	b9 01       	movw	r22, r18
    1142:	fc 01       	movw	r30, r24
    1144:	20 e0       	ldi	r18, 0x00	; 0
	  Endpoint_ClearIN();

	while (Length || LastPacketFull)
    1146:	61 15       	cp	r22, r1
    1148:	71 05       	cpc	r23, r1
    114a:	c1 f1       	breq	.+112    	; 0x11bc <Endpoint_Write_Control_PStream_LE+0x9c>
	{
		uint8_t USB_DeviceState_LCL = USB_DeviceState;
    114c:	80 91 db 02 	lds	r24, 0x02DB

		if (USB_DeviceState_LCL == DEVICE_STATE_Unattached)
    1150:	88 23       	and	r24, r24
    1152:	09 f4       	brne	.+2      	; 0x1156 <Endpoint_Write_Control_PStream_LE+0x36>
    1154:	3f c0       	rjmp	.+126    	; 0x11d4 <Endpoint_Write_Control_PStream_LE+0xb4>
		  return ENDPOINT_RWCSTREAM_DeviceDisconnected;
		else if (USB_DeviceState_LCL == DEVICE_STATE_Suspended)
    1156:	85 30       	cpi	r24, 0x05	; 5
    1158:	09 f4       	brne	.+2      	; 0x115c <Endpoint_Write_Control_PStream_LE+0x3c>
    115a:	3e c0       	rjmp	.+124    	; 0x11d8 <Endpoint_Write_Control_PStream_LE+0xb8>
			 *  \return Boolean \c true if the selected endpoint has received a SETUP packet, \c false otherwise.
			 */
			static inline bool Endpoint_IsSETUPReceived(void) ATTR_WARN_UNUSED_RESULT ATTR_ALWAYS_INLINE;
			static inline bool Endpoint_IsSETUPReceived(void)
			{
				return ((UEINTX & (1 << RXSTPI)) ? true : false);
    115c:	80 91 e8 00 	lds	r24, 0x00E8
		  return ENDPOINT_RWCSTREAM_BusSuspended;
		else if (Endpoint_IsSETUPReceived())
    1160:	83 fd       	sbrc	r24, 3
    1162:	36 c0       	rjmp	.+108    	; 0x11d0 <Endpoint_Write_Control_PStream_LE+0xb0>
			 *  \return Boolean \c true if current endpoint is has received an OUT packet, \c false otherwise.
			 */
			static inline bool Endpoint_IsOUTReceived(void) ATTR_WARN_UNUSED_RESULT ATTR_ALWAYS_INLINE;
			static inline bool Endpoint_IsOUTReceived(void)
			{
				return ((UEINTX & (1 << RXOUTI)) ? true : false);
    1164:	80 91 e8 00 	lds	r24, 0x00E8
		  return ENDPOINT_RWCSTREAM_HostAborted;
		else if (Endpoint_IsOUTReceived())
    1168:	82 ff       	sbrs	r24, 2
    116a:	06 c0       	rjmp	.+12     	; 0x1178 <Endpoint_Write_Control_PStream_LE+0x58>
    116c:	80 91 e8 00 	lds	r24, 0x00E8
			LastPacketFull = (BytesInEndpoint == USB_Device_ControlEndpointSize);
			Endpoint_ClearIN();
		}
	}

	while (!(Endpoint_IsOUTReceived()))
    1170:	82 ff       	sbrs	r24, 2
    1172:	27 c0       	rjmp	.+78     	; 0x11c2 <Endpoint_Write_Control_PStream_LE+0xa2>
		  return ENDPOINT_RWCSTREAM_DeviceDisconnected;
		else if (USB_DeviceState_LCL == DEVICE_STATE_Suspended)
		  return ENDPOINT_RWCSTREAM_BusSuspended;
	}

	return ENDPOINT_RWCSTREAM_NoError;
    1174:	80 e0       	ldi	r24, 0x00	; 0
    1176:	08 95       	ret
			 *  \return Boolean \c true if the current endpoint is ready for an IN packet, \c false otherwise.
			 */
			static inline bool Endpoint_IsINReady(void) ATTR_WARN_UNUSED_RESULT ATTR_ALWAYS_INLINE;
			static inline bool Endpoint_IsINReady(void)
			{
				return ((UEINTX & (1 << TXINI)) ? true : false);
    1178:	80 91 e8 00 	lds	r24, 0x00E8
		else if (Endpoint_IsSETUPReceived())
		  return ENDPOINT_RWCSTREAM_HostAborted;
		else if (Endpoint_IsOUTReceived())
		  break;

		if (Endpoint_IsINReady())
    117c:	80 ff       	sbrs	r24, 0
    117e:	e3 cf       	rjmp	.-58     	; 0x1146 <Endpoint_Write_Control_PStream_LE+0x26>
			static inline uint16_t Endpoint_BytesInEndpoint(void)
			{
				#if (defined(USB_SERIES_6_AVR) || defined(USB_SERIES_7_AVR))
					return UEBCX;
				#elif defined(USB_SERIES_4_AVR)
					return (((uint16_t)UEBCHX << 8) | UEBCLX);
    1180:	20 91 f3 00 	lds	r18, 0x00F3
    1184:	80 91 f2 00 	lds	r24, 0x00F2
    1188:	90 e0       	ldi	r25, 0x00	; 0
    118a:	92 2b       	or	r25, r18
		{
			uint16_t BytesInEndpoint = Endpoint_BytesInEndpoint();

			while (Length && (BytesInEndpoint < USB_Device_ControlEndpointSize))
    118c:	61 15       	cp	r22, r1
    118e:	71 05       	cpc	r23, r1
    1190:	59 f0       	breq	.+22     	; 0x11a8 <Endpoint_Write_Control_PStream_LE+0x88>
    1192:	88 30       	cpi	r24, 0x08	; 8
    1194:	91 05       	cpc	r25, r1
    1196:	40 f4       	brcc	.+16     	; 0x11a8 <Endpoint_Write_Control_PStream_LE+0x88>
			{
				TEMPLATE_TRANSFER_BYTE(DataStream);
    1198:	24 91       	lpm	r18, Z
			 *  \param[in] Data  Data to write into the the currently selected endpoint's FIFO buffer.
			 */
			static inline void Endpoint_Write_8(const uint8_t Data) ATTR_ALWAYS_INLINE;
			static inline void Endpoint_Write_8(const uint8_t Data)
			{
				UEDATX = Data;
    119a:	20 93 f1 00 	sts	0x00F1, r18
				TEMPLATE_BUFFER_MOVE(DataStream, 1);
    119e:	31 96       	adiw	r30, 0x01	; 1
				Length--;
    11a0:	61 50       	subi	r22, 0x01	; 1
    11a2:	71 09       	sbc	r23, r1
				BytesInEndpoint++;
    11a4:	01 96       	adiw	r24, 0x01	; 1
    11a6:	f2 cf       	rjmp	.-28     	; 0x118c <Endpoint_Write_Control_PStream_LE+0x6c>
			}

			LastPacketFull = (BytesInEndpoint == USB_Device_ControlEndpointSize);
    11a8:	21 e0       	ldi	r18, 0x01	; 1
    11aa:	08 97       	sbiw	r24, 0x08	; 8
    11ac:	09 f0       	breq	.+2      	; 0x11b0 <Endpoint_Write_Control_PStream_LE+0x90>
    11ae:	20 e0       	ldi	r18, 0x00	; 0
			 */
			static inline void Endpoint_ClearIN(void) ATTR_ALWAYS_INLINE;
			static inline void Endpoint_ClearIN(void)
			{
				#if !defined(CONTROL_ONLY_DEVICE)
					UEINTX &= ~((1 << TXINI) | (1 << FIFOCON));
    11b0:	80 91 e8 00 	lds	r24, 0x00E8
    11b4:	8e 77       	andi	r24, 0x7E	; 126
    11b6:	80 93 e8 00 	sts	0x00E8, r24
    11ba:	c5 cf       	rjmp	.-118    	; 0x1146 <Endpoint_Write_Control_PStream_LE+0x26>
	if (Length > USB_ControlRequest.wLength)
	  Length = USB_ControlRequest.wLength;
	else if (!(Length))
	  Endpoint_ClearIN();

	while (Length || LastPacketFull)
    11bc:	21 11       	cpse	r18, r1
    11be:	c6 cf       	rjmp	.-116    	; 0x114c <Endpoint_Write_Control_PStream_LE+0x2c>
    11c0:	d5 cf       	rjmp	.-86     	; 0x116c <Endpoint_Write_Control_PStream_LE+0x4c>
		}
	}

	while (!(Endpoint_IsOUTReceived()))
	{
		uint8_t USB_DeviceState_LCL = USB_DeviceState;
    11c2:	80 91 db 02 	lds	r24, 0x02DB

		if (USB_DeviceState_LCL == DEVICE_STATE_Unattached)
    11c6:	88 23       	and	r24, r24
    11c8:	29 f0       	breq	.+10     	; 0x11d4 <Endpoint_Write_Control_PStream_LE+0xb4>
		  return ENDPOINT_RWCSTREAM_DeviceDisconnected;
		else if (USB_DeviceState_LCL == DEVICE_STATE_Suspended)
    11ca:	85 30       	cpi	r24, 0x05	; 5
    11cc:	79 f6       	brne	.-98     	; 0x116c <Endpoint_Write_Control_PStream_LE+0x4c>
    11ce:	04 c0       	rjmp	.+8      	; 0x11d8 <Endpoint_Write_Control_PStream_LE+0xb8>
		if (USB_DeviceState_LCL == DEVICE_STATE_Unattached)
		  return ENDPOINT_RWCSTREAM_DeviceDisconnected;
		else if (USB_DeviceState_LCL == DEVICE_STATE_Suspended)
		  return ENDPOINT_RWCSTREAM_BusSuspended;
		else if (Endpoint_IsSETUPReceived())
		  return ENDPOINT_RWCSTREAM_HostAborted;
    11d0:	81 e0       	ldi	r24, 0x01	; 1
    11d2:	08 95       	ret
	while (Length || LastPacketFull)
	{
		uint8_t USB_DeviceState_LCL = USB_DeviceState;

		if (USB_DeviceState_LCL == DEVICE_STATE_Unattached)
		  return ENDPOINT_RWCSTREAM_DeviceDisconnected;
    11d4:	82 e0       	ldi	r24, 0x02	; 2
    11d6:	08 95       	ret
		else if (USB_DeviceState_LCL == DEVICE_STATE_Suspended)
		  return ENDPOINT_RWCSTREAM_BusSuspended;
    11d8:	83 e0       	ldi	r24, 0x03	; 3
		else if (USB_DeviceState_LCL == DEVICE_STATE_Suspended)
		  return ENDPOINT_RWCSTREAM_BusSuspended;
	}

	return ENDPOINT_RWCSTREAM_NoError;
}
    11da:	08 95       	ret

000011dc <Endpoint_ConfigureEndpoint_Prv>:
	UECFG0X = UECFG0XData;
	UECFG1X = UECFG1XData;

	return Endpoint_IsConfigured();
#else
	for (uint8_t EPNum = Number; EPNum < ENDPOINT_TOTAL_ENDPOINTS; EPNum++)
    11dc:	98 2f       	mov	r25, r24
    11de:	97 30       	cpi	r25, 0x07	; 7
    11e0:	58 f5       	brcc	.+86     	; 0x1238 <Endpoint_ConfigureEndpoint_Prv+0x5c>
			 */
			static inline void Endpoint_SelectEndpoint(const uint8_t Address) ATTR_ALWAYS_INLINE;
			static inline void Endpoint_SelectEndpoint(const uint8_t Address)
			{
				#if !defined(CONTROL_ONLY_DEVICE)
					UENUM = (Address & ENDPOINT_EPNUM_MASK);
    11e2:	90 93 e9 00 	sts	0x00E9, r25
		uint8_t UECFG1XTemp;
		uint8_t UEIENXTemp;

		Endpoint_SelectEndpoint(EPNum);

		if (EPNum == Number)
    11e6:	98 17       	cp	r25, r24
    11e8:	39 f0       	breq	.+14     	; 0x11f8 <Endpoint_ConfigureEndpoint_Prv+0x1c>
			UECFG1XTemp = UECFG1XData;
			UEIENXTemp  = 0;
		}
		else
		{
			UECFG0XTemp = UECFG0X;
    11ea:	70 91 ec 00 	lds	r23, 0x00EC
			UECFG1XTemp = UECFG1X;
    11ee:	20 91 ed 00 	lds	r18, 0x00ED
			UEIENXTemp  = UEIENX;
    11f2:	50 91 f0 00 	lds	r21, 0x00F0
    11f6:	03 c0       	rjmp	.+6      	; 0x11fe <Endpoint_ConfigureEndpoint_Prv+0x22>
		Endpoint_SelectEndpoint(EPNum);

		if (EPNum == Number)
		{
			UECFG0XTemp = UECFG0XData;
			UECFG1XTemp = UECFG1XData;
    11f8:	24 2f       	mov	r18, r20

		Endpoint_SelectEndpoint(EPNum);

		if (EPNum == Number)
		{
			UECFG0XTemp = UECFG0XData;
    11fa:	76 2f       	mov	r23, r22
			UECFG1XTemp = UECFG1XData;
			UEIENXTemp  = 0;
    11fc:	50 e0       	ldi	r21, 0x00	; 0
			UECFG0XTemp = UECFG0X;
			UECFG1XTemp = UECFG1X;
			UEIENXTemp  = UEIENX;
		}

		if (!(UECFG1XTemp & (1 << ALLOC)))
    11fe:	21 ff       	sbrs	r18, 1
    1200:	19 c0       	rjmp	.+50     	; 0x1234 <Endpoint_ConfigureEndpoint_Prv+0x58>
			 *  to and from a host.
			 */
			static inline void Endpoint_DisableEndpoint(void) ATTR_ALWAYS_INLINE;
			static inline void Endpoint_DisableEndpoint(void)
			{
				UECONX &= ~(1 << EPEN);
    1202:	30 91 eb 00 	lds	r19, 0x00EB
    1206:	3e 7f       	andi	r19, 0xFE	; 254
    1208:	30 93 eb 00 	sts	0x00EB, r19
		  continue;

		Endpoint_DisableEndpoint();
		UECFG1X &= ~(1 << ALLOC);
    120c:	30 91 ed 00 	lds	r19, 0x00ED
    1210:	3d 7f       	andi	r19, 0xFD	; 253
    1212:	30 93 ed 00 	sts	0x00ED, r19
			 *  \note Endpoints must first be configured properly via \ref Endpoint_ConfigureEndpoint().
			 */
			static inline void Endpoint_EnableEndpoint(void) ATTR_ALWAYS_INLINE;
			static inline void Endpoint_EnableEndpoint(void)
			{
				UECONX |= (1 << EPEN);
    1216:	30 91 eb 00 	lds	r19, 0x00EB
    121a:	31 60       	ori	r19, 0x01	; 1
    121c:	30 93 eb 00 	sts	0x00EB, r19

		Endpoint_EnableEndpoint();
		UECFG0X = UECFG0XTemp;
    1220:	70 93 ec 00 	sts	0x00EC, r23
		UECFG1X = UECFG1XTemp;
    1224:	20 93 ed 00 	sts	0x00ED, r18
		UEIENX  = UEIENXTemp;
    1228:	50 93 f0 00 	sts	0x00F0, r21
			 *  \return Boolean \c true if the currently selected endpoint has been configured, \c false otherwise.
			 */
			static inline bool Endpoint_IsConfigured(void) ATTR_WARN_UNUSED_RESULT ATTR_ALWAYS_INLINE;
			static inline bool Endpoint_IsConfigured(void)
			{
				return ((UESTA0X & (1 << CFGOK)) ? true : false);
    122c:	20 91 ee 00 	lds	r18, 0x00EE

		if (!(Endpoint_IsConfigured()))
    1230:	27 ff       	sbrs	r18, 7
    1232:	07 c0       	rjmp	.+14     	; 0x1242 <Endpoint_ConfigureEndpoint_Prv+0x66>
	UECFG0X = UECFG0XData;
	UECFG1X = UECFG1XData;

	return Endpoint_IsConfigured();
#else
	for (uint8_t EPNum = Number; EPNum < ENDPOINT_TOTAL_ENDPOINTS; EPNum++)
    1234:	9f 5f       	subi	r25, 0xFF	; 255
    1236:	d3 cf       	rjmp	.-90     	; 0x11de <Endpoint_ConfigureEndpoint_Prv+0x2>
			 */
			static inline void Endpoint_SelectEndpoint(const uint8_t Address) ATTR_ALWAYS_INLINE;
			static inline void Endpoint_SelectEndpoint(const uint8_t Address)
			{
				#if !defined(CONTROL_ONLY_DEVICE)
					UENUM = (Address & ENDPOINT_EPNUM_MASK);
    1238:	8f 70       	andi	r24, 0x0F	; 15
    123a:	80 93 e9 00 	sts	0x00E9, r24
		if (!(Endpoint_IsConfigured()))
		  return false;
	}

	Endpoint_SelectEndpoint(Number);
	return true;
    123e:	81 e0       	ldi	r24, 0x01	; 1
    1240:	08 95       	ret
		UECFG0X = UECFG0XTemp;
		UECFG1X = UECFG1XTemp;
		UEIENX  = UEIENXTemp;

		if (!(Endpoint_IsConfigured()))
		  return false;
    1242:	80 e0       	ldi	r24, 0x00	; 0
	}

	Endpoint_SelectEndpoint(Number);
	return true;
#endif
}
    1244:	08 95       	ret

00001246 <Endpoint_ConfigureEndpointTable>:
uint8_t USB_Device_ControlEndpointSize = ENDPOINT_CONTROLEP_DEFAULT_SIZE;
#endif

bool Endpoint_ConfigureEndpointTable(const USB_Endpoint_Table_t* const Table,
                                     const uint8_t Entries)
{
    1246:	0f 93       	push	r16
    1248:	1f 93       	push	r17
    124a:	cf 93       	push	r28
    124c:	df 93       	push	r29
    124e:	06 2f       	mov	r16, r22
    1250:	ec 01       	movw	r28, r24
	for (uint8_t i = 0; i < Entries; i++)
    1252:	10 e0       	ldi	r17, 0x00	; 0
    1254:	10 17       	cp	r17, r16
    1256:	71 f1       	breq	.+92     	; 0x12b4 <Endpoint_ConfigureEndpointTable+0x6e>
	{
		if (!(Table[i].Address))
    1258:	98 81       	ld	r25, Y
    125a:	99 23       	and	r25, r25
    125c:	41 f1       	breq	.+80     	; 0x12ae <Endpoint_ConfigureEndpointTable+0x68>
		  continue;
	
		if (!(Endpoint_ConfigureEndpoint(Table[i].Address, Table[i].Type, Table[i].Size, Table[i].Banks)))
    125e:	2c 81       	ldd	r18, Y+4	; 0x04
    1260:	e9 81       	ldd	r30, Y+1	; 0x01
    1262:	fa 81       	ldd	r31, Y+2	; 0x02
    1264:	7b 81       	ldd	r23, Y+3	; 0x03
			static inline bool Endpoint_ConfigureEndpoint(const uint8_t Address,
			                                              const uint8_t Type,
			                                              const uint16_t Size,
			                                              const uint8_t Banks)
			{
				uint8_t Number = (Address & ENDPOINT_EPNUM_MASK);
    1266:	89 2f       	mov	r24, r25
    1268:	8f 70       	andi	r24, 0x0F	; 15

				if (Number >= ENDPOINT_TOTAL_ENDPOINTS)
    126a:	87 30       	cpi	r24, 0x07	; 7
    126c:	10 f0       	brcs	.+4      	; 0x1272 <Endpoint_ConfigureEndpointTable+0x2c>
		  return false;
    126e:	80 e0       	ldi	r24, 0x00	; 0
    1270:	22 c0       	rjmp	.+68     	; 0x12b6 <Endpoint_ConfigureEndpointTable+0x70>
				  return false;

				return Endpoint_ConfigureEndpoint_Prv(Number,
    1272:	22 30       	cpi	r18, 0x02	; 2
    1274:	10 f0       	brcs	.+4      	; 0x127a <Endpoint_ConfigureEndpointTable+0x34>
    1276:	56 e0       	ldi	r21, 0x06	; 6
    1278:	01 c0       	rjmp	.+2      	; 0x127c <Endpoint_ConfigureEndpointTable+0x36>
    127a:	52 e0       	ldi	r21, 0x02	; 2
			static inline uint8_t Endpoint_BytesToEPSizeMask(const uint16_t Bytes) ATTR_WARN_UNUSED_RESULT ATTR_CONST
			                                                                       ATTR_ALWAYS_INLINE;
			static inline uint8_t Endpoint_BytesToEPSizeMask(const uint16_t Bytes)
			{
				uint8_t  MaskVal    = 0;
				uint16_t CheckBytes = 8;
    127c:	28 e0       	ldi	r18, 0x08	; 8
    127e:	30 e0       	ldi	r19, 0x00	; 0
		/* Inline Functions: */
			static inline uint8_t Endpoint_BytesToEPSizeMask(const uint16_t Bytes) ATTR_WARN_UNUSED_RESULT ATTR_CONST
			                                                                       ATTR_ALWAYS_INLINE;
			static inline uint8_t Endpoint_BytesToEPSizeMask(const uint16_t Bytes)
			{
				uint8_t  MaskVal    = 0;
    1280:	40 e0       	ldi	r20, 0x00	; 0
				uint16_t CheckBytes = 8;

				while (CheckBytes < Bytes)
    1282:	2e 17       	cp	r18, r30
    1284:	3f 07       	cpc	r19, r31
    1286:	20 f4       	brcc	.+8      	; 0x1290 <Endpoint_ConfigureEndpointTable+0x4a>
				{
					MaskVal++;
    1288:	4f 5f       	subi	r20, 0xFF	; 255
					CheckBytes <<= 1;
    128a:	22 0f       	add	r18, r18
    128c:	33 1f       	adc	r19, r19
    128e:	f9 cf       	rjmp	.-14     	; 0x1282 <Endpoint_ConfigureEndpointTable+0x3c>
				}

				return (MaskVal << EPSIZE0);
    1290:	42 95       	swap	r20
    1292:	40 7f       	andi	r20, 0xF0	; 240
				uint8_t Number = (Address & ENDPOINT_EPNUM_MASK);

				if (Number >= ENDPOINT_TOTAL_ENDPOINTS)
				  return false;

				return Endpoint_ConfigureEndpoint_Prv(Number,
    1294:	45 2b       	or	r20, r21
				                                      ((Type << EPTYPE0) | ((Address & ENDPOINT_DIR_IN) ? (1 << EPDIR) : 0)),
    1296:	69 2f       	mov	r22, r25
    1298:	66 1f       	adc	r22, r22
    129a:	66 27       	eor	r22, r22
    129c:	66 1f       	adc	r22, r22
    129e:	90 e4       	ldi	r25, 0x40	; 64
    12a0:	79 9f       	mul	r23, r25
    12a2:	90 01       	movw	r18, r0
    12a4:	11 24       	eor	r1, r1
				uint8_t Number = (Address & ENDPOINT_EPNUM_MASK);

				if (Number >= ENDPOINT_TOTAL_ENDPOINTS)
				  return false;

				return Endpoint_ConfigureEndpoint_Prv(Number,
    12a6:	62 2b       	or	r22, r18
    12a8:	99 df       	rcall	.-206    	; 0x11dc <Endpoint_ConfigureEndpoint_Prv>
    12aa:	88 23       	and	r24, r24
	for (uint8_t i = 0; i < Entries; i++)
	{
		if (!(Table[i].Address))
		  continue;
	
		if (!(Endpoint_ConfigureEndpoint(Table[i].Address, Table[i].Type, Table[i].Size, Table[i].Banks)))
    12ac:	01 f3       	breq	.-64     	; 0x126e <Endpoint_ConfigureEndpointTable+0x28>
    12ae:	1f 5f       	subi	r17, 0xFF	; 255
#endif

bool Endpoint_ConfigureEndpointTable(const USB_Endpoint_Table_t* const Table,
                                     const uint8_t Entries)
{
	for (uint8_t i = 0; i < Entries; i++)
    12b0:	25 96       	adiw	r28, 0x05	; 5
    12b2:	d0 cf       	rjmp	.-96     	; 0x1254 <Endpoint_ConfigureEndpointTable+0xe>
    12b4:	81 e0       	ldi	r24, 0x01	; 1
	
		if (!(Endpoint_ConfigureEndpoint(Table[i].Address, Table[i].Type, Table[i].Size, Table[i].Banks)))
		  return false;
	}
	
	return true;
    12b6:	df 91       	pop	r29
}
    12b8:	cf 91       	pop	r28
    12ba:	1f 91       	pop	r17
    12bc:	0f 91       	pop	r16
    12be:	08 95       	ret

000012c0 <Endpoint_ClearStatusStage>:
    12c0:	80 91 dc 02 	lds	r24, 0x02DC
	}
}

void Endpoint_ClearStatusStage(void)
{
	if (USB_ControlRequest.bmRequestType & REQDIR_DEVICETOHOST)
    12c4:	87 fd       	sbrc	r24, 7
    12c6:	05 c0       	rjmp	.+10     	; 0x12d2 <Endpoint_ClearStatusStage+0x12>
			 *  \return Boolean \c true if the current endpoint is ready for an IN packet, \c false otherwise.
			 */
			static inline bool Endpoint_IsINReady(void) ATTR_WARN_UNUSED_RESULT ATTR_ALWAYS_INLINE;
			static inline bool Endpoint_IsINReady(void)
			{
				return ((UEINTX & (1 << TXINI)) ? true : false);
    12c8:	80 91 e8 00 	lds	r24, 0x00E8

		Endpoint_ClearOUT();
	}
	else
	{
		while (!(Endpoint_IsINReady()))
    12cc:	80 ff       	sbrs	r24, 0
    12ce:	0e c0       	rjmp	.+28     	; 0x12ec <Endpoint_ClearStatusStage+0x2c>
    12d0:	12 c0       	rjmp	.+36     	; 0x12f6 <Endpoint_ClearStatusStage+0x36>
			 *  \return Boolean \c true if current endpoint is has received an OUT packet, \c false otherwise.
			 */
			static inline bool Endpoint_IsOUTReceived(void) ATTR_WARN_UNUSED_RESULT ATTR_ALWAYS_INLINE;
			static inline bool Endpoint_IsOUTReceived(void)
			{
				return ((UEINTX & (1 << RXOUTI)) ? true : false);
    12d2:	80 91 e8 00 	lds	r24, 0x00E8

void Endpoint_ClearStatusStage(void)
{
	if (USB_ControlRequest.bmRequestType & REQDIR_DEVICETOHOST)
	{
		while (!(Endpoint_IsOUTReceived()))
    12d6:	82 fd       	sbrc	r24, 2
    12d8:	05 c0       	rjmp	.+10     	; 0x12e4 <Endpoint_ClearStatusStage+0x24>
		{
			if (USB_DeviceState == DEVICE_STATE_Unattached)
    12da:	80 91 db 02 	lds	r24, 0x02DB
    12de:	81 11       	cpse	r24, r1
    12e0:	f8 cf       	rjmp	.-16     	; 0x12d2 <Endpoint_ClearStatusStage+0x12>
    12e2:	08 95       	ret
			 */
			static inline void Endpoint_ClearOUT(void) ATTR_ALWAYS_INLINE;
			static inline void Endpoint_ClearOUT(void)
			{
				#if !defined(CONTROL_ONLY_DEVICE)
					UEINTX &= ~((1 << RXOUTI) | (1 << FIFOCON));
    12e4:	80 91 e8 00 	lds	r24, 0x00E8
    12e8:	8b 77       	andi	r24, 0x7B	; 123
    12ea:	08 c0       	rjmp	.+16     	; 0x12fc <Endpoint_ClearStatusStage+0x3c>
	}
	else
	{
		while (!(Endpoint_IsINReady()))
		{
			if (USB_DeviceState == DEVICE_STATE_Unattached)
    12ec:	80 91 db 02 	lds	r24, 0x02DB
    12f0:	81 11       	cpse	r24, r1
    12f2:	ea cf       	rjmp	.-44     	; 0x12c8 <Endpoint_ClearStatusStage+0x8>
    12f4:	08 95       	ret
			 */
			static inline void Endpoint_ClearIN(void) ATTR_ALWAYS_INLINE;
			static inline void Endpoint_ClearIN(void)
			{
				#if !defined(CONTROL_ONLY_DEVICE)
					UEINTX &= ~((1 << TXINI) | (1 << FIFOCON));
    12f6:	80 91 e8 00 	lds	r24, 0x00E8
    12fa:	8e 77       	andi	r24, 0x7E	; 126
    12fc:	80 93 e8 00 	sts	0x00E8, r24
    1300:	08 95       	ret

00001302 <Endpoint_WaitUntilReady>:
			 *  \return Current USB frame number from the USB controller.
			 */
			static inline uint16_t USB_Device_GetFrameNumber(void) ATTR_ALWAYS_INLINE ATTR_WARN_UNUSED_RESULT;
			static inline uint16_t USB_Device_GetFrameNumber(void)
			{
				return UDFNUM;
    1302:	80 91 e4 00 	lds	r24, 0x00E4
    1306:	90 91 e5 00 	lds	r25, 0x00E5
    130a:	45 e6       	ldi	r20, 0x65	; 101
			 *  \return The currently selected endpoint's direction, as a \c ENDPOINT_DIR_* mask.
			 */
			static inline uint8_t Endpoint_GetEndpointDirection(void) ATTR_WARN_UNUSED_RESULT ATTR_ALWAYS_INLINE;
			static inline uint8_t Endpoint_GetEndpointDirection(void)
			{
				return (UECFG0X & (1 << EPDIR)) ? ENDPOINT_DIR_IN : ENDPOINT_DIR_OUT;
    130c:	20 91 ec 00 	lds	r18, 0x00EC
    1310:	20 ff       	sbrs	r18, 0
    1312:	21 c0       	rjmp	.+66     	; 0x1356 <Endpoint_WaitUntilReady+0x54>
			 *  \return Boolean \c true if the current endpoint is ready for an IN packet, \c false otherwise.
			 */
			static inline bool Endpoint_IsINReady(void) ATTR_WARN_UNUSED_RESULT ATTR_ALWAYS_INLINE;
			static inline bool Endpoint_IsINReady(void)
			{
				return ((UEINTX & (1 << TXINI)) ? true : false);
    1314:	20 91 e8 00 	lds	r18, 0x00E8

	for (;;)
	{
		if (Endpoint_GetEndpointDirection() == ENDPOINT_DIR_IN)
		{
			if (Endpoint_IsINReady())
    1318:	20 fd       	sbrc	r18, 0
    131a:	21 c0       	rjmp	.+66     	; 0x135e <Endpoint_WaitUntilReady+0x5c>
		{
			if (Endpoint_IsOUTReceived())
			  return ENDPOINT_READYWAIT_NoError;
		}

		uint8_t USB_DeviceState_LCL = USB_DeviceState;
    131c:	20 91 db 02 	lds	r18, 0x02DB

		if (USB_DeviceState_LCL == DEVICE_STATE_Unattached)
    1320:	22 23       	and	r18, r18
    1322:	89 f0       	breq	.+34     	; 0x1346 <Endpoint_WaitUntilReady+0x44>
		  return ENDPOINT_READYWAIT_DeviceDisconnected;
		else if (USB_DeviceState_LCL == DEVICE_STATE_Suspended)
    1324:	25 30       	cpi	r18, 0x05	; 5
    1326:	89 f0       	breq	.+34     	; 0x134a <Endpoint_WaitUntilReady+0x48>
			 *  \return Boolean \c true if the currently selected endpoint is stalled, \c false otherwise.
			 */
			static inline bool Endpoint_IsStalled(void) ATTR_WARN_UNUSED_RESULT ATTR_ALWAYS_INLINE;
			static inline bool Endpoint_IsStalled(void)
			{
				return ((UECONX & (1 << STALLRQ)) ? true : false);
    1328:	20 91 eb 00 	lds	r18, 0x00EB
		  return ENDPOINT_READYWAIT_BusSuspended;
		else if (Endpoint_IsStalled())
    132c:	25 fd       	sbrc	r18, 5
    132e:	0f c0       	rjmp	.+30     	; 0x134e <Endpoint_WaitUntilReady+0x4c>
    1330:	20 91 e4 00 	lds	r18, 0x00E4
    1334:	30 91 e5 00 	lds	r19, 0x00E5
		  return ENDPOINT_READYWAIT_EndpointStalled;

		uint16_t CurrentFrameNumber = USB_Device_GetFrameNumber();

		if (CurrentFrameNumber != PreviousFrameNumber)
    1338:	28 17       	cp	r18, r24
    133a:	39 07       	cpc	r19, r25
    133c:	39 f3       	breq	.-50     	; 0x130c <Endpoint_WaitUntilReady+0xa>
    133e:	41 50       	subi	r20, 0x01	; 1
		{
			PreviousFrameNumber = CurrentFrameNumber;

			if (!(TimeoutMSRem--))
    1340:	41 f0       	breq	.+16     	; 0x1352 <Endpoint_WaitUntilReady+0x50>
    1342:	c9 01       	movw	r24, r18
    1344:	e3 cf       	rjmp	.-58     	; 0x130c <Endpoint_WaitUntilReady+0xa>
		}

		uint8_t USB_DeviceState_LCL = USB_DeviceState;

		if (USB_DeviceState_LCL == DEVICE_STATE_Unattached)
		  return ENDPOINT_READYWAIT_DeviceDisconnected;
    1346:	82 e0       	ldi	r24, 0x02	; 2
    1348:	08 95       	ret
		else if (USB_DeviceState_LCL == DEVICE_STATE_Suspended)
		  return ENDPOINT_READYWAIT_BusSuspended;
    134a:	83 e0       	ldi	r24, 0x03	; 3
    134c:	08 95       	ret
		else if (Endpoint_IsStalled())
		  return ENDPOINT_READYWAIT_EndpointStalled;
    134e:	81 e0       	ldi	r24, 0x01	; 1
    1350:	08 95       	ret
		if (CurrentFrameNumber != PreviousFrameNumber)
		{
			PreviousFrameNumber = CurrentFrameNumber;

			if (!(TimeoutMSRem--))
			  return ENDPOINT_READYWAIT_Timeout;
    1352:	84 e0       	ldi	r24, 0x04	; 4
    1354:	08 95       	ret
			 *  \return Boolean \c true if current endpoint is has received an OUT packet, \c false otherwise.
			 */
			static inline bool Endpoint_IsOUTReceived(void) ATTR_WARN_UNUSED_RESULT ATTR_ALWAYS_INLINE;
			static inline bool Endpoint_IsOUTReceived(void)
			{
				return ((UEINTX & (1 << RXOUTI)) ? true : false);
    1356:	20 91 e8 00 	lds	r18, 0x00E8
			if (Endpoint_IsINReady())
			  return ENDPOINT_READYWAIT_NoError;
		}
		else
		{
			if (Endpoint_IsOUTReceived())
    135a:	22 ff       	sbrs	r18, 2
    135c:	df cf       	rjmp	.-66     	; 0x131c <Endpoint_WaitUntilReady+0x1a>
	for (;;)
	{
		if (Endpoint_GetEndpointDirection() == ENDPOINT_DIR_IN)
		{
			if (Endpoint_IsINReady())
			  return ENDPOINT_READYWAIT_NoError;
    135e:	80 e0       	ldi	r24, 0x00	; 0
    1360:	08 95       	ret

00001362 <USB_ResetInterface>:

	USB_IsInitialized = false;
}

void USB_ResetInterface(void)
{
    1362:	0f 93       	push	r16
    1364:	1f 93       	push	r17
    1366:	cf 93       	push	r28
    1368:	df 93       	push	r29
	#if defined(USB_CAN_BE_BOTH)
	bool UIDModeSelectEnabled = ((UHWCON & (1 << UIDE)) != 0);
	#endif

	USB_INT_DisableAllInterrupts();
    136a:	4b d0       	rcall	.+150    	; 0x1402 <USB_INT_DisableAllInterrupts>
    136c:	52 d0       	rcall	.+164    	; 0x1412 <USB_INT_ClearAllInterrupts>
	USB_INT_ClearAllInterrupts();
    136e:	c8 ed       	ldi	r28, 0xD8	; 216
    1370:	d0 e0       	ldi	r29, 0x00	; 0
			}

			static inline void USB_Controller_Reset(void) ATTR_ALWAYS_INLINE;
			static inline void USB_Controller_Reset(void)
			{
				USBCON &= ~(1 << USBE);
    1372:	88 81       	ld	r24, Y
    1374:	8f 77       	andi	r24, 0x7F	; 127
    1376:	88 83       	st	Y, r24
    1378:	88 81       	ld	r24, Y
    137a:	80 68       	ori	r24, 0x80	; 128
				USBCON |=  (1 << USBE);
    137c:	88 83       	st	Y, r24
    137e:	88 81       	ld	r24, Y
    1380:	8f 7d       	andi	r24, 0xDF	; 223
			}

			static inline void USB_CLK_Unfreeze(void) ATTR_ALWAYS_INLINE;
			static inline void USB_CLK_Unfreeze(void)
			{
				USBCON &= ~(1 << FRZCLK);
    1382:	88 83       	st	Y, r24
    1384:	19 bc       	out	0x29, r1	; 41
    1386:	10 92 db 02 	sts	0x02DB, r1
}

#if defined(USB_CAN_BE_DEVICE)
static void USB_Init_Device(void)
{
	USB_DeviceState                 = DEVICE_STATE_Unattached;
    138a:	10 92 d7 02 	sts	0x02D7, r1
	USB_Device_ConfigurationNumber  = 0;
    138e:	10 92 d9 02 	sts	0x02D9, r1

	#if !defined(NO_DEVICE_REMOTE_WAKEUP)
	USB_Device_RemoteWakeupEnabled  = false;
    1392:	10 92 d8 02 	sts	0x02D8, r1
	#endif

	#if !defined(NO_DEVICE_SELF_POWER)
	USB_Device_CurrentlySelfPowered = false;
    1396:	00 ee       	ldi	r16, 0xE0	; 224
    1398:	10 e0       	ldi	r17, 0x00	; 0
			}

			static inline void USB_Device_SetFullSpeed(void) ATTR_ALWAYS_INLINE;
			static inline void USB_Device_SetFullSpeed(void)
			{
				UDCON &= ~(1 << LSM);
    139a:	f8 01       	movw	r30, r16
    139c:	80 81       	ld	r24, Z
    139e:	8b 7f       	andi	r24, 0xFB	; 251
    13a0:	80 83       	st	Z, r24
    13a2:	88 81       	ld	r24, Y
    13a4:	81 60       	ori	r24, 0x01	; 1
			{
				switch (Interrupt)
				{
					#if (defined(USB_SERIES_4_AVR) || defined(USB_SERIES_6_AVR) || defined(USB_SERIES_7_AVR))
					case USB_INT_VBUSTI:
						USBCON |= (1 << VBUSTE);
    13a6:	88 83       	st	Y, r24
    13a8:	42 e0       	ldi	r20, 0x02	; 2
    13aa:	60 e0       	ldi	r22, 0x00	; 0
				uint8_t Number = (Address & ENDPOINT_EPNUM_MASK);

				if (Number >= ENDPOINT_TOTAL_ENDPOINTS)
				  return false;

				return Endpoint_ConfigureEndpoint_Prv(Number,
    13ac:	80 e0       	ldi	r24, 0x00	; 0
    13ae:	16 df       	rcall	.-468    	; 0x11dc <Endpoint_ConfigureEndpoint_Prv>
    13b0:	e1 ee       	ldi	r30, 0xE1	; 225
    13b2:	f0 e0       	ldi	r31, 0x00	; 0
    13b4:	80 81       	ld	r24, Z
					#if defined(USB_CAN_BE_DEVICE)
					case USB_INT_WAKEUPI:
						UDINT  &= ~(1 << WAKEUPI);
						break;
					case USB_INT_SUSPI:
						UDINT  &= ~(1 << SUSPI);
    13b6:	8e 7f       	andi	r24, 0xFE	; 254
    13b8:	80 83       	st	Z, r24
    13ba:	e2 ee       	ldi	r30, 0xE2	; 226
    13bc:	f0 e0       	ldi	r31, 0x00	; 0
    13be:	80 81       	ld	r24, Z
					#if defined(USB_CAN_BE_DEVICE)
					case USB_INT_WAKEUPI:
						UDIEN  |= (1 << WAKEUPE);
						break;
					case USB_INT_SUSPI:
						UDIEN  |= (1 << SUSPE);
    13c0:	81 60       	ori	r24, 0x01	; 1
    13c2:	80 83       	st	Z, r24
    13c4:	80 81       	ld	r24, Z
    13c6:	88 60       	ori	r24, 0x08	; 8
    13c8:	80 83       	st	Z, r24
						break;
					case USB_INT_EORSTI:
						UDIEN  |= (1 << EORSTE);
    13ca:	f8 01       	movw	r30, r16
    13cc:	80 81       	ld	r24, Z
    13ce:	8e 7f       	andi	r24, 0xFE	; 254
			 *  register and despite the datasheet making no mention of its requirement in host mode.
			 */
			static inline void USB_Attach(void) ATTR_ALWAYS_INLINE;
			static inline void USB_Attach(void)
			{
				UDCON  &= ~(1 << DETACH);
    13d0:	80 83       	st	Z, r24
    13d2:	88 81       	ld	r24, Y
    13d4:	80 61       	ori	r24, 0x10	; 16
    13d6:	88 83       	st	Y, r24

			#if defined(USB_SERIES_4_AVR) || defined(USB_SERIES_6_AVR) || defined(USB_SERIES_7_AVR)
			static inline void USB_OTGPAD_On(void) ATTR_ALWAYS_INLINE;
			static inline void USB_OTGPAD_On(void)
			{
				USBCON |=  (1 << OTGPADE);
    13d8:	df 91       	pop	r29
    13da:	cf 91       	pop	r28
    13dc:	1f 91       	pop	r17
	}

	#if (defined(USB_SERIES_4_AVR) || defined(USB_SERIES_6_AVR) || defined(USB_SERIES_7_AVR))
	USB_OTGPAD_On();
	#endif
}
    13de:	0f 91       	pop	r16
    13e0:	08 95       	ret

000013e2 <USB_Init>:
    13e2:	e8 ed       	ldi	r30, 0xD8	; 216
    13e4:	f0 e0       	ldi	r31, 0x00	; 0
    13e6:	80 81       	ld	r24, Z
			}

			static inline void USB_OTGPAD_Off(void) ATTR_ALWAYS_INLINE;
			static inline void USB_OTGPAD_Off(void)
			{
				USBCON &= ~(1 << OTGPADE);
    13e8:	8f 7e       	andi	r24, 0xEF	; 239
    13ea:	80 83       	st	Z, r24

			static inline void USB_REG_On(void) ATTR_ALWAYS_INLINE;
			static inline void USB_REG_On(void)
			{
			#if defined(USB_SERIES_4_AVR) || defined(USB_SERIES_6_AVR) || defined(USB_SERIES_7_AVR)
				UHWCON |=  (1 << UVREGE);
    13ec:	e7 ed       	ldi	r30, 0xD7	; 215
    13ee:	f0 e0       	ldi	r31, 0x00	; 0
    13f0:	80 81       	ld	r24, Z
    13f2:	81 60       	ori	r24, 0x01	; 1
    13f4:	80 83       	st	Z, r24
	  USB_REG_Off();

	if (!(USB_Options & USB_OPT_MANUAL_PLL))
	{
		#if defined(USB_SERIES_4_AVR)
		PLLFRQ = (1 << PDIV2);
    13f6:	84 e0       	ldi	r24, 0x04	; 4
    13f8:	82 bf       	out	0x32, r24	; 50
		UHWCON &= ~(1 << UIDE);
		USB_CurrentMode = Mode;
	}
	#endif

	USB_IsInitialized = true;
    13fa:	81 e0       	ldi	r24, 0x01	; 1
    13fc:	80 93 da 02 	sts	0x02DA, r24

	USB_ResetInterface();
    1400:	b0 cf       	rjmp	.-160    	; 0x1362 <USB_ResetInterface>

00001402 <USB_INT_DisableAllInterrupts>:
    1402:	e8 ed       	ldi	r30, 0xD8	; 216
void USB_INT_DisableAllInterrupts(void)
{
	#if defined(USB_SERIES_6_AVR) || defined(USB_SERIES_7_AVR)
	USBCON &= ~((1 << VBUSTE) | (1 << IDTE));
	#elif defined(USB_SERIES_4_AVR)
	USBCON &= ~(1 << VBUSTE);
    1404:	f0 e0       	ldi	r31, 0x00	; 0
    1406:	80 81       	ld	r24, Z
    1408:	8e 7f       	andi	r24, 0xFE	; 254
    140a:	80 83       	st	Z, r24
	#if defined(USB_CAN_BE_HOST)
	UHIEN   = 0;
	#endif

	#if defined(USB_CAN_BE_DEVICE)
	UDIEN   = 0;
    140c:	10 92 e2 00 	sts	0x00E2, r1
    1410:	08 95       	ret

00001412 <USB_INT_ClearAllInterrupts>:
}

void USB_INT_ClearAllInterrupts(void)
{
	#if defined(USB_SERIES_4_AVR) || defined(USB_SERIES_6_AVR) || defined(USB_SERIES_7_AVR)
	USBINT = 0;
    1412:	10 92 da 00 	sts	0x00DA, r1
	#if defined(USB_CAN_BE_HOST)
	UHINT  = 0;
	#endif

	#if defined(USB_CAN_BE_DEVICE)
	UDINT  = 0;
    1416:	10 92 e1 00 	sts	0x00E1, r1
    141a:	08 95       	ret

0000141c <__vector_10>:
	#endif
}

ISR(USB_GEN_vect, ISR_BLOCK)
{
    141c:	1f 92       	push	r1
    141e:	0f 92       	push	r0
    1420:	0f b6       	in	r0, 0x3f	; 63
    1422:	0f 92       	push	r0
    1424:	11 24       	eor	r1, r1
    1426:	2f 93       	push	r18
    1428:	3f 93       	push	r19
    142a:	4f 93       	push	r20
    142c:	5f 93       	push	r21
    142e:	6f 93       	push	r22
    1430:	7f 93       	push	r23
    1432:	8f 93       	push	r24
    1434:	9f 93       	push	r25
    1436:	af 93       	push	r26
    1438:	bf 93       	push	r27
    143a:	ef 93       	push	r30
    143c:	ff 93       	push	r31
					case USB_INT_SUSPI:
						return (UDINT  & (1 << SUSPI));
					case USB_INT_EORSTI:
						return (UDINT  & (1 << EORSTI));
					case USB_INT_SOFI:
						return (UDINT  & (1 << SOFI));
    143e:	80 91 e1 00 	lds	r24, 0x00E1
	#if defined(USB_CAN_BE_DEVICE)
	#if !defined(NO_SOF_EVENTS)
	if (USB_INT_HasOccurred(USB_INT_SOFI) && USB_INT_IsEnabled(USB_INT_SOFI))
    1442:	82 ff       	sbrs	r24, 2
    1444:	0a c0       	rjmp	.+20     	; 0x145a <__vector_10+0x3e>
					case USB_INT_SUSPI:
						return (UDIEN  & (1 << SUSPE));
					case USB_INT_EORSTI:
						return (UDIEN  & (1 << EORSTE));
					case USB_INT_SOFI:
						return (UDIEN  & (1 << SOFE));
    1446:	80 91 e2 00 	lds	r24, 0x00E2
    144a:	82 ff       	sbrs	r24, 2
    144c:	06 c0       	rjmp	.+12     	; 0x145a <__vector_10+0x3e>
						break;
					case USB_INT_EORSTI:
						UDINT  &= ~(1 << EORSTI);
						break;
					case USB_INT_SOFI:
						UDINT  &= ~(1 << SOFI);
    144e:	80 91 e1 00 	lds	r24, 0x00E1
    1452:	8b 7f       	andi	r24, 0xFB	; 251
    1454:	80 93 e1 00 	sts	0x00E1, r24
	{
		USB_INT_Clear(USB_INT_SOFI);

		EVENT_USB_Device_StartOfFrame();
    1458:	89 d8       	rcall	.-3822   	; 0x56c <EVENT_USB_Device_StartOfFrame>
    145a:	80 91 da 00 	lds	r24, 0x00DA
			{
				switch (Interrupt)
				{
					#if (defined(USB_SERIES_4_AVR) || defined(USB_SERIES_6_AVR) || defined(USB_SERIES_7_AVR))
					case USB_INT_VBUSTI:
						return (USBINT & (1 << VBUSTI));
    145e:	80 ff       	sbrs	r24, 0
	}
	#endif

	#if defined(USB_SERIES_4_AVR) || defined(USB_SERIES_6_AVR) || defined(USB_SERIES_7_AVR)
	if (USB_INT_HasOccurred(USB_INT_VBUSTI) && USB_INT_IsEnabled(USB_INT_VBUSTI))
    1460:	1d c0       	rjmp	.+58     	; 0x149c <__vector_10+0x80>
    1462:	80 91 d8 00 	lds	r24, 0x00D8
			{
				switch (Interrupt)
				{
					#if (defined(USB_SERIES_4_AVR) || defined(USB_SERIES_6_AVR) || defined(USB_SERIES_7_AVR))
					case USB_INT_VBUSTI:
						return (USBCON & (1 << VBUSTE));
    1466:	80 ff       	sbrs	r24, 0
    1468:	19 c0       	rjmp	.+50     	; 0x149c <__vector_10+0x80>
    146a:	80 91 da 00 	lds	r24, 0x00DA
			{
				switch (Interrupt)
				{
					#if (defined(USB_SERIES_4_AVR) || defined(USB_SERIES_6_AVR) || defined(USB_SERIES_7_AVR))
					case USB_INT_VBUSTI:
						USBINT &= ~(1 << VBUSTI);
    146e:	8e 7f       	andi	r24, 0xFE	; 254
    1470:	80 93 da 00 	sts	0x00DA, r24
    1474:	80 91 d9 00 	lds	r24, 0x00D9
				 *  \return Boolean \c true if the VBUS line is currently detecting power from a host, \c false otherwise.
				 */
				static inline bool USB_VBUS_GetStatus(void) ATTR_WARN_UNUSED_RESULT ATTR_ALWAYS_INLINE;
				static inline bool USB_VBUS_GetStatus(void)
				{
					return ((USBSTA & (1 << VBUS)) ? true : false);
    1478:	80 ff       	sbrs	r24, 0
	{
		USB_INT_Clear(USB_INT_VBUSTI);

		if (USB_VBUS_GetStatus())
    147a:	0c c0       	rjmp	.+24     	; 0x1494 <__vector_10+0x78>
    147c:	80 e1       	ldi	r24, 0x10	; 16

		/* Inline Functions: */
			static inline void USB_PLL_On(void) ATTR_ALWAYS_INLINE;
			static inline void USB_PLL_On(void)
			{
				PLLCSR = USB_PLL_PSC;
    147e:	89 bd       	out	0x29, r24	; 41
    1480:	82 e1       	ldi	r24, 0x12	; 18
				PLLCSR = (USB_PLL_PSC | (1 << PLLE));
    1482:	89 bd       	out	0x29, r24	; 41
    1484:	09 b4       	in	r0, 0x29	; 41
		{
			if (!(USB_Options & USB_OPT_MANUAL_PLL))
			{
				USB_PLL_On();
				while (!(USB_PLL_IsReady()));
    1486:	00 fe       	sbrs	r0, 0
    1488:	fd cf       	rjmp	.-6      	; 0x1484 <__vector_10+0x68>
    148a:	81 e0       	ldi	r24, 0x01	; 1
			}

			USB_DeviceState = DEVICE_STATE_Powered;
    148c:	80 93 db 02 	sts	0x02DB, r24
    1490:	49 d8       	rcall	.-3950   	; 0x524 <EVENT_USB_Device_Connect>
			EVENT_USB_Device_Connect();
    1492:	04 c0       	rjmp	.+8      	; 0x149c <__vector_10+0x80>
    1494:	19 bc       	out	0x29, r1	; 41
    1496:	10 92 db 02 	sts	0x02DB, r1
		else
		{
			if (!(USB_Options & USB_OPT_MANUAL_PLL))
			  USB_PLL_Off();

			USB_DeviceState = DEVICE_STATE_Unattached;
    149a:	46 d8       	rcall	.-3956   	; 0x528 <EVENT_USB_Device_Disconnect>
    149c:	80 91 e1 00 	lds	r24, 0x00E1
			EVENT_USB_Device_Disconnect();
    14a0:	80 ff       	sbrs	r24, 0
					#endif
					#if defined(USB_CAN_BE_DEVICE)
					case USB_INT_WAKEUPI:
						return (UDINT  & (1 << WAKEUPI));
					case USB_INT_SUSPI:
						return (UDINT  & (1 << SUSPI));
    14a2:	18 c0       	rjmp	.+48     	; 0x14d4 <__vector_10+0xb8>
    14a4:	80 91 e2 00 	lds	r24, 0x00E2
		}
	}
	#endif

	if (USB_INT_HasOccurred(USB_INT_SUSPI) && USB_INT_IsEnabled(USB_INT_SUSPI))
    14a8:	80 ff       	sbrs	r24, 0
					#endif
					#if defined(USB_CAN_BE_DEVICE)
					case USB_INT_WAKEUPI:
						return (UDIEN  & (1 << WAKEUPE));
					case USB_INT_SUSPI:
						return (UDIEN  & (1 << SUSPE));
    14aa:	14 c0       	rjmp	.+40     	; 0x14d4 <__vector_10+0xb8>
    14ac:	80 91 e2 00 	lds	r24, 0x00E2
    14b0:	8e 7f       	andi	r24, 0xFE	; 254
					#if defined(USB_CAN_BE_DEVICE)
					case USB_INT_WAKEUPI:
						UDIEN  &= ~(1 << WAKEUPE);
						break;
					case USB_INT_SUSPI:
						UDIEN  &= ~(1 << SUSPE);
    14b2:	80 93 e2 00 	sts	0x00E2, r24
    14b6:	80 91 e2 00 	lds	r24, 0x00E2
    14ba:	80 61       	ori	r24, 0x10	; 16
						USBCON |= (1 << IDTE);
						break;
					#endif
					#if defined(USB_CAN_BE_DEVICE)
					case USB_INT_WAKEUPI:
						UDIEN  |= (1 << WAKEUPE);
    14bc:	80 93 e2 00 	sts	0x00E2, r24
    14c0:	80 91 d8 00 	lds	r24, 0x00D8
    14c4:	80 62       	ori	r24, 0x20	; 32
			#endif

			static inline void USB_CLK_Freeze(void) ATTR_ALWAYS_INLINE;
			static inline void USB_CLK_Freeze(void)
			{
				USBCON |=  (1 << FRZCLK);
    14c6:	80 93 d8 00 	sts	0x00D8, r24
    14ca:	19 bc       	out	0x29, r1	; 41
    14cc:	85 e0       	ldi	r24, 0x05	; 5
    14ce:	80 93 db 02 	sts	0x02DB, r24

		#if defined(USB_SERIES_2_AVR) && !defined(NO_LIMITED_CONTROLLER_CONNECT)
		USB_DeviceState = DEVICE_STATE_Unattached;
		EVENT_USB_Device_Disconnect();
		#else
		USB_DeviceState = DEVICE_STATE_Suspended;
    14d2:	f0 d1       	rcall	.+992    	; 0x18b4 <USB_Event_Stub>
    14d4:	80 91 e1 00 	lds	r24, 0x00E1
		EVENT_USB_Device_Suspend();
    14d8:	84 ff       	sbrs	r24, 4
    14da:	2d c0       	rjmp	.+90     	; 0x1536 <__vector_10+0x11a>
					case USB_INT_IDTI:
						return (USBINT & (1 << IDTI));
					#endif
					#if defined(USB_CAN_BE_DEVICE)
					case USB_INT_WAKEUPI:
						return (UDINT  & (1 << WAKEUPI));
    14dc:	80 91 e2 00 	lds	r24, 0x00E2
		#endif
	}

	if (USB_INT_HasOccurred(USB_INT_WAKEUPI) && USB_INT_IsEnabled(USB_INT_WAKEUPI))
    14e0:	84 ff       	sbrs	r24, 4
    14e2:	29 c0       	rjmp	.+82     	; 0x1536 <__vector_10+0x11a>
					case USB_INT_IDTI:
						return (USBCON & (1 << IDTE));
					#endif
					#if defined(USB_CAN_BE_DEVICE)
					case USB_INT_WAKEUPI:
						return (UDIEN  & (1 << WAKEUPE));
    14e4:	80 e1       	ldi	r24, 0x10	; 16
    14e6:	89 bd       	out	0x29, r24	; 41
    14e8:	82 e1       	ldi	r24, 0x12	; 18
    14ea:	89 bd       	out	0x29, r24	; 41

		/* Inline Functions: */
			static inline void USB_PLL_On(void) ATTR_ALWAYS_INLINE;
			static inline void USB_PLL_On(void)
			{
				PLLCSR = USB_PLL_PSC;
    14ec:	09 b4       	in	r0, 0x29	; 41
    14ee:	00 fe       	sbrs	r0, 0
				PLLCSR = (USB_PLL_PSC | (1 << PLLE));
    14f0:	fd cf       	rjmp	.-6      	; 0x14ec <__vector_10+0xd0>
    14f2:	80 91 d8 00 	lds	r24, 0x00D8
	{
		if (!(USB_Options & USB_OPT_MANUAL_PLL))
		{
			USB_PLL_On();
			while (!(USB_PLL_IsReady()));
    14f6:	8f 7d       	andi	r24, 0xDF	; 223
    14f8:	80 93 d8 00 	sts	0x00D8, r24
			}

			static inline void USB_CLK_Unfreeze(void) ATTR_ALWAYS_INLINE;
			static inline void USB_CLK_Unfreeze(void)
			{
				USBCON &= ~(1 << FRZCLK);
    14fc:	80 91 e1 00 	lds	r24, 0x00E1
    1500:	8f 7e       	andi	r24, 0xEF	; 239
    1502:	80 93 e1 00 	sts	0x00E1, r24
						USBINT &= ~(1 << IDTI);
						break;
					#endif
					#if defined(USB_CAN_BE_DEVICE)
					case USB_INT_WAKEUPI:
						UDINT  &= ~(1 << WAKEUPI);
    1506:	80 91 e2 00 	lds	r24, 0x00E2
    150a:	8f 7e       	andi	r24, 0xEF	; 239
    150c:	80 93 e2 00 	sts	0x00E2, r24
						USBCON &= ~(1 << IDTE);
						break;
					#endif
					#if defined(USB_CAN_BE_DEVICE)
					case USB_INT_WAKEUPI:
						UDIEN  &= ~(1 << WAKEUPE);
    1510:	80 91 e2 00 	lds	r24, 0x00E2
    1514:	81 60       	ori	r24, 0x01	; 1
    1516:	80 93 e2 00 	sts	0x00E2, r24
					#if defined(USB_CAN_BE_DEVICE)
					case USB_INT_WAKEUPI:
						UDIEN  |= (1 << WAKEUPE);
						break;
					case USB_INT_SUSPI:
						UDIEN  |= (1 << SUSPE);
    151a:	80 91 d7 02 	lds	r24, 0x02D7
    151e:	81 11       	cpse	r24, r1
    1520:	04 c0       	rjmp	.+8      	; 0x152a <__vector_10+0x10e>
		USB_INT_Clear(USB_INT_WAKEUPI);

		USB_INT_Disable(USB_INT_WAKEUPI);
		USB_INT_Enable(USB_INT_SUSPI);

		if (USB_Device_ConfigurationNumber)
    1522:	80 91 e3 00 	lds	r24, 0x00E3
    1526:	87 ff       	sbrs	r24, 7
    1528:	02 c0       	rjmp	.+4      	; 0x152e <__vector_10+0x112>
			}

			static inline bool USB_Device_IsAddressSet(void) ATTR_ALWAYS_INLINE ATTR_WARN_UNUSED_RESULT;
			static inline bool USB_Device_IsAddressSet(void)
			{
				return (UDADDR & (1 << ADDEN));
    152a:	84 e0       	ldi	r24, 0x04	; 4
    152c:	01 c0       	rjmp	.+2      	; 0x1530 <__vector_10+0x114>
		  USB_DeviceState = DEVICE_STATE_Configured;
		else
		  USB_DeviceState = (USB_Device_IsAddressSet()) ? DEVICE_STATE_Configured : DEVICE_STATE_Powered;
    152e:	81 e0       	ldi	r24, 0x01	; 1
    1530:	80 93 db 02 	sts	0x02DB, r24
    1534:	bf d1       	rcall	.+894    	; 0x18b4 <USB_Event_Stub>
    1536:	80 91 e1 00 	lds	r24, 0x00E1
    153a:	83 ff       	sbrs	r24, 3

		#if defined(USB_SERIES_2_AVR) && !defined(NO_LIMITED_CONTROLLER_CONNECT)
		EVENT_USB_Device_Connect();
		#else
		EVENT_USB_Device_WakeUp();
    153c:	27 c0       	rjmp	.+78     	; 0x158c <__vector_10+0x170>
    153e:	80 91 e2 00 	lds	r24, 0x00E2
					case USB_INT_WAKEUPI:
						return (UDINT  & (1 << WAKEUPI));
					case USB_INT_SUSPI:
						return (UDINT  & (1 << SUSPI));
					case USB_INT_EORSTI:
						return (UDINT  & (1 << EORSTI));
    1542:	83 ff       	sbrs	r24, 3
		#endif
	}

	if (USB_INT_HasOccurred(USB_INT_EORSTI) && USB_INT_IsEnabled(USB_INT_EORSTI))
    1544:	23 c0       	rjmp	.+70     	; 0x158c <__vector_10+0x170>
    1546:	80 91 e1 00 	lds	r24, 0x00E1
					case USB_INT_WAKEUPI:
						return (UDIEN  & (1 << WAKEUPE));
					case USB_INT_SUSPI:
						return (UDIEN  & (1 << SUSPE));
					case USB_INT_EORSTI:
						return (UDIEN  & (1 << EORSTE));
    154a:	87 7f       	andi	r24, 0xF7	; 247
    154c:	80 93 e1 00 	sts	0x00E1, r24
						break;
					case USB_INT_SUSPI:
						UDINT  &= ~(1 << SUSPI);
						break;
					case USB_INT_EORSTI:
						UDINT  &= ~(1 << EORSTI);
    1550:	82 e0       	ldi	r24, 0x02	; 2
    1552:	80 93 db 02 	sts	0x02DB, r24
    1556:	10 92 d7 02 	sts	0x02D7, r1
	{
		USB_INT_Clear(USB_INT_EORSTI);

		USB_DeviceState                = DEVICE_STATE_Default;
    155a:	80 91 e1 00 	lds	r24, 0x00E1
    155e:	8e 7f       	andi	r24, 0xFE	; 254
		USB_Device_ConfigurationNumber = 0;
    1560:	80 93 e1 00 	sts	0x00E1, r24
					#if defined(USB_CAN_BE_DEVICE)
					case USB_INT_WAKEUPI:
						UDINT  &= ~(1 << WAKEUPI);
						break;
					case USB_INT_SUSPI:
						UDINT  &= ~(1 << SUSPI);
    1564:	80 91 e2 00 	lds	r24, 0x00E2
    1568:	8e 7f       	andi	r24, 0xFE	; 254
    156a:	80 93 e2 00 	sts	0x00E2, r24
					#if defined(USB_CAN_BE_DEVICE)
					case USB_INT_WAKEUPI:
						UDIEN  &= ~(1 << WAKEUPE);
						break;
					case USB_INT_SUSPI:
						UDIEN  &= ~(1 << SUSPE);
    156e:	80 91 e2 00 	lds	r24, 0x00E2
    1572:	80 61       	ori	r24, 0x10	; 16
    1574:	80 93 e2 00 	sts	0x00E2, r24
						USBCON |= (1 << IDTE);
						break;
					#endif
					#if defined(USB_CAN_BE_DEVICE)
					case USB_INT_WAKEUPI:
						UDIEN  |= (1 << WAKEUPE);
    1578:	42 e0       	ldi	r20, 0x02	; 2
    157a:	60 e0       	ldi	r22, 0x00	; 0
    157c:	80 e0       	ldi	r24, 0x00	; 0
    157e:	2e de       	rcall	.-932    	; 0x11dc <Endpoint_ConfigureEndpoint_Prv>
    1580:	80 91 f0 00 	lds	r24, 0x00F0
				uint8_t Number = (Address & ENDPOINT_EPNUM_MASK);

				if (Number >= ENDPOINT_TOTAL_ENDPOINTS)
				  return false;

				return Endpoint_ConfigureEndpoint_Prv(Number,
    1584:	88 60       	ori	r24, 0x08	; 8
    1586:	80 93 f0 00 	sts	0x00F0, r24
    158a:	94 d1       	rcall	.+808    	; 0x18b4 <USB_Event_Stub>
						break;
					case USB_INT_SOFI:
						UDIEN  |= (1 << SOFE);
						break;
					case USB_INT_RXSTPI:
						UEIENX |= (1 << RXSTPE);
    158c:	ff 91       	pop	r31
    158e:	ef 91       	pop	r30
    1590:	bf 91       	pop	r27
    1592:	af 91       	pop	r26
    1594:	9f 91       	pop	r25

		#if defined(INTERRUPT_CONTROL_ENDPOINT)
		USB_INT_Enable(USB_INT_RXSTPI);
		#endif

		EVENT_USB_Device_Reset();
    1596:	8f 91       	pop	r24
    1598:	7f 91       	pop	r23
		USB_ResetInterface();

		EVENT_USB_UIDChange();
	}
	#endif
}
    159a:	6f 91       	pop	r22
    159c:	5f 91       	pop	r21
    159e:	4f 91       	pop	r20
    15a0:	3f 91       	pop	r19
    15a2:	2f 91       	pop	r18
    15a4:	0f 90       	pop	r0
    15a6:	0f be       	out	0x3f, r0	; 63
    15a8:	0f 90       	pop	r0
    15aa:	1f 90       	pop	r1
    15ac:	18 95       	reti

000015ae <__vector_11>:
    15ae:	1f 92       	push	r1
    15b0:	0f 92       	push	r0
    15b2:	0f b6       	in	r0, 0x3f	; 63
    15b4:	0f 92       	push	r0
    15b6:	11 24       	eor	r1, r1
    15b8:	2f 93       	push	r18
    15ba:	3f 93       	push	r19

#if defined(INTERRUPT_CONTROL_ENDPOINT) && defined(USB_CAN_BE_DEVICE)
ISR(USB_COM_vect, ISR_BLOCK)
{
    15bc:	4f 93       	push	r20
    15be:	5f 93       	push	r21
    15c0:	6f 93       	push	r22
    15c2:	7f 93       	push	r23
    15c4:	8f 93       	push	r24
    15c6:	9f 93       	push	r25
    15c8:	af 93       	push	r26
    15ca:	bf 93       	push	r27
    15cc:	cf 93       	push	r28
    15ce:	ef 93       	push	r30
    15d0:	ff 93       	push	r31
			 */
			static inline uint8_t Endpoint_GetCurrentEndpoint(void) ATTR_WARN_UNUSED_RESULT ATTR_ALWAYS_INLINE;
			static inline uint8_t Endpoint_GetCurrentEndpoint(void)
			{
				#if !defined(CONTROL_ONLY_DEVICE)
					return ((UENUM & ENDPOINT_EPNUM_MASK) | Endpoint_GetEndpointDirection());
    15d2:	c0 91 e9 00 	lds	r28, 0x00E9
    15d6:	cf 70       	andi	r28, 0x0F	; 15
			 *  \return The currently selected endpoint's direction, as a \c ENDPOINT_DIR_* mask.
			 */
			static inline uint8_t Endpoint_GetEndpointDirection(void) ATTR_WARN_UNUSED_RESULT ATTR_ALWAYS_INLINE;
			static inline uint8_t Endpoint_GetEndpointDirection(void)
			{
				return (UECFG0X & (1 << EPDIR)) ? ENDPOINT_DIR_IN : ENDPOINT_DIR_OUT;
    15d8:	80 91 ec 00 	lds	r24, 0x00EC
			 */
			static inline void Endpoint_SelectEndpoint(const uint8_t Address) ATTR_ALWAYS_INLINE;
			static inline void Endpoint_SelectEndpoint(const uint8_t Address)
			{
				#if !defined(CONTROL_ONLY_DEVICE)
					UENUM = (Address & ENDPOINT_EPNUM_MASK);
    15dc:	10 92 e9 00 	sts	0x00E9, r1
						break;
					case USB_INT_SOFI:
						UDIEN  &= ~(1 << SOFE);
						break;
					case USB_INT_RXSTPI:
						UEIENX &= ~(1 << RXSTPE);
    15e0:	80 91 f0 00 	lds	r24, 0x00F0
    15e4:	87 7f       	andi	r24, 0xF7	; 247
    15e6:	80 93 f0 00 	sts	0x00F0, r24
			static inline void GlobalInterruptEnable(void)
			{
				GCC_MEMORY_BARRIER();

				#if (ARCH == ARCH_AVR8)
				sei();
    15ea:	78 94       	sei
	Endpoint_SelectEndpoint(ENDPOINT_CONTROLEP);
	USB_INT_Disable(USB_INT_RXSTPI);

	GlobalInterruptEnable();

	USB_Device_ProcessControlRequest();
    15ec:	1b d0       	rcall	.+54     	; 0x1624 <USB_Device_ProcessControlRequest>
    15ee:	10 92 e9 00 	sts	0x00E9, r1
    15f2:	80 91 f0 00 	lds	r24, 0x00F0
						break;
					case USB_INT_SOFI:
						UDIEN  |= (1 << SOFE);
						break;
					case USB_INT_RXSTPI:
						UEIENX |= (1 << RXSTPE);
    15f6:	88 60       	ori	r24, 0x08	; 8
    15f8:	80 93 f0 00 	sts	0x00F0, r24
    15fc:	c0 93 e9 00 	sts	0x00E9, r28
    1600:	ff 91       	pop	r31

	Endpoint_SelectEndpoint(ENDPOINT_CONTROLEP);
	USB_INT_Enable(USB_INT_RXSTPI);
	Endpoint_SelectEndpoint(PrevSelectedEndpoint);
}
    1602:	ef 91       	pop	r30
    1604:	cf 91       	pop	r28
    1606:	bf 91       	pop	r27
    1608:	af 91       	pop	r26
    160a:	9f 91       	pop	r25
    160c:	8f 91       	pop	r24
    160e:	7f 91       	pop	r23
    1610:	6f 91       	pop	r22
    1612:	5f 91       	pop	r21
    1614:	4f 91       	pop	r20
    1616:	3f 91       	pop	r19
    1618:	2f 91       	pop	r18
    161a:	0f 90       	pop	r0
    161c:	0f be       	out	0x3f, r0	; 63
    161e:	0f 90       	pop	r0
    1620:	1f 90       	pop	r1
    1622:	18 95       	reti

00001624 <USB_Device_ProcessControlRequest>:
    1624:	1f 93       	push	r17
#if !defined(NO_DEVICE_REMOTE_WAKEUP)
bool    USB_Device_RemoteWakeupEnabled;
#endif

void USB_Device_ProcessControlRequest(void)
{
    1626:	cf 93       	push	r28
    1628:	df 93       	push	r29
    162a:	cd b7       	in	r28, 0x3d	; 61
    162c:	de b7       	in	r29, 0x3e	; 62
    162e:	aa 97       	sbiw	r28, 0x2a	; 42
    1630:	0f b6       	in	r0, 0x3f	; 63
    1632:	f8 94       	cli
    1634:	de bf       	out	0x3e, r29	; 62
    1636:	0f be       	out	0x3f, r0	; 63
    1638:	cd bf       	out	0x3d, r28	; 61
    163a:	ec ed       	ldi	r30, 0xDC	; 220
    163c:	f2 e0       	ldi	r31, 0x02	; 2
			 *  \return Next byte in the currently selected endpoint's FIFO buffer.
			 */
			static inline uint8_t Endpoint_Read_8(void) ATTR_WARN_UNUSED_RESULT ATTR_ALWAYS_INLINE;
			static inline uint8_t Endpoint_Read_8(void)
			{
				return UEDATX;
    163e:	80 91 f1 00 	lds	r24, 0x00F1
	USB_ControlRequest.wLength       = Endpoint_Read_16_LE();
	#else
	uint8_t* RequestHeader = (uint8_t*)&USB_ControlRequest;

	for (uint8_t RequestHeaderByte = 0; RequestHeaderByte < sizeof(USB_Request_Header_t); RequestHeaderByte++)
	  *(RequestHeader++) = Endpoint_Read_8();
    1642:	81 93       	st	Z+, r24
	USB_ControlRequest.wIndex        = Endpoint_Read_16_LE();
	USB_ControlRequest.wLength       = Endpoint_Read_16_LE();
	#else
	uint8_t* RequestHeader = (uint8_t*)&USB_ControlRequest;

	for (uint8_t RequestHeaderByte = 0; RequestHeaderByte < sizeof(USB_Request_Header_t); RequestHeaderByte++)
    1644:	22 e0       	ldi	r18, 0x02	; 2
    1646:	e4 3e       	cpi	r30, 0xE4	; 228
    1648:	f2 07       	cpc	r31, r18
    164a:	c9 f7       	brne	.-14     	; 0x163e <USB_Device_ProcessControlRequest+0x1a>
	  *(RequestHeader++) = Endpoint_Read_8();
	#endif

	EVENT_USB_Device_ControlRequest();
    164c:	0e 94 ae 02 	call	0x55c	; 0x55c <EVENT_USB_Device_ControlRequest>
			 *  \return Boolean \c true if the selected endpoint has received a SETUP packet, \c false otherwise.
			 */
			static inline bool Endpoint_IsSETUPReceived(void) ATTR_WARN_UNUSED_RESULT ATTR_ALWAYS_INLINE;
			static inline bool Endpoint_IsSETUPReceived(void)
			{
				return ((UEINTX & (1 << RXSTPI)) ? true : false);
    1650:	80 91 e8 00 	lds	r24, 0x00E8

	if (Endpoint_IsSETUPReceived())
    1654:	83 ff       	sbrs	r24, 3
    1656:	16 c1       	rjmp	.+556    	; 0x1884 <USB_Device_ProcessControlRequest+0x260>
	{
		uint8_t bmRequestType = USB_ControlRequest.bmRequestType;
    1658:	20 91 dc 02 	lds	r18, 0x02DC

		switch (USB_ControlRequest.bRequest)
    165c:	30 91 dd 02 	lds	r19, 0x02DD
    1660:	83 2f       	mov	r24, r19
    1662:	90 e0       	ldi	r25, 0x00	; 0
    1664:	8a 30       	cpi	r24, 0x0A	; 10
    1666:	91 05       	cpc	r25, r1
    1668:	08 f0       	brcs	.+2      	; 0x166c <USB_Device_ProcessControlRequest+0x48>
    166a:	0c c1       	rjmp	.+536    	; 0x1884 <USB_Device_ProcessControlRequest+0x260>
    166c:	fc 01       	movw	r30, r24
    166e:	e3 5a       	subi	r30, 0xA3	; 163
    1670:	ff 4f       	sbci	r31, 0xFF	; 255
    1672:	c8 c4       	rjmp	.+2448   	; 0x2004 <__tablejump2__>
    1674:	20 38       	cpi	r18, 0x80	; 128
		{
			case REQ_GetStatus:
				if ((bmRequestType == (REQDIR_DEVICETOHOST | REQTYPE_STANDARD | REQREC_DEVICE)) ||
    1676:	81 f0       	breq	.+32     	; 0x1698 <USB_Device_ProcessControlRequest+0x74>
    1678:	22 38       	cpi	r18, 0x82	; 130
    167a:	09 f0       	breq	.+2      	; 0x167e <USB_Device_ProcessControlRequest+0x5a>
    167c:	03 c1       	rjmp	.+518    	; 0x1884 <USB_Device_ProcessControlRequest+0x260>
    167e:	80 91 e0 02 	lds	r24, 0x02E0
			 */
			static inline void Endpoint_SelectEndpoint(const uint8_t Address) ATTR_ALWAYS_INLINE;
			static inline void Endpoint_SelectEndpoint(const uint8_t Address)
			{
				#if !defined(CONTROL_ONLY_DEVICE)
					UENUM = (Address & ENDPOINT_EPNUM_MASK);
    1682:	8f 70       	andi	r24, 0x0F	; 15
    1684:	80 93 e9 00 	sts	0x00E9, r24
    1688:	80 91 eb 00 	lds	r24, 0x00EB
			 *  \return Boolean \c true if the currently selected endpoint is stalled, \c false otherwise.
			 */
			static inline bool Endpoint_IsStalled(void) ATTR_WARN_UNUSED_RESULT ATTR_ALWAYS_INLINE;
			static inline bool Endpoint_IsStalled(void)
			{
				return ((UECONX & (1 << STALLRQ)) ? true : false);
    168c:	85 fb       	bst	r24, 5
    168e:	88 27       	eor	r24, r24
    1690:	80 f9       	bld	r24, 0
    1692:	10 92 e9 00 	sts	0x00E9, r1
			 */
			static inline void Endpoint_SelectEndpoint(const uint8_t Address) ATTR_ALWAYS_INLINE;
			static inline void Endpoint_SelectEndpoint(const uint8_t Address)
			{
				#if !defined(CONTROL_ONLY_DEVICE)
					UENUM = (Address & ENDPOINT_EPNUM_MASK);
    1696:	06 c0       	rjmp	.+12     	; 0x16a4 <USB_Device_ProcessControlRequest+0x80>
    1698:	80 91 d8 02 	lds	r24, 0x02D8
	Endpoint_ClearOUT();
}

static void USB_Device_GetStatus(void)
{
	uint8_t CurrentStatus = 0;
    169c:	90 91 d9 02 	lds	r25, 0x02D9
			if (USB_Device_CurrentlySelfPowered)
			  CurrentStatus |= FEATURE_SELFPOWERED_ENABLED;
			#endif

			#if !defined(NO_DEVICE_REMOTE_WAKEUP)
			if (USB_Device_RemoteWakeupEnabled)
    16a0:	91 11       	cpse	r25, r1
    16a2:	82 60       	ori	r24, 0x02	; 2
			  CurrentStatus |= FEATURE_REMOTE_WAKEUP_ENABLED;
    16a4:	90 91 e8 00 	lds	r25, 0x00E8
			 *  \note This is not applicable for non CONTROL type endpoints.
			 */
			static inline void Endpoint_ClearSETUP(void) ATTR_ALWAYS_INLINE;
			static inline void Endpoint_ClearSETUP(void)
			{
				UEINTX &= ~(1 << RXSTPI);
    16a8:	97 7f       	andi	r25, 0xF7	; 247
    16aa:	90 93 e8 00 	sts	0x00E8, r25
    16ae:	80 93 f1 00 	sts	0x00F1, r24
			 *  \param[in] Data  Data to write to the currently selected endpoint's FIFO buffer.
			 */
			static inline void Endpoint_Write_16_LE(const uint16_t Data) ATTR_ALWAYS_INLINE;
			static inline void Endpoint_Write_16_LE(const uint16_t Data)
			{
				UEDATX = (Data & 0xFF);
    16b2:	10 92 f1 00 	sts	0x00F1, r1
				UEDATX = (Data >> 8);
    16b6:	c2 c0       	rjmp	.+388    	; 0x183c <USB_Device_ProcessControlRequest+0x218>
    16b8:	82 2f       	mov	r24, r18
				}

				break;
			case REQ_ClearFeature:
			case REQ_SetFeature:
				if ((bmRequestType == (REQDIR_HOSTTODEVICE | REQTYPE_STANDARD | REQREC_DEVICE)) ||
    16ba:	8d 7f       	andi	r24, 0xFD	; 253
    16bc:	09 f0       	breq	.+2      	; 0x16c0 <USB_Device_ProcessControlRequest+0x9c>
    16be:	e2 c0       	rjmp	.+452    	; 0x1884 <USB_Device_ProcessControlRequest+0x260>
    16c0:	22 23       	and	r18, r18
	Endpoint_ClearStatusStage();
}

static void USB_Device_ClearSetFeature(void)
{
	switch (USB_ControlRequest.bmRequestType & CONTROL_REQTYPE_RECIPIENT)
    16c2:	19 f0       	breq	.+6      	; 0x16ca <USB_Device_ProcessControlRequest+0xa6>
    16c4:	22 30       	cpi	r18, 0x02	; 2
    16c6:	61 f0       	breq	.+24     	; 0x16e0 <USB_Device_ProcessControlRequest+0xbc>
    16c8:	dd c0       	rjmp	.+442    	; 0x1884 <USB_Device_ProcessControlRequest+0x260>
    16ca:	80 91 de 02 	lds	r24, 0x02DE
	{
		#if !defined(NO_DEVICE_REMOTE_WAKEUP)
		case REQREC_DEVICE:
			if ((uint8_t)USB_ControlRequest.wValue == FEATURE_SEL_DeviceRemoteWakeup)
    16ce:	81 30       	cpi	r24, 0x01	; 1
    16d0:	09 f0       	breq	.+2      	; 0x16d4 <USB_Device_ProcessControlRequest+0xb0>
    16d2:	d8 c0       	rjmp	.+432    	; 0x1884 <USB_Device_ProcessControlRequest+0x260>
    16d4:	33 30       	cpi	r19, 0x03	; 3
			  USB_Device_RemoteWakeupEnabled = (USB_ControlRequest.bRequest == REQ_SetFeature);
    16d6:	09 f0       	breq	.+2      	; 0x16da <USB_Device_ProcessControlRequest+0xb6>
    16d8:	80 e0       	ldi	r24, 0x00	; 0
    16da:	80 93 d9 02 	sts	0x02D9, r24
    16de:	28 c0       	rjmp	.+80     	; 0x1730 <USB_Device_ProcessControlRequest+0x10c>
    16e0:	80 91 de 02 	lds	r24, 0x02DE

			break;
		#endif
		#if !defined(CONTROL_ONLY_DEVICE)
		case REQREC_ENDPOINT:
			if ((uint8_t)USB_ControlRequest.wValue == FEATURE_SEL_EndpointHalt)
    16e4:	81 11       	cpse	r24, r1
    16e6:	24 c0       	rjmp	.+72     	; 0x1730 <USB_Device_ProcessControlRequest+0x10c>
    16e8:	20 91 e0 02 	lds	r18, 0x02E0
			{
				uint8_t EndpointIndex = ((uint8_t)USB_ControlRequest.wIndex & ENDPOINT_EPNUM_MASK);
    16ec:	2f 70       	andi	r18, 0x0F	; 15
    16ee:	09 f4       	brne	.+2      	; 0x16f2 <USB_Device_ProcessControlRequest+0xce>

				if (EndpointIndex == ENDPOINT_CONTROLEP)
    16f0:	c9 c0       	rjmp	.+402    	; 0x1884 <USB_Device_ProcessControlRequest+0x260>
    16f2:	20 93 e9 00 	sts	0x00E9, r18
			 */
			static inline void Endpoint_SelectEndpoint(const uint8_t Address) ATTR_ALWAYS_INLINE;
			static inline void Endpoint_SelectEndpoint(const uint8_t Address)
			{
				#if !defined(CONTROL_ONLY_DEVICE)
					UENUM = (Address & ENDPOINT_EPNUM_MASK);
    16f6:	80 91 eb 00 	lds	r24, 0x00EB
			 * \return Boolean \c true if the currently selected endpoint is enabled, \c false otherwise.
			 */
			static inline bool Endpoint_IsEnabled(void) ATTR_WARN_UNUSED_RESULT ATTR_ALWAYS_INLINE;
			static inline bool Endpoint_IsEnabled(void)
			{
				return ((UECONX & (1 << EPEN)) ? true : false);
    16fa:	80 ff       	sbrs	r24, 0
				  return;

				Endpoint_SelectEndpoint(EndpointIndex);

				if (Endpoint_IsEnabled())
    16fc:	19 c0       	rjmp	.+50     	; 0x1730 <USB_Device_ProcessControlRequest+0x10c>
    16fe:	80 91 eb 00 	lds	r24, 0x00EB
			 *  \ingroup Group_EndpointPacketManagement_AVR8
			 */
			static inline void Endpoint_StallTransaction(void) ATTR_ALWAYS_INLINE;
			static inline void Endpoint_StallTransaction(void)
			{
				UECONX |= (1 << STALLRQ);
    1702:	33 30       	cpi	r19, 0x03	; 3
				{
					if (USB_ControlRequest.bRequest == REQ_SetFeature)
    1704:	11 f4       	brne	.+4      	; 0x170a <USB_Device_ProcessControlRequest+0xe6>
    1706:	80 62       	ori	r24, 0x20	; 32
    1708:	11 c0       	rjmp	.+34     	; 0x172c <USB_Device_ProcessControlRequest+0x108>
    170a:	80 61       	ori	r24, 0x10	; 16
			 *  \ingroup Group_EndpointPacketManagement_AVR8
			 */
			static inline void Endpoint_ClearStall(void) ATTR_ALWAYS_INLINE;
			static inline void Endpoint_ClearStall(void)
			{
				UECONX |= (1 << STALLRQC);
    170c:	80 93 eb 00 	sts	0x00EB, r24
    1710:	81 e0       	ldi	r24, 0x01	; 1
			 *  \param[in] Address  Endpoint address whose FIFO buffers are to be reset.
			 */
			static inline void Endpoint_ResetEndpoint(const uint8_t Address) ATTR_ALWAYS_INLINE;
			static inline void Endpoint_ResetEndpoint(const uint8_t Address)
			{
				UERST = (1 << (Address & ENDPOINT_EPNUM_MASK));
    1712:	90 e0       	ldi	r25, 0x00	; 0
    1714:	02 2e       	mov	r0, r18
    1716:	01 c0       	rjmp	.+2      	; 0x171a <USB_Device_ProcessControlRequest+0xf6>
    1718:	88 0f       	add	r24, r24
    171a:	0a 94       	dec	r0
    171c:	ea f7       	brpl	.-6      	; 0x1718 <USB_Device_ProcessControlRequest+0xf4>
    171e:	80 93 ea 00 	sts	0x00EA, r24
    1722:	10 92 ea 00 	sts	0x00EA, r1
				UERST = 0;
    1726:	80 91 eb 00 	lds	r24, 0x00EB

			/** Resets the data toggle of the currently selected endpoint. */
			static inline void Endpoint_ResetDataToggle(void) ATTR_ALWAYS_INLINE;
			static inline void Endpoint_ResetDataToggle(void)
			{
				UECONX |= (1 << RSTDT);
    172a:	88 60       	ori	r24, 0x08	; 8
    172c:	80 93 eb 00 	sts	0x00EB, r24
    1730:	10 92 e9 00 	sts	0x00E9, r1
			 */
			static inline void Endpoint_SelectEndpoint(const uint8_t Address) ATTR_ALWAYS_INLINE;
			static inline void Endpoint_SelectEndpoint(const uint8_t Address)
			{
				#if !defined(CONTROL_ONLY_DEVICE)
					UENUM = (Address & ENDPOINT_EPNUM_MASK);
    1734:	80 91 e8 00 	lds	r24, 0x00E8
			 *  \note This is not applicable for non CONTROL type endpoints.
			 */
			static inline void Endpoint_ClearSETUP(void) ATTR_ALWAYS_INLINE;
			static inline void Endpoint_ClearSETUP(void)
			{
				UEINTX &= ~(1 << RXSTPI);
    1738:	87 7f       	andi	r24, 0xF7	; 247
    173a:	83 c0       	rjmp	.+262    	; 0x1842 <USB_Device_ProcessControlRequest+0x21e>
    173c:	21 11       	cpse	r18, r1
					USB_Device_ClearSetFeature();
				}

				break;
			case REQ_SetAddress:
				if (bmRequestType == (REQDIR_HOSTTODEVICE | REQTYPE_STANDARD | REQREC_DEVICE))
    173e:	a2 c0       	rjmp	.+324    	; 0x1884 <USB_Device_ProcessControlRequest+0x260>
    1740:	10 91 de 02 	lds	r17, 0x02DE
	}
}

static void USB_Device_SetAddress(void)
{
	uint8_t DeviceAddress = (USB_ControlRequest.wValue & 0x7F);
    1744:	1f 77       	andi	r17, 0x7F	; 127
    1746:	80 91 e3 00 	lds	r24, 0x00E3
			#endif

			static inline void USB_Device_SetDeviceAddress(const uint8_t Address) ATTR_ALWAYS_INLINE;
			static inline void USB_Device_SetDeviceAddress(const uint8_t Address)
			{
				UDADDR = (UDADDR & (1 << ADDEN)) | (Address & 0x7F);
    174a:	80 78       	andi	r24, 0x80	; 128
    174c:	81 2b       	or	r24, r17
    174e:	80 93 e3 00 	sts	0x00E3, r24
    1752:	80 91 e8 00 	lds	r24, 0x00E8
    1756:	87 7f       	andi	r24, 0xF7	; 247
    1758:	80 93 e8 00 	sts	0x00E8, r24
    175c:	b1 dd       	rcall	.-1182   	; 0x12c0 <Endpoint_ClearStatusStage>

	USB_Device_SetDeviceAddress(DeviceAddress);

	Endpoint_ClearSETUP();

	Endpoint_ClearStatusStage();
    175e:	80 91 e8 00 	lds	r24, 0x00E8
			 *  \return Boolean \c true if the current endpoint is ready for an IN packet, \c false otherwise.
			 */
			static inline bool Endpoint_IsINReady(void) ATTR_WARN_UNUSED_RESULT ATTR_ALWAYS_INLINE;
			static inline bool Endpoint_IsINReady(void)
			{
				return ((UEINTX & (1 << TXINI)) ? true : false);
    1762:	80 ff       	sbrs	r24, 0
    1764:	fc cf       	rjmp	.-8      	; 0x175e <USB_Device_ProcessControlRequest+0x13a>

	while (!(Endpoint_IsINReady()));
    1766:	80 91 e3 00 	lds	r24, 0x00E3
			static inline void USB_Device_EnableDeviceAddress(const uint8_t Address) ATTR_ALWAYS_INLINE;
			static inline void USB_Device_EnableDeviceAddress(const uint8_t Address)
			{
				(void)Address;
				
				UDADDR |= (1 << ADDEN);
    176a:	80 68       	ori	r24, 0x80	; 128
    176c:	80 93 e3 00 	sts	0x00E3, r24
    1770:	11 23       	and	r17, r17
    1772:	11 f0       	breq	.+4      	; 0x1778 <USB_Device_ProcessControlRequest+0x154>

	USB_Device_EnableDeviceAddress(DeviceAddress);

	USB_DeviceState = (DeviceAddress) ? DEVICE_STATE_Addressed : DEVICE_STATE_Default;
    1774:	83 e0       	ldi	r24, 0x03	; 3
    1776:	01 c0       	rjmp	.+2      	; 0x177a <USB_Device_ProcessControlRequest+0x156>
    1778:	82 e0       	ldi	r24, 0x02	; 2
    177a:	80 93 db 02 	sts	0x02DB, r24
    177e:	82 c0       	rjmp	.+260    	; 0x1884 <USB_Device_ProcessControlRequest+0x260>
    1780:	20 58       	subi	r18, 0x80	; 128
    1782:	22 30       	cpi	r18, 0x02	; 2
				if (bmRequestType == (REQDIR_HOSTTODEVICE | REQTYPE_STANDARD | REQREC_DEVICE))
				  USB_Device_SetAddress();

				break;
			case REQ_GetDescriptor:
				if ((bmRequestType == (REQDIR_DEVICETOHOST | REQTYPE_STANDARD | REQREC_DEVICE)) ||
    1784:	08 f0       	brcs	.+2      	; 0x1788 <USB_Device_ProcessControlRequest+0x164>
    1786:	7e c0       	rjmp	.+252    	; 0x1884 <USB_Device_ProcessControlRequest+0x260>
    1788:	80 91 de 02 	lds	r24, 0x02DE
	    !(defined(USE_FLASH_DESCRIPTORS) || defined(USE_EEPROM_DESCRIPTORS) || defined(USE_RAM_DESCRIPTORS))
	uint8_t DescriptorAddressSpace;
	#endif

	#if !defined(NO_INTERNAL_SERIAL) && (USE_INTERNAL_SERIAL != NO_DESCRIPTOR)
	if (USB_ControlRequest.wValue == ((DTYPE_String << 8) | USE_INTERNAL_SERIAL))
    178c:	90 91 df 02 	lds	r25, 0x02DF
    1790:	8c 3d       	cpi	r24, 0xDC	; 220
    1792:	23 e0       	ldi	r18, 0x03	; 3
    1794:	92 07       	cpc	r25, r18
    1796:	71 f5       	brne	.+92     	; 0x17f4 <USB_Device_ProcessControlRequest+0x1d0>
    1798:	83 e0       	ldi	r24, 0x03	; 3
    179a:	8a 83       	std	Y+2, r24	; 0x02
	{
		USB_Descriptor_Header_t Header;
		uint16_t                UnicodeString[INTERNAL_SERIAL_LENGTH_BITS / 4];
	} SignatureDescriptor;

	SignatureDescriptor.Header.Type = DTYPE_String;
    179c:	8a e2       	ldi	r24, 0x2A	; 42
    179e:	89 83       	std	Y+1, r24	; 0x01
	SignatureDescriptor.Header.Size = USB_STRING_LEN(INTERNAL_SERIAL_LENGTH_BITS / 4);
    17a0:	4f b7       	in	r20, 0x3f	; 63
    17a2:	f8 94       	cli
			static inline uint_reg_t GetGlobalInterruptMask(void)
			{
				GCC_MEMORY_BARRIER();

				#if (ARCH == ARCH_AVR8)
				return SREG;
    17a4:	de 01       	movw	r26, r28
			static inline void GlobalInterruptDisable(void)
			{
				GCC_MEMORY_BARRIER();

				#if (ARCH == ARCH_AVR8)
				cli();
    17a6:	13 96       	adiw	r26, 0x03	; 3
				__builtin_ssrf(AVR32_SR_GM_OFFSET);
				#elif (ARCH == ARCH_XMEGA)
				cli();
				#endif

				GCC_MEMORY_BARRIER();
    17a8:	20 e0       	ldi	r18, 0x00	; 0
    17aa:	3e e0       	ldi	r19, 0x0E	; 14
				uint_reg_t CurrentGlobalInt = GetGlobalInterruptMask();
				GlobalInterruptDisable();

				uint8_t SigReadAddress = INTERNAL_SERIAL_START_ADDRESS;

				for (uint8_t SerialCharNum = 0; SerialCharNum < (INTERNAL_SERIAL_LENGTH_BITS / 4); SerialCharNum++)
    17ac:	51 e2       	ldi	r21, 0x21	; 33
			static inline void USB_Device_GetSerialString(uint16_t* const UnicodeString)
			{
				uint_reg_t CurrentGlobalInt = GetGlobalInterruptMask();
				GlobalInterruptDisable();

				uint8_t SigReadAddress = INTERNAL_SERIAL_START_ADDRESS;
    17ae:	e3 2f       	mov	r30, r19

				for (uint8_t SerialCharNum = 0; SerialCharNum < (INTERNAL_SERIAL_LENGTH_BITS / 4); SerialCharNum++)
				{
					uint8_t SerialByte = boot_signature_byte_get(SigReadAddress);
    17b0:	f0 e0       	ldi	r31, 0x00	; 0
    17b2:	50 93 57 00 	sts	0x0057, r21
    17b6:	e4 91       	lpm	r30, Z
    17b8:	20 ff       	sbrs	r18, 0
    17ba:	03 c0       	rjmp	.+6      	; 0x17c2 <USB_Device_ProcessControlRequest+0x19e>

					if (SerialCharNum & 0x01)
    17bc:	e2 95       	swap	r30
    17be:	ef 70       	andi	r30, 0x0F	; 15
					{
						SerialByte >>= 4;
    17c0:	3f 5f       	subi	r19, 0xFF	; 255
    17c2:	ef 70       	andi	r30, 0x0F	; 15
						SigReadAddress++;
    17c4:	8e 2f       	mov	r24, r30
					}

					SerialByte &= 0x0F;
    17c6:	90 e0       	ldi	r25, 0x00	; 0
    17c8:	ea 30       	cpi	r30, 0x0A	; 10
    17ca:	10 f0       	brcs	.+4      	; 0x17d0 <USB_Device_ProcessControlRequest+0x1ac>

					UnicodeString[SerialCharNum] = cpu_to_le16((SerialByte >= 10) ?
    17cc:	c7 96       	adiw	r24, 0x37	; 55
    17ce:	01 c0       	rjmp	.+2      	; 0x17d2 <USB_Device_ProcessControlRequest+0x1ae>
    17d0:	c0 96       	adiw	r24, 0x30	; 48
    17d2:	8d 93       	st	X+, r24
    17d4:	9d 93       	st	X+, r25
    17d6:	2f 5f       	subi	r18, 0xFF	; 255
    17d8:	24 31       	cpi	r18, 0x14	; 20
				uint_reg_t CurrentGlobalInt = GetGlobalInterruptMask();
				GlobalInterruptDisable();

				uint8_t SigReadAddress = INTERNAL_SERIAL_START_ADDRESS;

				for (uint8_t SerialCharNum = 0; SerialCharNum < (INTERNAL_SERIAL_LENGTH_BITS / 4); SerialCharNum++)
    17da:	49 f7       	brne	.-46     	; 0x17ae <USB_Device_ProcessControlRequest+0x18a>
    17dc:	4f bf       	out	0x3f, r20	; 63
    17de:	80 91 e8 00 	lds	r24, 0x00E8
			 *  \note This is not applicable for non CONTROL type endpoints.
			 */
			static inline void Endpoint_ClearSETUP(void) ATTR_ALWAYS_INLINE;
			static inline void Endpoint_ClearSETUP(void)
			{
				UEINTX &= ~(1 << RXSTPI);
    17e2:	87 7f       	andi	r24, 0xF7	; 247
    17e4:	80 93 e8 00 	sts	0x00E8, r24
    17e8:	6a e2       	ldi	r22, 0x2A	; 42
    17ea:	70 e0       	ldi	r23, 0x00	; 0

	USB_Device_GetSerialString(SignatureDescriptor.UnicodeString);

	Endpoint_ClearSETUP();

	Endpoint_Write_Control_Stream_LE(&SignatureDescriptor, sizeof(SignatureDescriptor));
    17ec:	ce 01       	movw	r24, r28
    17ee:	01 96       	adiw	r24, 0x01	; 1
    17f0:	fc db       	rcall	.-2056   	; 0xfea <Endpoint_Write_Control_Stream_LE>
    17f2:	13 c0       	rjmp	.+38     	; 0x181a <USB_Device_ProcessControlRequest+0x1f6>
    17f4:	ae 01       	movw	r20, r28
    17f6:	4f 5f       	subi	r20, 0xFF	; 255
    17f8:	5f 4f       	sbci	r21, 0xFF	; 255
		USB_Device_GetInternalSerialDescriptor();
		return;
	}
	#endif

	if ((DescriptorSize = CALLBACK_USB_GetDescriptor(USB_ControlRequest.wValue, USB_ControlRequest.wIndex,
